:0300030002B14DFA
:10B14D00C0E0C083C082901DA9E4F0A3F0D082D0EE
:04B15D0083D0E03289
:10AFAF00E4900000F0A3F0901DABF0A3F0C28CC2B0
:0BAFBF008D758CDCF58AD28CD2A922A3
:109C4300C2A3E4F593F594F591F592F595F596F5A0
:109C5300B1F5B2F5B3F5B4F5C9F5CA75968475B225
:109C630042901A56F0C2A67F017E0012B096D2A689
:109C7300901A56E004F0E0C3940240E912B0661271
:109C8300ACD112B30F12AFCA12B20412AD8312AF2A
:0F9C93002312AC3712ABE612B23412AFAFD2AF1E
:019CA200229F
:03000B000282125C
:10821200C0E0C0F0C083C082C0D075D000C000C032
:1082220001C002C003C004C005C006C00712A85F97
:10823200900CE3E004F0900F3EE004F0901199E01E
:1082420004F0900001E004F07006900000E004F0F9
:10825200901DACE004F07006901DABE004F0D390EA
:108262001DACE094C7901DABE094004034E4F0A351
:10827200F0901DAAE004F07006901DA9E004F090B1
:10828200194FE004F0901ADBE004F07006901ADA5D
:10829200E004F0901DB2E004F07006901DB1E0041D
:1082A200F0D007D006D005D004D003D002D001D040
:0C82B20000D0D0D082D083D0F0D0E032D9
:10A42E00129C43901686E0FF7004C2B68002D2B62C
:10A43E00EFB4010312ABBB12391312A2BD129ABCB8
:10A44E00129B1E12A39C129B8012AFE512949FD3F7
:10A45E00900001E094C7900000E0940040DFE4F02B
:07A46E00A3F012A64680D600
:10616200205665723A2000207C2000435055204979
:10617200443A2000566F6C746167653A20002056DD
:106182007C200053544152543100555639385F38FF
:1061920036385F3232303433305F4434004E4F434E
:1061A200414C4C00333133332E39304E0000313202
:1061B2003032322E38304500555639380000000052
:1061C20000000000000000000000000000000000CD
:1061D2000000000000003230322E3134312E3137CF
:1061E200362E320000000000000000000000000017
:1061F200000000000000000000000000000000009D
:1062020000000000000000004869576946695F33DA
:1062120034353241455F324700313330313336381D
:106222003430303000312C3433312E303430302C95
:106232003433312E303430302C302C332C3020009B
:106242000000000000000000312C3134342E3634BE
:1062520030302C3134342E363430302C302C332C38
:10626200302C302000000000000000534F5300008B
:10627200000000000000000000000000000000001C
:0962820000000000000000000013
:10A1D900ECF5C3AF058FC41205DAF5C275C65A7519
:10A1E900C6A522FFE43401FEEC93FD12AD44EC93C5
:10A1F90022AD07AC0675C78075F51622ECF5C3AF1D
:10A20900058FC4227FD112AD447FD202AD447D01B6
:0CA2190012AD441D22E4FD12AD440D22E4
:10855C00901A5AEFF012A6C1128F3B901A5AE0648F
:10856C00017BFF7A617962703512A8CE7BFF7A614C
:10857C00798C1285E07A61796D12A8CE7B017A1D17
:10858C0079521285E07A61797612A8CE7B017A1D38
:10859C0079A012A8CE7BFF7A61798002A8CE12A9AD
:1085AC00017BFF7A61798C1285EF7A61796D12A962
:1085BC00017B017A1D79521285EF7A61797612A9C5
:1085CC00017B017A1D79A012A9017BFF7A61798068
:1085DC0012A9012212A8CE7BFF7A61796912A8CE6A
:1085EC007BFF2212A9017BFF7A61796912A9017BB9
:0285FC00FF225C
:0EB26100E4F5C7F5C5F5C675C3FF75C4FF2239
:10B19A0012A1FA75C50112A20512A1E500AFC202F9
:02B1AA00B26190
:10B16100AD07AC0612A20512A1FE75C50312A1E539
:03B1710002B261C6
:10ADC90012A1FA75C50212A1D9000DBD00010C74BA
:10ADD9000129F9E43AFA901A60E014F070E802B235
:01ADE9006108
:07AD3D007F2E12AD447F2FB1
:10AD4400AB07AA0612A1FE75C502EAF5C3AF038FCD
:0CAD5400C4AF058FC212A1E50002B2617D
:10AC0F0012A1FA75C5021205DA601212A1D9000D50
:10AC1F00BD00010C740129F9E43AFA80E912A2058A
:08AC2F00E412A1E30002B2618E
:10A77500E4FFFE12B161E4901A97F0A3F0901A97E6
:10A78500E0FEA3E0FF244CF58274163EF583E0FD60
:10A7950012AD44901A98E004F07006901A97E00400
:0AA7A500F0C3901A97E0940240D32D
:01A7AF002287
:10ACD100E4FBFAAF03AE0212B19A744C2BF5827405
:10ACE100163AF583EFF00BBB00010AE4B503E4EA81
:03ACF100B402E0CA
:01ACF400223D
:05269000901A5AEFF062
:10269500E4FFFE12B161E4FDFF12AD447D147F013C
:1026A50012AD44E4FD7F0212AD447F0312AD447FB9
:1026B5000412AD447F0512AD447F0612AD447D037F
:1026C5007F0712AD447BFF7A61799F901A6074078A
:1026D500F07F0812ADC97D077F0F12AD447F101240
:1026E500A2177F1112AD447D217F1212AD447D2FBB
:1026F5007F1312AD447D5B7F1412AD447F1512A28A
:102705001E7F1612AD447F1712AD441D7F1812AD02
:10271500447F1912AD447F1A12AD447F1B12AD449C
:102725007F1C12AD447F1D12AD440D7F1E12AD44BA
:102735001D7F2A12AD440D7F2B12AD447D157F2CD4
:1027450012AD447F2D12A21E12AD3D7F3A12AD444B
:102755001D7F3B12AD447F3C12AD447F3D12AD441D
:102765007F3E12AD447F3F12AD447BFF7A6179A66F
:102775007F2012AC0F7A6179B07F3012AC0F7A618D
:1027850079BA7F4012AC0FE4FD7FA012AD440D7FF6
:10279500A112AD447FA212AD441D7FA312AD447FAB
:1027A500A412AD447FA512AD440D7FA612AD441D04
:1027B5007FA712AD440D7FA812AD447FA912AD4489
:1027C5007FAA12AD447FAB12AD447FAC12AD447FFE
:1027D500AD12AD447FAE12AD441D7FAF12AD449036
:1027E5001A5AE07BFF70087A6279277F8080087A21
:1027F50062794A7F807E0012AC0F7D017FB07E003A
:1028050012AD447FB112AD447FB212AD441D7FB30A
:1028150012AD447D387FB412AD447DF47FB512AD61
:1028250044E4FD7FB612AD447FB712AD447FB812C4
:10283500AD447FB912AD447FBA12AD440D7FBB12D2
:10284500AD447D5C7FBC12AD447D507FBD12AD446F
:10285500E4FD7FBE12AD447DB47FBF12AD44E4FC00
:10286500EC24C0FFE433FEEC9061D812A1F26005C0
:102875000CECB420EBE4FCEC240090620A12A1EC11
:1028850060050CECB40FF0E4FCEC241090621B1214
:10289500A1EC60050CECB40FF0E4FCEC24B0FFE413
:1028A5003401FEEC90626D12A1F260050CECB41ED1
:1028B500EAE4FD7FD07E0112AD440D12A20D7FD357
:1028C50012AD447D067FD412AD44E4FD7FD512AD33
:1028D500447FD612AD447FD712AD447BFF7A617930
:1028E50085901A607407F07F2012ADC97F2712A268
:1028F500177F2812AD447F2912AD447D647F2A12CB
:10290500AD447D017F2B12AD441D7F2C12AD447F5C
:102915002D12AD4412AD3D127230E4FD7F307E01C3
:1029250012AD447F3112AD4412A20D7FDF12AD44CA
:082935007D037F1F1E02AD446B
:10B066007F1F7E0012B19AEF64037F0160091226EA
:08B076009075C7207F00222223
:1030B400615E040300000000000000000000000046
:1030C40000000000000000000000000000000000FC
:1030D40000000000000000000000000000000000EC
:1030E40000000000000000000000000000000000DC
:1030F40000000000000000000000000000000000CC
:1031040000000000000000000000000000000000BB
:1031140000000000000000000000000000000000AB
:10312400000000000000000000000000000000009B
:10313400000000000000000000000000000000008B
:10314400000000000000000000000000000000007B
:10315400000000000000000000000000000000006B
:10316400000000000000000000000000000000005B
:10317400000000000000000000000000000000004B
:10318400000000000000000000000000000000003B
:10319400000000000000000000000000000000002B
:1031A400000000000000000000000000000000001B
:1031B400000000000000000000000000000000000B
:1031C40000000000000000000000000000000000FB
:1031D40000000000000000000000000000000000EB
:1031E40000000000000000000000000000000000DB
:1031F40000000000000000000000000000000000CB
:1032040000000000000000000000000000000000BA
:023214000000B8
:08B337007F1D7EB7DEFEDFFC86
:01B33F0022EB
:10B07E00AD07AC06ED4C600FED1DAE0470011C4E1D
:08B08E00600512B33780F122C6
:0CB2C3007F037ECF7D1CDDFEDEFCDFFA89
:01B2CF00225C
:10B09600AB07AA06EB4A600FEB1BAE0270011A4E15
:08B0A600600512B2C380F12223
:10AE6C00E0FF901A67E0FE04F074A02EF582E43443
:0FAE7C001DF58322901A67E0FF04F074A02F22C7
:0AB30F0043918075DE0F75BC8722A4
:10A9CA00E4F5BDF5BEE5BC548044404FF5BC00003B
:10A9DA000000E5BC30E5FB53BCDFE5BEC4540FFD07
:10A9EA007C00AFBDEF75F010A42DFFEC35F0FE2210
:108F3B007F0712A9CAAC06AD07E41203C3901A61EE
:108F4B001208987FBA7E497D1C7C41901A61E0F82B
:108F5B00A3E0F9A3E0FAA3E0FB12018E7B0A7AD718
:108F6B00792378421202971203FC901A65EEF0A354
:108F7B00EFF0129ED3C3901A66E094E8901A65E066
:108F8B009403E4901A6750028008F0901D4D12AEC6
:108F9B006CEFF0901D4E12AE6CEFF012AE8012AE75
:108FAB0078742EF0901D4F12AE6CEFF012AE801253
:048FBB00AE78E4F0B8
:018FBF00228F
:06B370002000200D0A0080
:10AE8B007C00AF03AE021206667C007D0A120666DA
:0FAE9B00ED24302274392FF582E4341DF5832223
:10B1F400EFD394394005EF24C9FF2274D02FFF22E6
:10B1AC00EF540FFFD39409EF50042430FF222437BF
:02B1BC00FF2270
:109ED300AB07AA067C277D1012AE91901D50F07C33
:109EE300037DE812AE8D901D4DF07D6412AE8BA301
:109EF300F07D0A12AE8BA3F0AE02AF0312AE94FF55
:109F0300901D51F0901D50E0901D43F0901D4DE0C9
:109F1300901D44F0901D4EE0901D45F0901D4FE0C4
:0B9F2300901D46F0A3EFF0E4A3F02235
:10ACF500901A67EFF0E0C4540FFF12B1AC12B350D5
:10AD0500901A67E0FF12B1AC12B3507BFF7AB379AA
:04AD15007002A9011E
:10965A00901A60EBF0A3EAF0A3E9F0A3ECF0A3ED13
:01966A00F00F
:10966B007FC012ACF5E4FF12ACF5E4901A65F0A3E1
:10967B00F0901A63E0FEA3E0FFA3E0FCA3E0FDC3C0
:10968B009FEC9E5026901A60E0FBA3E0FAA3E0F952
:10969B008D828C831205F3FF12ACF5901A66E004F1
:1096AB00F070CE901A65E004F080C67FC012ACF566
:0996BB007BFF7AB3797202A90168
:10A6C1007EF1E4FDA806E6FC0EC4540FFF12B1AC06
:10A6D100ED25E02452F582E4341DF583EFF0AF045B
:10A6E10012B1ACED25E02453F582E4341DF583EF7E
:0BA6F100F00DEDB407CEE4901D60F00A
:01A6FC00223B
:0E904400901A6FEEF0A3EFF0A3ECF0A3EDF0A6
:10905200E4FFFEEEFD901A70E02DFD901A6FE034F1
:1090620000FC744C2DF58274163CF583E0F9600B1C
:1090720012AE9FE9F00F0EEEB406D812AE9F742D19
:10908200F00F901A71E0FCA3E0244CF58274163CB8
:10909200F583E0FEC3940AEE75F00A500280148450
:1090A20075F00A84E5F02430FD12AE9FEDF00FEE6C
:1090B20075F00A84E5F02430FE12AE9FEEF00F1236
:0490C200AE9FE4F089
:0190C6002287
:10AFE500128C86BF051312AA8812A9677F027E00FC
:0AAFF50012B096126F521291CC2296
:10AB3A00475053204F4E0D0A005761697420475001
:10AB4A0053204C6F636B200D0A00475053204F4629
:0BAB5A00460D0A0041505556393800E6
:1080030074D22FF582E4341AF583E0FF901A5BE013
:108013002403F582E43400F583EFF0901A5BE00467
:10802300F022901A5BE02403F582E43400F5832206
:10803300E4FAF9F8901A5DE0FCA3E0FDA3E0FEA3E7
:10804300E0FF12A4B9E47B0AFAF9F812A4B9EB240D
:108053003022A3E02FFFE433FE74032FF582740074
:108063003EF5837440F0901A5AE004F022901A5AB5
:10807300E0FFC3940622F583E025E0FEEFFD901AAE
:108083005BE02DFDE433FC74032DF58274003CF5B5
:1080930083EE22901A5AE0FFC322E4FAF9F8E0FCD7
:1080A300A3E0FDA3E0FEA3E0FF22901676E06401C7
:0180B30022AA
:1011030090165CE0FF901A5CF0BF0103126E4DE491
:10111300901A5BF01280AD703F901A5CE0B4011F2F
:10112300E4901A5AF0128070504774762FF582E4D7
:10113300341DF583E025E012800E12806980E6E419
:10114300901A5AF01280705028EF90AB5E9325E00E
:1011530012800E12806980ECE4901A5AF0128070AB
:10116300500FEF90AB5E9325E012800E12806980E2
:10117300EC128025746012801DE4901A5AF01280DC
:1011830070500512805580F6E4901A5AF012807060
:10119300502574542FF582E43416F583E0601890DB
:1011A3001A5AE02454F582E43416F583E025E0125C
:1011B300800E12806980D690165BE0FF901833E0B2
:1011C300FE90183BE0F9901A5B740DF0EE700CE999
:1011D3007009EF25E04461FF02129DEF25E044E032
:1011E30012800EEE6065E4901A5AF012807050057A
:1011F30012805580F6E4901A5AF0128070502074D1
:101203002C2FF582E43418F583E06013901A5AE02A
:10121300242CF582E4341812807912806880DB90E4
:101223001A5BE02406F0901833E025E04460FF9059
:101233001A5BE0FE128029EFF0E9700C74032E12A2
:10124300802BE04401F0800012801EE9604FE4909F
:101253001A5AF0128070500512805580F6E4901AE5
:101263005AF0128070502074342FF582E43418F54C
:1012730083E06013901A5AE02434F582E4341812A0
:10128300807912806880DB901A5BE02406F0901866
:101293003BE025E04461FF901A5B12801212802527
:1012A300740312801D12802874F012801D1280AD09
:1012B3006003021381901A5CE0B4011FE4901A5A90
:1012C300F0128096940E400302147474622FF58218
:1012D300E4341D12800B12806980E690165E128042
:1012E3000DE4901A5AF012809694085010741C2F33
:1012F300F582E4341B12800B12806980E9901AD9BD
:10130300E0B40205901708800390165F12800DE485
:10131300901A5AF01280969409501074082FF5828F
:10132300E4341B12800B12806980E9901AD9E0B46F
:101333000205901709800390166012800D901AD051
:10134300121663128028742F12801D901B0112162F
:1013530063128028742F12801D128028744112801A
:101363001D128028743D12801DE4901A5AF01280D9
:1013730070400302147412800312806980F0901687
:101383005E12800DE4901A5AF01280969408501061
:10139300746C2FF582E4341612800B12806980E995
:1013A30090165F12800DE4901A5AF01280969409F9
:1013B3005010747C2FF582E4341612800B1280696E
:1013C30080E9901660E0FF128025EF121607128065
:1013D30028742F121607128028742F12801D128072
:1013E30028744112801D128028743D12801D9017AD
:1013F30075E0FEA3E07C002400FDEC3EFCE4120358
:10140300C37BA17AF87951784012018E1203FC90C4
:101413001A5D1208987BA07A8679017800128037CA
:10142300901AD2F0E47B107A27128035901AD3F009
:10143300E47BE87A03128035901AD4F07B6412803F
:1014430033901AD5F07B0A128033901AD6F07B0AB8
:10145300901A5D12809D12804E901AD7F0E4A3F08B
:10146300901A5AF01280705008128003128069801B
:10147300F3E4901A5AF0128096943C502A748C2FFD
:10148300F582E43416F583E0FF601C12800FE0FF61
:10149300D39464400D74032F12802B747E12801D2D
:1014A300800512806980CF127DDC90168AE064018A
:1014B30070511280AD704C128025742012801D7BF8
:1014C30064901B3E12809D120772129ED3901D5092
:1014D30012800D901D4D12800D901D4E12800D90A7
:1014E3001D4F12800D128028742E12801D901D51E5
:1014F30012800D128028744B12801D128028746D87
:1015030012801D901688E0640170361280257420C5
:1015130012801D128F3BE4901A5AF0901A5AE0245D
:10152300A0F582E4341DF583E0FF600D128025EF02
:10153300128068A3E004F080E212802574561280C2
:101543001D123913901689E064017036300F33127F
:101553008025742012801DE4901A5AF0901A5AE0E4
:101563002485F582E4341CF583E0FF600D128025A9
:10157300EF128068A3E004F080E212802574431226
:10158300801D901687E064017046300F431280255A
:10159300742012801DE4901A5AF0901A5AE0247AAB
:1015A300F582E4341CF583E0FF600D128025EF1211
:1015B3008068A3E004F080E2128025746812801D25
:1015C300128028745012801D128028746112801DAD
:1015D3001280AD702490168BE06401701C1280257C
:1015E300742012801D128028745312801D901AF4E7
:1015F30012800D901AF512800D901A5BE090068F01
:03160300F07F0174
:1016060022F0901A5BE004F0E4FFFE129ED3901DD8
:101616004EE0FF901A5BE02403F582E43400F58384
:10162600EFF0901A5BE004F0901D4FE0FF901A5B1C
:10163600E02403F582E43400F583EFF0901A5BE0D2
:1016460004F0901D51E0FF901A5BE02403F582E45C
:101656003400F583EFF0901A5BE004F022E0FEA37D
:10166600E0FF129ED3901D4EE0FF901A5BE024032C
:10167600F582E43400F583EFF0901A5BE004F09015
:101686001D4FE0FF901A5BE02403F582E43400F579
:1016960083EFF0901A5BE004F0901D51E0FF901A82
:1016A6005BE02403F582E43400F583EFF0901A5BE7
:0416B600E004F0223A
:10A9FA00901679E0B4010D20A70AD2A77BFF7AABA3
:10AA0A00793A8010901676E0B4010C2003097BFF96
:10AA1A007AAB794302A901121103E4FF12869F223D
:10949F0090164EE0B4012990164CE0FEA3E07C003C
:1094AF002400FFEC3ECF24FFCF34FFFED3901DB23C
:1094BF00E09F901DB1E09E4007E4F0A3F012A9FADF
:1094CF0090164EE0B401047F0180027F0090164F8A
:1094DF00E0B401047E0180027E00EE4F60249016FE
:1094EF0079E0B4011D901676E0B4011630A7133061
:1094FF00031012A9FAC2A7C2037BFF7AAB795412E9
:03950F00A901228D
:109A5A00444947492031204F4E0D0A00444947499D
:109A6A002031204F46460D0A0044494749203220FA
:109A7A004F4E0D0A00444947492032204F46460DB1
:109A8A000A004E4F57205253540D0A005749444575
:109A9A0031200000574944453220000057494445C7
:109AAA003120000057494445322000003132333416
:029ABA0035363F
:1097FF00FD745B2EF582E4341AF583EDF0745C2F63
:10980F00F582E4341AF583E4F0901A65E004F0224F
:10981F00E02409F582E43400F58322FDE02DFDE418
:10982F0033FC74032DF58274003CF58322901A5893
:10983F00E0FBA3E0FAA3E022745F2FF582E4341A71
:10984F00F58322F0901A5DE004F022745929F58215
:06985F00E4341AF5832237
:106C3F00E4901A65F0901A65E0FFC394065011E0D6
:106C4F00FE2424F582E43418F583E01297FF80E5E3
:106C5F00901A767401F0A3741AF0A3745BF07B01A1
:106C6F007A047903127D1D901A58EBF0A3EAF0A372
:106C7F00E9F012983C4A4B7003026D3AE4901A65A2
:106C8F00F0901A65E0FFC39408501612983CF990E3
:106C9F001A65E0FEF5827583001205F31297FF80E7
:106CAF00E0901A61E0B44111A3E0B4310C901843A5
:106CBF00126D3D7A9A795A804E901A61E0B441155F
:106CCF00A3E0B43010E4901843F012A7757BFF7A5D
:106CDF009A79668032901A61E0B44211A3E0B43120
:106CEF000C90184B126D3D7A9A7973801A901A6135
:106CFF00E0B44219A3E0B43014E490184BF012A79B
:106D0F00757BFF7A9A797F12A9017F0122901A6110
:106D1F00E0B45214A3E0B4300F7BFF7A9A798C124F
:0D6D2F00A90175C7207F01227F01227F008E
:0A6D3C00227401F012A7757BFF22FC
:0E792E00901A58EBF0A3EAF0A3E9F0A3EDF0F5
:10793C0012981FE0541EC313901A5CF070037F0161
:10794C0022E4901A5DF0901A5DE0FFC39406500A91
:10795C00129847742012985280ECE4901A5DF090C3
:10796C001A5DE0FFC394065026901A5812983FF9FE
:10797C008F827583001205F3901A5EF06011E0FFA0
:10798C00901A5DE0245F12984AEF12985280D0E46E
:10799C00901A5DF0901A5DE0FF901A5B12982AE045
:1079AC00C313FE129847E06E60037F0022129853B7
:1079BC00E0B406E0901A5CE014F0E025E0F0901AD8
:1079CC005BE0FF129820E054E1F074092F1298222A
:1079DC00C083C082E0FF901A5CE0FEEF4ED082D0F4
:1079EC0083F0EE700A901A5B12981FE04480F07FCF
:0179FC000288
:0179FD002267
:0585FE00901A58EFF097
:1086030090068FE0D394E874809483400302869E9F
:10861300901654E0700302869E90068FE0FFFE9052
:108623001A58E0FDC3EF9D04FCE4F9E9C39C501C18
:1086330074032EF582E43400F583E0FD740A2EF50D
:1086430082E43400F583EDF01E0980DF7906901A89
:10865300597440F0A3D9FCE4F9745429F582E43445
:1086630016F583E0600D25E0FE12985AEEF009E955
:10867300B406E690165BE025E044E0901A5FF0E470
:10868300F912985AE0FFE9901A5812982AEFF00964
:0B869300E9B407ED90068FE02407F02B
:01869E0022B9
:10A89800901821E0D394004021E4901A58F09018C1
:10A8A80021E0FF901A58E0C39F500F7F287E0012C6
:10A8B800B096901A58E004F080E47F067E0012B04B
:06A8C800967F0102869F4D
:1091CC00126C3F901843E0700690184BE06064906E
:1091DC000010E020E05D901A57740DF0E4901A56E0
:1091EC00F0901843E0600C7A18793C129240BF0260
:1091FC0002801090184BE060167A18794412924055
:10920C00BF020C901A57E004FF1285FE02A898903A
:10921C001A57E0240AF582E43400F583E020E013C9
:10922C00901A57E02407F0901A56E004F0E0C3942B
:03923C000640AE3B
:0D923F00227B01901A57E004FD12792E22C7
:10723000E4901A5BF0901A5BE0FD24E0909A9612BD
:1072400072C740F17FE61273087D017FE712731069
:10725000901A5BE0FD24E8909A9E1272C740F17F7D
:10726000EE1272F37FEF1272FC901A5BE0FD24F0D5
:10727000909AA61272DD40F17FF61272F37FF71238
:1072800072FC901A5BE0FD24F8909AAE1272DD4019
:10729000F17FFE127308E4FD7FFF127310901A5BFA
:1072A000E0FD24D8FFE43401FEED909AB693FD1280
:1072B000AD44901A5BE004F0E0C3940640DFE4FDC7
:0772C0007FDE7E0102AD44F8
:1072C700FFE43401FEED93FD12AD44901A5BE00438
:1072D700F0E0C3940622FFE43401FEED93FD12AD06
:1072E70044901A5BE004F0E0C3940622E4FD7E01BB
:1072F70012AD44E422FD7E0112AD44E4901A5BF026
:1073070022E4FD7E0112AD44227E0112AD44E490D9
:047317001A5BF022EB
:10371300000011892312329B462457AD653674BFCE
:103723008C489DC1AF5ABED3CA6CDBE5E97EF8F77E
:10373300108101083393221A56A5472C75B7643EAE
:103743009CC98D40BFDBAE52DAEDCB64F9FFE8765E
:103753002102308B02101399672676AF443455BD8E
:10376300AD4ABCC38E589FD1EB6EFAE7C87CD9F53E
:103773003183200A1291031877A7662E54B5453C6E
:10378300BDCBAC429ED98F50FBEFEA66D8FDC9741E
:103793004204538D6116709F042015A9273236BB4E
:1037A300CE4CDFC5ED5EFCD7886899E1AB7ABAF3FE
:1037B3005285430C7197601E14A1052837B3263A2E
:1037C300DECDCF44FDDFEC5698E98960BBFBAA72DE
:1037D3006306728F4014519D252234AB063017B90E
:1037E300EF4EFEC7CC5CDDD5A96AB8E38A789BF1BE
:1037F3007387620E5095411C35A3242A16B10738EE
:10380300FFCFEE46DCDDCD54B9EBA8629AF98B709D
:1038130084089581A71AB693C22CD3A5E13EF0B7CD
:10382300084019C92B523ADB4E645FED6D767CFF7D
:1038330094898500B79BA612D2ADC324F1BFE036AD
:1038430018C109483BD32A5A5EE54F6C7DF76C7E5D
:10385300A50AB48386189791E32EF2A7C03CD1B58D
:10386300294238CB0A501BD96F667EEF4C745DFD3D
:10387300B58BA40296998710F3AFE226D0BDC1346D
:1038830039C3284A1AD10B587FE76E6E5CF54D7C1D
:10389300C60CD785E51EF497802891A1A33AB2B34D
:1038A3004A445BCD695678DF0C601DE92F723EFBFD
:1038B300D68DC704F59FE41690A98120B3BBA2322D
:1038C3005AC54B4C79D7685E1CE10D683FF32E7ADD
:1038D300E70EF687C41CD595A12AB0A3823893B10D
:1038E3006B467ACF485459DD2D623CEB0E701FF9BD
:1038F300F78FE606D49DC514B1ABA02292B98330ED
:103903007BC76A4E58D5495C3DE32C6A1EF10F789C
:05958300901A65EDF0F7
:1095880074FFA3F0A3F0901A65E0D39400403F1253
:1095980005DAFF901A66A3E06F25E0FFE433FE7456
:1095A800132FF58274373EF583E493FC740193FD21
:1095B800901A66E0FFECFEED6FFFEEF0A3EFF0907F
:1095C8001A65E014F0740129F9E43AFA80B8901A9F
:1095D80066E0FEA3E0F4FFEEF4FCEF901DB4F0AEFD
:0695E80004EE901DB3F03B
:0195EE00225A
:10AEC900C313F04480F0A3E004F0E022E02403F58A
:0EAED90082E43400F58322901DADE064032274
:0CB2F700E4F5D875F9FA75E910D2DE22F2
:0EB26F00E4F5D875F9FDF5E9D2DE30DFFD22F9
:10A308007B017A00790390068FE024FEFD12958385
:10A3180090068FE0FE2401F582E43400F583E0FF27
:10A32800901DB4E06F60037F002274022EF582E472
:10A338003400F583E0FF901DB3E06F60037F0022D7
:0AA3480090068FE024FEF07F012252
:108B6800E4901DADF0A3F012008EEF30E004C29641
:108B78008002D296A2969201E4901DAFF0901DBBA0
:108B8800F012B26F901DAEE0FFC313F0A3E0B4067D
:108B980016901DBBE004F0E0B4030C901DAD740307
:108BA800F0E4901DAFF022E4901DAFF0C202200265
:108BB800D012B2F720DF2612008EEE20E207901DB9
:108BC800AD7404F022EF30E004C2968002D296A27F
:108BD80096300101B350DDA2969201D2022002CE56
:108BE800901DAEE012AEC9B407C4901DAD7405F077
:018BF800225A
:108D9F00E4901DB0F0901DBCF0901DBCE0C3940892
:108DAF00507812B2F720DF2C12008EEE20E20790DF
:108DBF001DAD7404F022EF30E004C2968002D2960B
:108DCF00A296300101B35008A2969201D2028004FC
:108DDF00C20280D120021A901DAEE0FF12AEC9B4BC
:108DEF000707901DAD7405F022901DBCE004F080C4
:108DFF00A812B26F901DAFE0FFB40604A37401F088
:108E0F00EF6405600D901DAEE0C313F0901DBCE044
:0A8E1F0004F0E4901DAFF0028DA8EE
:018E29002226
:10914A00E490068FF0128B6812AEE060037F012272
:10915A00901DAEE0647E60037F0222128D9F901DF7
:10916A00AEE0FEB47E0812AEE060F07F0322E49027
:10917A00068FF012AED5EEF090068FE004F0128D55
:10918A009F12AEE060037F0422901DAEE0FF9006BE
:10919A008F12AED5EFF090068FE004F0E0D394E89A
:1091AA007480948340037F0522901DB0E0B401CE01
:1091BA0090068FE014F012A308BF01037F06227FF6
:0291CA0007227A
:10A22500120898E47B597A20901A61F9F8E0FCA3AA
:10A23500E0FDA3E0FEA3E0FF02A4B9901B017D0AA7
:10A24500E0FEA3E0FF7C00020666E024D075F00A7C
:10A25500A4FFA3E024D02F241C22AC00AD01AE0244
:0CA26500AF03020898A3A3A3E024212269
:10566300EFB40700504A905670F828287302568505
:1056730002568902569102569602569D0256A5027B
:1056830056AC7C0180167C017D01E4FE80267C0102
:10569300E480187C01E4FDFE801AE4FC7D017E01B8
:1056A3008012E4FC7D01FE800BE4FCFD7E0180049E
:1056B300E4FCFDFEECB40115901B1CE0FFB42008D4
:1056C300901D76745AF0800DEF24208004901B1CEB
:1056D300E0901D76F0EDB40115901B1DE0FFB420A2
:1056E30008901D77745AF0800DEF24208004901BDE
:1056F3001DE0901D77F0EEB40115901B1EE0FFB482
:105703002008901D78745AF0800DEF2420800490B7
:105713001B1EE0901D78F0901B23E0B44E19901BE4
:105723001FE0FFB42008901D79745AF0801BEF240A
:1057330020901D79F08012901B1FE0FF901D79B41B
:105743002005744CF08002EFF0901D80E0B46419E2
:10575300901B21E0FFB42008901D7A745AF0801B3F
:10576300EF2420901D7AF08012901B21E0FF901D02
:105773007AB42005744CF08002EFF0901B10E0B473
:105783005717901B22E0FFB42007901D7B745AF03B
:1057930022EF2420901D7BF022901B22E0FF901D1E
:0A57A3007BB42004744CF022EFF0F8
:0157AD0022D9
:109BE200901D627460F0901B09E024D075F00AA405
:109BF200FF901B08E024D075F064A42FFF901B0A8D
:109C0200E024D02FFFC3940A5005EF24768027EF7B
:109C1200C39464500DEF241C901D63F0E4901D80EA
:109C2200F022EFC3946E5005EF24088009EFC3942D
:109C3200B4500DEF24B8901D63F0901D807464F051
:019C420022FF
:106E4D00129BE2901B0B12A24F901D64F0C394266F
:106E5D005004E0243CF0901B0E12A24F901D65F0E3
:106E6D0012A240AB07EBC39414EB241C901D66F0EB
:106E7D0012A240AB05901AD07D6412A245EF241CDE
:106E8D00FFEB75F00AA42F901D67F0901AD0E0FE6D
:106E9D00A3E0FF7C007D64120666AF05EF241C9015
:106EAD001D68F0901AD9E0B4020D901709E0901DFD
:106EBD0069F0901708800B901660E0901D69F090B6
:106ECD00165FE0901D6AF0901AF0E0FCA3E0FDA3C0
:106EDD00E0FEA3E02410FFEE3427FEE43DFDE43C8C
:106EED00FC901A6112A225901A6512A225901A69BA
:106EFD0012A25FE47B5BFA901A6912A230901A6DB0
:106F0D00120898E47B5BFAF9F8901A6912A2329094
:106F1D001A7112A25F901D6B7460F0901A6512A227
:106F2D006A901D6CF0901A6D12A26A901D6DF09012
:106F3D001A7112A26A901D6EF0A3747DF090165D09
:056F4D00E0FF025663A5
:105CA600EF2BFBEE3AFAED39F9EC38F8901A5FE093
:105CB600FEA3E0FFE4FCFDEB2FFFEA3EFEED39FD1F
:105CC600EC38FCEF249BFFEE34A1FEED34FBFDEC3B
:105CD60034FFFCA31208987F0122901A61E0FCA30E
:105CE600E0FDA3E0FEA3E022FD74D32FF582E434A9
:105CF6001BF58322EE75F00A84E5F0243022F58345
:105D0600E0FD901A5FE4F0A3EDF0E4FCFD7B5BFAA6
:105D1600F9F80206E774032FF582E43400F583E010
:105D260022E4FDFC901A61E0F8A3E0F9A3E0FAA3EF
:105D3600E0FBC3020812FEED9400FDEC9400FC901B
:105D46001A61020898901A5BE0FEA3E0FFE4FCFDEE
:105D56007B597A20F9F80206E7F583E0901A5DFF91
:105D66007E00EEF0A3EFF022F583E024E4901A56CD
:105D7600F02224E4FFE034FFFE7C007D0A22F58356
:105D8600E0901A5BFDE4F0A3EDF0227420901BCCAA
:105D9600F0901C03227420901BCFF0901BFE22244F
:105DA60008F582E43400F583E022901BC97420F0E4
:105DB60022901A66E0FFC322901BCA7420F022903C
:105DC6001A67E0FFC322901BCB7420F02275F00AFD
:045DD60084243022CF
:10A999007F06E4FE125D1B20E00E74072FFF0EEE0A
:10A9A900D3940840EF7F00220F0F0F125D1BFEB4F6
:10A9B90027028004EEB46006901DB6EFF0227F00F6
:01A9C900226B
:103CE600E4FEFDFC74032C125D1EC313FB74652CED
:103CF600F582E4341AF583EBF00CECB406E6901A80
:103D060065E0FCC39450400DECD394595007EC2465
:103D1600E0901BC9F0901A65E0FFC39441400DEF97
:103D2600D3944A5007EF24EF901BC9F0901A65E030
:103D3600FFB44B03125DB0EFB45A03125DB0901A94
:103D460065E0B44C03125DB0901A65E0FFC3943A87
:103D56005005901BC9EFF0125DB79450400DEFD39C
:103D660094595007EF24E0901BCAF0125DB79441B6
:103D7600400DEFD3944A5007EF24EF901BCAF09002
:103D86001A66E0FFB44B03125DBEEFB45A03125D30
:103D9600BE901A66E0B44C03125DBE125DB7943A4B
:103DA6005005901BCAEFF0125DC59450400DEFD33D
:103DB60094595007EF24E0901BCBF0125DC5944157
:103DC600400DEFD3944A5007EF24EF901BCBF090B1
:103DD6001A67E0FFB44B03125DCCEFB45A03125DD1
:103DE600CC901A67E0B44C03125DCC125DC5943AD0
:103DF6005005901BCBEFF0901A68E0FFC39450403B
:103E060009EF24E0125D93744EF0901A68E0B45AFC
:103E160006125D91744EF0901A68E0FFB44C0612DB
:103E26005D917453F0EFC3943A5007EF125D9374AB
:103E360053F0901BCD742EF0901A69E0FFC3945096
:103E46004009EF24E0901BCEF07A64901A69E0B442
:103E56005A08901BCE7420F07A64901A69E0FFB479
:103E66004C08901BCE7420F0E4FAEFC3943A500746
:103E7600901BCEEFF0E4FA901A6AE0FFC39450402C
:103E860009EF24E0125D9D7457F0901A6AE0B45A67
:103E960006125D9B7457F0901A6AE0FFB44C061246
:103EA6005D9B7445F0EFC3943A5007EF125D9D7425
:0F3EB60045F0901C03E0901BD0F0E4A3F0AF02A6
:013EC50022DA
:101A520012A999EF7006901DB5F0FF22123CE69094
:101A62001DB6E0FD2404F582E43400125D6EEFB48D
:101A72006404E02464F0901A56E0FFC394B4400A70
:101A8200EFD394BD5004E024B0F0901A56E0FFC3A7
:101A920094BE400AEFD394C75004E02442F0901A57
:101AA20056E0FE75F064842430901BBBF0EE75F0B6
:101AB2000A84125CFBA3F0901A56E0125CFB901BA6
:101AC200BDF074052DF582E43400125D6EC3943CC2
:101AD2004004E024C4F0901A56E0FD125DD3901B3E
:101AE200BEF0ED125CFBA3F0A3742EF0901DB6E0E5
:101AF200FD2406F582E43400125D6EE0FE125DD331
:101B0200901BC1F0125CFAA3F0901BFEE0901BC385
:101B1200F0E4A3F074072DF582E43400F583E0FFCE
:101B2200901A57E4F0A3EFF0901DB6E0125DA59075
:101B32001A59125D6524E4FFEE125D7C120666AA54
:101B420006AB07901A58E0901A57125D78120654A5
:101B5200EF2BFFEE3AFEE4FD125D457F207E03127D
:101B62005D27400C125CE09420FFEE9403125D3C72
:101B7200125CE0FFEC1203BE7BF67A28799478417E
:101B820012018E1203FC121DAA901D50E0901C1827
:101B9200F0901D4DE0901C19F0901D4EE0901C1A23
:101BA200F0901D4FE0901C1BF0A3742EF0901D517D
:101BB200E0901C1DF0E4A3F0901DB6E0FF125DA5BD
:101BC200901A59125D8A74092FF582E43400F58364
:101BD200E0FB7A00901A5AE0901A59125D781206C8
:101BE200667E007F64120654EB24E4FDE434FFCDEC
:101BF2002FFFED3EFEE4FCFD125D457F907E01125B
:101C02005D27400C125CE09490FFEE9401125D3C63
:101C1200901A61121DBE901D4EE0901C04F0901DA2
:101C22004FE0901C05F0901D51E0901C06F0E4A3DB
:101C3200F0FF901DB6E0F9240FF582E43400F5833D
:101C4200E0647D703B901DB6E0FF240CF582E43425
:101C520000125D84740D2FF582E43400125D5F740E
:101C62000E29F582E43400125D04C004C005C006EA
:101C7200C007125D4BD003D002D001D000125CA687
:101C8200901DB6E0F92410F582E43400F583E06497
:101C92007D703B901DB6E0FF240DF582E434001206
:101CA2005D84740E2FF582E43400125D5F740F2997
:101CB200F582E43400125D04C004C005C006C0070A
:101CC200125D4BD003D002D001D000125CA6EF64AB
:101CD20001705A125CE0FFEC1203BE901BFF120867
:101CE20098125CE0FFEC33901A615011A3A3A3E0B9
:101CF200120804121DAA901C0E742D800A121DBE19
:101D0200901D50E0901C0EF0901D4DE0901C0FF0C5
:101D1200901D4EE0901C10F0901D4FE0901C11F0B1
:101D2200901D51E0901C12F0E4A3F0800A901BFF7A
:101D32001208A400000000901DB6E0240AF582E417
:101D42003400F583E0901BDFF0E4FF7E0774032E7E
:101D5200125D1EC313901A56F064206007E0125CF5
:101D6200EEEDF00F0EEEB40DE4900010E0541EC341
:101D720013FED394004025125CEF742DF00FEEC3D6
:101D8200940AEE50044430800C125DD3125CEEEDE6
:101D9200F00F125CFAFE125CEFEEF00F125CEFE451
:071DA200F0901DB504F0FFF5
:101DA90022901A61120898901A61A3A3E0FEA3E099
:101DB900FF129ED322A3A3E0FEA3E0FF129ED3222B
:10B1BE0024475057504C2C00000024475057504CF9
:02B1CE002C0053
:10321600603C1CCB00000000000000000000000025
:103226000000000000000000000000000000000098
:103236000000000000000000000000000000000088
:103246000000000000000000000000000000000078
:10AD60000EE0FD74CB2EF582E4341CF583EDF00E7D
:10AD700074CB2EF582E4341CF58322F583E0FD7458
:03AD8000CB2F22B4
:105DDA0078607C1A7D017BFF7AB179BE7E007F0AEA
:105DEA001205B4E4FFFE74602EF582E4341A12AD93
:105DFA007B12AD73EDF00F0EEEB407EAE4FE74C940
:105E0A002EF582E4341B12AD7B12AD73EDF00F0E4A
:105E1A00EEB407EA74CB2F12AD73742CF00F901CFA
:105E2A0003E0FE74CB2F12AD73EEF00F74CB2F127A
:105E3A00AD73742CF00FE4FE74BB2EF582E4341BB0
:105E4A0012AD7B12AD73EDF00F0EEEB408EA74CB0F
:105E5A002F12AD73742CF00F901BFEE0FE74CB2F43
:105E6A0012AD73EEF00F74CB2F12AD73742CF00FCA
:105E7A00E4FE74D32EF582E4341BF583E0FD600E54
:105E8A0074CB2F12AD73EDF00F0EEEB409E474CBA0
:105E9A002F12AD73742AF00FE4FD7E01EF14FCEEAD
:105EAA00C39C500912AD70E06DFD0E80EFEDC45435
:105EBA000FFEC3940AEE5004243080022437FE7485
:105ECA00CB2F12AD73EEF00FED540FFEC3940AEE12
:105EDA005004243080022437FE74CB2F12AD73EEA7
:105EEA00F00F74CB2F12AD73740DF00F74CB2F1209
:0E5EFA00AD73740AF00F74CB2F12AD73E4F089
:015F08002276
:104F6400E4FEFDED90B1C893FC12AD70ECF00E0DB3
:104F7400EDB407EF901676E06401704EFD741C2DBD
:104F8400F582E4341BF583E0FC12AD70ECF00E0DF9
:104F9400EDB407E912AD70742CF0901B2312AD60D0
:104FA400742CF00EE4FD74082DF582E4341BF583B3
:104FB400E0FC12AD70ECF00E0DEDB408E912AD702A
:104FC400742CF00E901B1002501AE4FD746C2DF535
:104FD40082E43416F583E0FC12AD70ECF00E0DEDB6
:104FE400B407E912AD70742CF090167312AD6074AE
:104FF4002CF00EE4FD747C2DF582E43416F583E088
:10500400FC12AD70ECF00E0DEDB408E912AD707445
:105014002CF00E901684E0FC12AD70EC12AD6E74A0
:105024002CF00EE4FD74542DF582E43416F583E07F
:10503400FF600B12AD70EFF00E0DEDB406E712AD8C
:1050440070742DF00E90165BE0FDC3940AED75F0BC
:105054000A500280148475F00A84E5F02430FC12AE
:10506400AD70ECF00EED75F00A84E5F02430FC121E
:10507400AD70ECF00E12AD70742AF00EE4FC7D01FC
:10508400EE14FBEDC39B500C74CB2D12AD73E06C8E
:10509400FC0D80ECECC4540FFDC3940AED500424C1
:1050A4003080022437FD12AD70EDF00EEC540FFD8C
:1050B400C3940AED5004243080022437FD12AD70ED
:1050C400EDF00E12AD70740D12AD6E740A12AD6E69
:0250D400E4F006
:0150D60022B7
:106A2F00EF2BFFEE3AFEED39FDEC38FC901C12A86F
:106A3F0004A905AA06AB07E075F00AA4FFE4FCFD64
:106A4F00EB2FFBEA35F0FAED39F9EC38F8A3E0FF5C
:106A5F00E4FEEB2FFFEE3AFEED39FDEC38FC22F5AC
:106A6F0083EEF075F001E4901A580206BB901A57A6
:106A7F00E0FBA3E0FAA3E0F90205DA901A5B120833
:106A8F0098901A5BE0FCA3E0FDA3E0FEA3E0FFE417
:106A9F001203BE7BBF7A0E799C783E12018E1203D1
:106AAF00FC901A5B020898AF03AE021206667C00D8
:106ABF007D0A120666ED243022901C107BE87A03C3
:106ACF00E0FFE4FCFDFEF9F80206E7901C11E0FF81
:106ADF00E4FCFDFE7B64FAF9F80206E7740E2FF56D
:106AEF0082E4341CF583E024D0F0901A5FE004F0C8
:106AFF00227B017A047903901A56E0FD22901A5AEC
:106B0F00E0FFC322901A5AE004F0221205DAFF7454
:106B1F000129F9E43AFA22F0901A60E0FEA3E0FFAF
:086B2F00227B017A04790322A4
:1092C8007F0A901BD3E4F0A3DFFC7F0A901BC9E45C
:1092D800F0A3DFFC7F0A901BBBE4F0A3DFFC7F0A4E
:1092E800901C04E4F0A3DFFC7F0A901C18E4F0A3B0
:1092F800DFFC7F0A901C0EE4F0A3DFFC7F0A901BC2
:10930800F4E4F0A3DFFCE4901BC5F0A3F0901BDDB0
:10931800F0A3F0901BFF1208A400000000E4901BCB
:10932800C7F0A3F07F0A901BEAE4F0A3DFFC7F0AF2
:08933800901BE0E4F0A3DFFC50
:01934000220A
:10986500E4FF74182FF582E4341CF583E024D0F06E
:109875000FEFB403ED901C18126ADD901C19126AE3
:109885003EE41203BE7BF67A287994784112018E64
:109895001203FC129ED3901D50E0901C18F0901DF1
:1098A5004DE0901C19F0901D4EE0901C1AF0901D93
:1098B5004FE0901C1BF0A3742EF0901D51E0901CFE
:0598C5001DF0E4A3F01A
:0198CA00227B
:10492E00901C0EE0642D60030249C6901A5F04F0DD
:10493E00901A5FE0FFC394065005126AEB80F112E5
:10494E006AC8C004C005C006C007901C0F7B107A51
:10495E0027126ACFD003D002D001D000EF2B126AFB
:10496E0063C004C005C006C007126ADAD003D002C5
:10497E00D001D000126A2F126A8A901BFF1208A46F
:10498E0000000000901A5BA3A3E0FEA3E0FF129EBE
:10499E00D3901D50E0901C0FF0901D4DE0901C1018
:1049AE00F0901D4EE0901C11F0901D4FE0901C12E7
:1049BE00F0901D51E0024AC0E4901A5FF0901A5F29
:1049CE00E0FFC394065005126AEB80F1901C0FE0D5
:1049DE00FFE4FCFDFE7B107A27F9F81206E7C0040F
:1049EE00C005C006C007901C0EE0FFE4FCFDFE7B78
:1049FE00A07A867901F81206E7D003D002D001D052
:104A0E0000EF2B126A63C004C005C006C007126A0D
:104A1E00C8D003D002D001D000EF2B126A63C004BD
:104A2E00C005C006C007126ADAD003D002D001D08A
:104A3E0000126A2F126A8A901A5BE0FCA3E0FDA3B3
:104A4E00E0FEA3E0FFE41203BE901BFF1208989055
:104A5E001A5BA3A3E0FFA3E0901A60CFF0A3EF12BE
:104A6E006B26E4FCFD7BA07A867901F812A4B9EFDF
:104A7E002430901C0EF0901A60E0FAA3E0FB7C2725
:104A8E007D10FF126AB8901C0FF07C037DE8126A4D
:104A9E00B6A3F0901A60A3E07C007D64FF126AB8A2
:104AAE00901C11F07C007D0A126AB6A3126B2612BE
:094ABE006ABD901C13F0E4A3F0A2
:014AC70022CC
:10B0AE00E4FF1205DAB43A04EF04FF22126B1E0F0E
:06B0BE00EFB47DEE7F00FF
:01B0C4002269
:10A35200E4FE126B1AEF643E601174D32EF582E4B0
:10A36200341BF583EFF00EEEB40AE7E4FE126B1A2B
:10A37200EFB42C047D0180027D00EFB43A047C012D
:10A3820080027C00EC4D701174EA2EF582E4341BDD
:09A39200F583EFF00EEEB40AD4DD
:01A39B00229F
:0B524600901A57EBF0A3EAF0A3E9F088
:10525100AF058FF0126A75126A7CFF126A72EFB4A1
:1052610040047E0180027E00EFB42F047F018002A2
:105271007F00EF4E6020E4901A5AF0126B0C9407F5
:105281005014126A7CFE74E02FF582E4341B126A1A
:105291006E126B1380E5E4901A5AF0126B0C9408AD
:1052A1005014126A7CFE74C92FF582E4341B126A11
:1052B1006E126B1380E5901BD0E0901C03126A7193
:1052C100E4901A5AF0126B0C94095014126A7CFE85
:1052D10074BB2FF582E4341B126A6E126B1380E5E6
:1052E100901BC3E0901BFEF0126A7CFF901BDF1243
:1052F1006A71EF645F70030253AC901BFF1208A444
:1053010000000000901A57E0FBA3E0FAA3E0F99037
:1053110000031205F3642F60030253AC901A5AF094
:10532100126B0C94035014126A7CFE74042FF582E4
:10533100E4341C126A6E126B1380E5126A72E490F7
:105341001A5AF0126B0C94035014126A7CFE7418F2
:105351002FF582E4341C126A6E126B1380E51298E9
:1053610065126A7C642F70439000011205F3644159
:1053710070399000021205F3643D702F75F001122F
:105381006A76126A72126A72E4901A5AF0126B0CFF
:1053910094065014126A7CFE740E2FF582E4341CBC
:0B53A100126A6E126B1380E512492E99
:0153AC0022DE
:1096C400126B3012A3527A04790312B0AE901A5678
:1096D400EFF07002FF22901A56E0FD2403F582E4B5
:1096E4003404F583E024D9603224F8602124F56041
:1096F4002D24FD601414602924FE601724E0601BEF
:10970400243F7020126B30800D126B008008126BA6
:10971400008003126B00125246800C7F02227F03EA
:09972400227F04227F05227F014F
:01972D002219
:10A08900901676E07015FF1264D6E4FF12A0D29004
:10A099001BDDEEF0A3EFF0E4FF802230032A7F01FD
:10A0A9001264D67F0112A0D2901AD0E0FCA3E0FD81
:10A0B90012A739901BDDEEF0A3EFF07F01127ACBE6
:10A0C900901BC7EEF0A3EFF022128BF9901BC5EE9F
:05A0D900F0A3EFF022EE
:10AA88001292C8121A52BF0102800F126B30E4FDF5
:10AA98001257AE1296C4EFB4010A12A0891265F4D7
:0CAAA8007F0180051265F4E4FF1274EADF
:01AAB400227F
:109F2E00901A83E0FBA3E0FAA3E0F9901DBDE0FFD9
:109F3E0004F08F8275830022901A83E0FBA3E0FA6F
:109F4E00A3E0F9901DBDE0FE04F08E82758300EF54
:109F5E00020632F0901A83E0FBA3E0FAA3E0F922A6
:109F6E00901A88E02403F582E43400F583E022EBB6
:089F7E00F0A3EAF0A3E9F022D0
:10A47500901A89129F7DEDD394004037901A891266
:10A485009F31742D120632EDC3940AED500B243022
:10A49500FF901A89129F65801775F00A842430FF92
:10A4A500901A89129F49ED75F00A84E5F02430FF72
:04A4B500129F51227F
:09A60700901A89129F7DA3EDF069
:10A61000A3F0901A8CE02406FFE433FEA3E0FDC310
:10A620009FEE6480F8748098501B74032D129F7401
:10A63000C313FF64206006901A89129F49901A8DF7
:05A64000E004F080CDF4
:01A6450022F2
:0957AE00901A83129F7DA3EDF017
:1057B700E4901DBD129F617D0712A607129F62909C
:1057C70000101258EB129F2E743E120632E4FD129F
:1057D700A607129F629000091258EB901A88740D61
:1057E700F0E4901A87F0129F6E20E042129F2E7409
:1057F7002C120632901A88E004F0E0FD12A60790FA
:105807001A88E02406129F61129F6E541EFFC3136D
:10581700FD12A475129F6E30E708129F2E742A128C
:105827000632901A87E004F0E0C3940840B8901A53
:1058370086E06401703B901666E064017033129F46
:105847002E742C120632E4FC74542CF582E43416C0
:10585700F583E0FF6008129F460CECB406EA129F3E
:105867006290165BE0FD12A475129F2E742A120631
:1058770032129F2E743A120632901A88E02403F0EF
:10588700E0FC90068FE0FFECC39F502074032C12BE
:105897009F74FF129F46901DBDE0D394BE400A122D
:1058A7009F2E747E12063280030C80D6901DBDE0B9
:1058B70024FFFFE434FFFE129F628F828E8312055E
:1058C700F3901DBDB40D02800B129F3C740D1206A0
:1058D70032901DBD129F3C740A120632129F39E4A2
:0358E70012063274
:0C58EA0022E0541EFFC313FD12A475221F
:0AB31900740129F9E43AFA0205DA9A
:10B1D000EF540FFFD39409EF50042430FF2224379B
:02B1E000FF224C
:10A6FD0012B319FEE4FF12B319FD642A6008ED6E62
:10A70D00FE0FEFB47EF012B319FD12B319FCEEC4B7
:10A71D00540FFF12B1D0EF6D60037F0022AF061210
:0BA72D00B1D0EF6C60037F00227F01C1
:01A7380022FE
:10AEAA007B017A1879CF12A6FDEF7002FF227B018F
:0FAEBA007A18794F12A6FDEF7002FF227F012256
:06B3760048454C4C4F005D
:103256004A1B43000000000000000000004D1B2B2D
:10326600000000000000000000000000004F1B1CD2
:103276000000000000000000000000000000004FF9
:103286001B08000000000000000000000000000015
:1032960000421B380000421B010000421B030000D5
:1032A600471AD200000000000000431AF400000094
:1032B6004A1AF7000000000000000000004A1AE663
:0A32C60000000000000000000000FE
:103EC600901A56E0FBA3E0FAA3E0F98F827583000F
:103ED6000205F3EF2BFFEE3AFEED39FDEC38FCA8B8
:103EE60004A905AA06AB07E075F00AA4FFE4FCFDE9
:103EF600EB2FFBEA35F0FAED39F9EC38F8A3E0FFE1
:103F0600E4FEEB2FFFEE3AFEED39FDEC38FC22EB3A
:103F16002430F07B0AE4FAF9F8901A62E0FCA3E098
:103F2600FDA3E0FEA3E0FF22FD74432EF582E434F8
:103F36001BF583EDF00E0F74432EF582E4341BF56A
:103F46008322E0FF901A59E0FE04F0742B2EF582CE
:103F5600E4341BF58322E024D0FFE434FFFE7C002A
:103F66007D0A020654EBF0A3EAF0A3E9F0E422127C
:103F76000772E47B0AFAF9F8020772E024D075F0BA
:103F86000AA4FFA3E024D02F22901A5BE0FFE4FCF2
:103F9600FDFE22901A56E0FBA3E0FAA3E0F9A3E0A7
:103FA600F58222E0FE04F0741C2EF582E4341BF543
:103FB6008322120772E4FB7A01F9F822F0A3F0A338
:103FC600F0A3F0A3F022AA06AB07E024D0FFE43466
:103FD600FFFE7D64120654EF2BFFEE3AFE22901A86
:103FE60067E0FAA3E0FB7C017D90FFAE0212066655
:103FF600ED4C22E024D0FDEC34FFCD2FFFED3E2228
:1040060074082FF582E4341BF583227B017A187934
:10401600CF22901A67E0FEA3E0FF7C007D641206C3
:1040260066ED4C22901A59E0FF04F0742B2F223EC5
:10403600F583EDF0901A57E004F022F0EFF5827563
:104046008300A3227B64FAF9F80206E7901A56E089
:10405600FEA3E0FF22E0F8A3E0F9A3E0FAA3E0FB69
:1040660022E4901A56F0A3F022F0901A59E004F0D8
:1040760022D3901ADBE09F901ADAE02224D0FEE4E5
:1040860034FFF0A3CEF022F582E433F5830205F384
:104096007BE87A03F9F80206E7901A56E004F02264
:1099F700901707E0605C123FBB901B3E123F22129C
:109A07003FB8123FB8120772AD077F007EFE12AF54
:109A170005123FBB901B3E123F22123FB81207723E
:109A2700AD077F017EFE12AF05123FBB901B3E12B2
:109A37003F22120772AD077F027EFE12AF05901B11
:109A47003EE0FCA3A3A3E0FFE4AD077F037EFE1285
:039A5700AF052236
:10AAB500901B3E1208A400000000E4FDFF12AADA74
:10AAC5007F0112AADA7F027EFE12AF05E4FD7F0345
:0DAAD5007EFE02AF057EFE12AF05E4FD22FD
:107DDC00901B17E0700F04F0901B3A1208A40000DF
:107DEC000000027E5F901A997401F0A3741AF0A33C
:107DFC0074E6F0A37401F0A3741BF0A3741CF0A33D
:107E0C007401F0A3741BF0A37408F07B017A1A7947
:107E1C00F7129D5F1203FC901B3A120898901B3EC0
:107E2C00123F22901B3A12405BEF2B123F0AA31217
:107E3C0008987F007E657DCD7C1D901B3E12405BBB
:107E4C00D3120828400A901B3E1208A40000000020
:107E5C001299F7E4FF741C2F123FB0E0FE74F72F59
:107E6C00F582E4341AF583EEF00FEFB409E7E4FF82
:107E7C00124006E0FE74E62FF582E4341AF583EE28
:087E8C00F00FEFB40AEA7F01D8
:017E940022CB
:107F4D00E4901B17F0901707E0700D901B3E120880
:107F5D00A400000000027FE47F007EFE12AF5BBF35
:107F6D00FF0612AAB5027FE47F01127FEFFBFA79BB
:107F7D0001F81206E7C004C005C006C0077F001255
:107F8D007FEFFBFAF978011206E7D003D002D0019A
:107F9D00D000EF2B123F0AC004C005C006C0077FFA
:107FAD0002127FF9FB7A01F9F81206E7D003D0022D
:107FBD00D001D000EF2B123F0AC004C005C006C08F
:107FCD00077F03127FF9D003D002D001D000123FFA
:107FDD0008901B3E120898901B3A1208A40000004E
:107FED0000227EFE12AF5BE4FCFDFE227EFE12AF90
:067FFD005BE4FCFDFE2226
:03778600901A5600
:10778900123F6BFFFE901A56123EC96009B42C01D4
:107799000E0FEEB401EF901A56123EC9FD642C701B
:1077A9000302785AE4FEEE2443123F40EDF00E0F37
:1077B900123ED1123F2E743AF00E123ED1FD123F05
:1077C9003DEDF00E0F123ED1123F2E743AF00E121B
:1077D9003ED1FD123F3DEDF00E0F123ED1FD123F9D
:1077E9003DEDF074432408123F40E4F0901678E030
:1077F900FFC3940D901B43E0501824D075F00AA4E0
:10780900FEA3E024D02EFEC3740D9FFFC3EE9FFCA0
:10781900800C123F82FF901678E024F32FFCECC312
:107829009418400474E82CFCECFF901B06E4F0A3C8
:10783900EFF075F00A842430901B43F0EC75F00AE0
:1078490084E5F02430A3F0901B49123F81901B0579
:01785900F03E
:01785A00220B
:0340A600901A5617
:1040A900123F6B901A64123FC2FF901A59F0901A8E
:1040B90056123EC96011B42C06901A59E004F00F4B
:1040C900901A59E0B409E7901A56123EC9FE642CB9
:1040D900700302423E901A5AEE1240411205F390C3
:1040E9001A5B124041A31205F3901A5C124041A3D6
:1040F900A31205F3901A5DF0EF240412408D901A73
:104109005EF074052F12408D901A5FF0FB901A5AD9
:10411900123F81901A65F0901A5C123F81901A66DD
:10412900F0901A5E123F5CEB123FFACF24D0CF34E5
:1041390007901A67F0A3EFF0C3901B07E09408906B
:104149001B06E0940040030241E8901A65E004F080
:10415900E024E260261460401460602403600302D6
:1041690041E8123FE46078EB54037005124018707F
:104179006E901A66E0640270668017123FE4600A66
:10418900EB5403705A1240186055901A66E06402A5
:10419900704D901A6504801C901A66E0FF640460F3
:1041A9000EEF64066009EF64096004EFB40B309008
:1041B9001A657401F0A3E004F08024901A65740173
:1041C900F0A3E004F0E0C3940D4014901A68E004F1
:1041D900F07006901A67E004F0901A667401F0E432
:1041E900901A59F0901A67E0FEA3E0FF129ED3904F
:1041F9001D4D123F48EFF0901D4E123F48EFF090D1
:104209001D4F123F48EFF0901D51123F48EFF01239
:10421900402A123F54742DF0901A6612423F124000
:104229002A123F54742DF0901A6512423F12402A07
:05423900123F54E4F007
:10423E0022E0FF7E00129ED3901D4FE0FF901A5990
:10424E00E0FE04F0742B2EF582E4341BF583EFF0C0
:10425E00901D51E0FF901A59E0FE04F0742B2EF5DC
:09426E0082E4341BF583EFF02219
:10AC3700901677E0B40104D2A78002C2A7E4901B64
:10AC470038F0A3F0901AD0F0A3F0C203127F4DE4BE
:07AC5700901B05F0C205226D
:03AAE200901A5671
:10AAE500123F6BFFFE901A56123EC96009B42C0145
:10AAF5000E0FEEB402EF901A56123EC9B44105D2BC
:08AB0500037F0122C2037F005F
:01AB0D002225
:037E9500901A56EA
:107E9800123F6BFFA3F0123EC66011B42C06901A75
:107EA80059E004F00F901A59E0B403EAE4901A5923
:107EB800F0123FA97430F0E4FE123EC6FD901A5944
:107EC800E0FC04F0741C2C123FB0EDF00F0EEEB481
:107ED80009E7123EC6B42C030F80020F0F123EC6EC
:107EE800FE901A59E0FD04F0741C2D123FB0EEF01C
:107EF800901A59123FA9E4F00F0F901A59F0FE1288
:107F08003EC6FD901A59E0FC04F074082C12400992
:107F1800EDF00F0EEEB40AE7123EC6B42C030F8044
:107F2800020F0F123EC6FF901A59E0FE04F07408C3
:107F38002E124009EFF0901A59E0FF04F0124006A3
:047F4800E4F07F01E1
:017F4C002212
:03A58300901A56D5
:10A58600123F6BFFFE901A56123EC96009B42C01A9
:10A596000E0FEEB407EF901A56123EC9901AF4F059
:10A5A6000F123ED1901AF5F0E4A3F0901AF5E0B43C
:0EA5B6002C0C901AF4E0A3F0901AF47430F01C
:01A5C4002274
:0B34FD00901A56EBF0A3EAF0A3E9F0F0
:10350800901A621208A400000000901AD2742D12BA
:103518003FC2A3F0E4A3F0901A59F0FF123F9912AA
:103528003ED3FE600BB42C010F124070EFB409ECCF
:10353800123F99123ED3FBB42C12901B427401F037
:10354800901A621208A4000000008050E4901B4208
:10355800F0EBB42D09E4901A6612406F8006901AB9
:10356800667401F0E4901A5AF0123F99123ED3FFA4
:10357800642E6035EF24D0FF901A5AE0245BF58260
:10358800E4341AF583EFF0901A5AE00412406FA35E
:10359800E0D3940540D3901B427401F0901AF012C6
:1035A80008A4000000007F0022901A5AE024FE6060
:1035B8001014602814603C24037060123F8F023698
:1035C8006C901A5BE075F00AA4FFA3E07C002FFF63
:1035D800EC35F0FE3395E0FDFC02366C123F8F129D
:1035E800404AA804A905AA06AB07901A5C123EED4A
:1035F80002366C901A5C123F9212404AC004C00511
:10360800C006C007123F8F124096D003D002D001E7
:10361800D000901A5D123ED902366C901A5C123FA7
:1036280092124096C004C005C006C007123F8F7BA7
:10363800107A27F9F81206E7D003D002D001D0009B
:10364800EF2B123F0AC004C005C006C007901A5DE0
:10365800123F9212404AD003D002D001D000901AF3
:103668005E123ED9901A62120898901A66E0901A73
:10367800627008123F221208048003123F22901A37
:10368800F0120898123F1FE41203BE7BA17AF87962
:1036980051784012018E1203FC901A621208987B2E
:1036A800A07A8679017800123F1F123F75EB24300B
:1036B800901AD2F0E47B107A27123F1D123F75EB67
:1036C8002430901AD3F0E47BE87A03123F1D123FAE
:1036D80075EB2430901AD4F07B64123F1B123F75AF
:1036E800901AD5123F15123F75901AD6123F15122F
:1036F8000772EB2430901AD7F0E4A3F0901A66E032
:0A3708007006901AD2742DF07F01B4
:013712002294
:106B3700C3901ADBE0940A901ADAE0940050037FBE
:106B4700002290170AE0FEA3E07A002400FFEA3E45
:106B5700FE1240779E4007E4F0A3F07F0222200355
:106B6700037F0022901B01E07002A3E07002FF2266
:106B77002004037F0022901B38E0FEA3E0FF901A59
:106B8700D0E0FAA3E0FBD39FEA9E4006EB9FFFEA23
:106B97008013901AD0E0FEA3E0FFC3901B39E09F5B
:106BA700FF901B38E09E901A58F0A3EFF0901A5808
:106BB700E0FEA3E0FFD394B4EE9400401074689F06
:106BC700901A57F074019E901A56F0800F901A5839
:106BD700E0FFA3E0901A56CFF0A3EFF0D3901A5737
:106BE700E09419901A56E094004006E4901ADA806F
:106BF7002F901650E024FE600F14601014601114DB
:106C0700601224047D14800E7D28800A7D3C800656
:106C17007D5A80027D78EDFF12407794004016E49C
:106C2700F0A3F0901AD0E0FFA3E0901B38CFF0A3B9
:076C3700EFF07F01227F0056
:016C3E002233
:0384B900901A56C0
:1084BC00123F6BFFFE901A56123EC96009B42C0194
:1084CC000E0FEEB407EF901A56123EC9B42C09E405
:1084DC00901B01123FC4FF22E4FE901A56123EC9B3
:1084EC00FD642E601074592EF582E4341AF583ED78
:1084FC00F00F0E80E5EE24FD600C047024901A59E8
:10850C00123F5CA3800F901A5A123F5C901A5912BA
:10851C003FCC901A5B123FF9901B01F0A3EFF08057
:10852C000A901A59E0901B01124082901B01E0FC4A
:10853C00A3E0FDE41203C37B567A0E79ED783F126B
:0F854C00018E1203FC901B03EEF0A3EFF07F00F3
:01855B0022FD
:03841400901A5665
:10841700123F6BFFFE901A56123EC96009B42C0139
:108427000E0FEEB408EF901A56123EC9B42C05C2CF
:10843700047F0022E4FE901A56123EC9FD642E60A6
:108447001074592EF582E4341AF583EDF00F0E807F
:10845700E5EE24FD600C047024901A59123F5CA3CA
:10846700800F901A5A123F5C901A59123FCC901AFB
:108477005B123FF9901AD0F0A3EFF0800A901A59D7
:10848700E0901AD0124082D204901AD0E0FEA3E006
:10849700FF129ED3901D4EE0901B18F0901D4FE0E9
:1084A700901B19F0901D51E0901B1AF0E4A3F07F88
:0184B70001C3
:0184B80022A1
:108A3F00200503028AD3C205124067124052241C3C
:108A4F00F582741B3EF583E0FD746C2FF58274166E
:108A5F00124035700312409F901A56E07004A3E045
:108A6F00640870D71240671240522408F582741BB5
:108A7F003EF583E0FD747C2FF5827416124035703D
:108A8F000312409F901A56E07004A3E0640970D758
:108A9F0012A77512A2BD7BFF7AB3797612A90112C4
:108AAF004067124052C3EE94025019744C2FF58256
:108ABF0074163EF583E0FF12B35012403A70031262
:048ACF00409F80DE66
:018AD3002280
:1090C70012AEAAEF6401707A12401112AAE22003CD
:1090D70003C205221240111277861240111240A6D0
:1090E700124011127E951240111284B912401112CA
:1090F7008414EF24FF92047B017A18794F1234FD10
:109107007B017A18794F12A58312293D128A3F9065
:109117001676E06401702B901651E0600DA3E0FF16
:10912700901B05E0B5070312A9FAE4901AD9F0904D
:109137001650E0600D126B37901AD9EFF0600312EA
:03914700A9FA2260
:104DDE00E4FBFA7842E0FCA3E0FDA3E0FEA3E0FFD3
:104DEE0022E4FBFA7841120297E4FBFAF9783F12BB
:104DFE00009D1203FC901A95EEF0A3EFF0901A9519
:104E0E00E0FEA3E0FF7C007D0A120666EF2430FF71
:104E1E00901A92E0FBA3E0FAA3E0F9EF12062090BD
:104E2E001A95E0FEA3E0FF7C007D0A120666ED24D3
:104E3E0030FF901A92E0FBA3E0FAA3E0F922E024FF
:104E4E00D0FDE434FFFC0203C37F007E407D1C7C5A
:104E5E0046E0F8A3E0F9A3E0FAA3E0FB227401F028
:104E6E00A3741BF0A37408F0A37401F0A3741BF0D9
:104E7E0074C9A3F0A37401F0A3227B0104F0A37400
:104E8E0016F0A3747CF0A3EBF0A3741BF0A374C90B
:104E9E00F0A3EBF0A3741BF0A374BBF0227920787F
:104EAE0041E4FBFA02018EE4FBFA79B412009D9004
:104EBE001AB1020898901775E0FEA3E07C0024005A
:104ECE00FDEC3EFCE40203C374F42FF582E4341BC4
:104EDE00F58322EBF0A3EAF0A3E9F022EC1203BE75
:104EEE00901A5D020898901A95E0FCA3E0FD22123C
:104EFE00018E901ABE020898F0901D51E0901BF999
:104F0E00F0E4A3F0227BCD7ACC79CC783D02018EF1
:104F1E007B0A7AD77923783C02018E1203FCE402D5
:104F2E0003BE8F827583001205F3FE22E4FBFAF9AD
:104F3E00784022901D81120898901D8922F0901DB4
:104F4E004DE0901BF5F0227A0F79497840020297D6
:064F5E00901A61020898A0
:10ADEA00901AC21208987FDA7E0F7D497C40901A29
:10ADFA00C2124E5F12018EE4FBFA793478430202E2
:01AE0A0097B0
:06740500901AA2124EE1F4
:10740B00E4FF901AA2124E43124F3074AD2FF58247
:10741B00E4341AF583EEF00FEFB408E6901AAF12CE
:10742B004E4C124EABC004C005C006C007901AB03C
:10743B00124E4CD003D002D001D00012009DC004DC
:10744B00C005C006C007901AB2124E4C124F13D093
:10745B0003D002D001D00012009DC004C005C006AD
:10746B00C007901AB3124E4C124F1ED003D002D04D
:10747B0001D00012009D901AA9120898901AAD1213
:10748B004E4C124EABC004C005C006C007901AAEDE
:10749B00124E4CD003D002D001D00012009DC0047C
:1074AB00C005C006C0077970901AA9124DDE1202F2
:1074BB0097D003D002D001D00012009D901AA512D4
:1074CB000898901AB4E0B4530F901AA5124DE3121A
:0E74DB0003AD901AA5120898901AA5124DE361
:0174E9002280
:06681C00901AA2124EE1E9
:10682200E4FF901AA2124E43124F3074AD2FF5823C
:10683200E4341AF583EEF00FEFB409E6901AB012C1
:106842004E4C124EABC004C005C006C007901AB130
:10685200124E4CD003D002D001D00012009DC004D1
:10686200C005C006C007901AB3124E4C124F13D087
:1068720003D002D001D00012009DC004C005C006A2
:10688200C007901AB4124E4C124F1ED003D002D041
:1068920001D00012009D901AA9120898901AAE1207
:1068A2004E4C124EABC004C005C006C007901AADD4
:1068B200124E4C79C87842124EAFD003D002D001AA
:1068C200D00012009DC004C005C006C007901AAFD8
:1068D200124E4CD003D002D001D00012009DC00451
:1068E200C005C006C007E4FBFA79707842901AA985
:1068F200124DE3120297D003D002D001D000120051
:106902009D901AA5120898901AB5E0B4570F901AE4
:10691200A5124DE31203AD901AA5120898901AA57C
:03692200124DE330
:01692500224F
:105A3C0012ADEA901AB2120898901AAA124DE312FB
:105A4C00ADEA901AB6120898901AB6124E5F901AD8
:105A5C00B2124DE3120099901ABA120898901AAE2D
:105A6C00124DE312ADEAC004C005C006C007901A7F
:105A7C00A6124DE312ADEAD003D002D001D0001231
:105A8C000099124F3A120297124CB4C004C005C0D0
:105A9C0006C007901AC61208A440000000D007D018
:105AAC0006D005D0041253ADC004C005C006C00713
:105ABC00901AB6124DE3124C9EC004C005C006C02D
:105ACC0007901AB2124DE3124C9ED003D002D001B3
:105ADC00D00012018ED003D002D001D00012018E62
:105AEC00C004C005C006C007124F3A901ABA124D36
:105AFC00E3120297124CB4C004C005C006C0079054
:105B0C001AC61208A440000000D007D006D005D059
:105B1C00041253ADD003D002D001D00012009D125C
:105B2C0082C212A7B0124F3A124EFD901ABE124DFD
:105B3C00E37B197A5179C77845124EFD901ABE1243
:105B4C004E5712018EE4FBFAF9783F12009D127148
:105B5C0040E4FBFA79207841120297124F00901A18
:045B6C00BE124DE335
:015B70002212
:109D5F00127405901D8D120898901A99124E431285
:109D6F00681C901D89120898901A9C124E43127409
:109D7F0005901D85120898901A9F124E4312681C69
:109D8F00124F41124DE3901AA6120898901D85129A
:109D9F004DE3901AAA120898901D81124DE3901A64
:0D9DAF00AE120898901D8D124DE3025A3C33
:0564D600901A92EFF0A6
:1064DB007009901A99124E881265D7901A92E0B4EF
:1064EB000118901A99124E6B124EA37B017A1B79ED
:1064FB001C129D5F901D91120898901A92E0B402A5
:10650B0024901A997401F0A37416F0747C124E80C7
:10651B00741BF0A3741C124E81741BF0A37408F04F
:10652B007B011265D7E4901A95F0901A95E0FFC3A2
:10653B009408500D124ED6E4F0901A95E004F080BA
:10654B00E9901D91124E571203345028901D911251
:10655B004DE31265E5901BF4742A124F4BA3742E76
:10656B00F0901D4EE0901BF7F0901D4FE0901BF844
:10657B00124F062279C8901D91124DDE120297120E
:10658B0065E5901D50E0901BF4124F4B901D4EE0B3
:10659B00901BF6F0901D4FE0901BF7F0A3742E129A
:1065AB004F06901A95F0901A95E0FFC39403501B79
:1065BB00124ED6E0B43014901A95E024F4124ED952
:0B65CB007420F0901A95E004F080DBD3
:1065D600227A16796C129D5F901D911208982212EC
:0E65E60003FC901A93EEF0A3EFF0129ED32266
:108FC000AB07AA06A905A804901AA9124DE312003E
:108FD00099C004C005C006C007901AA5124E5F9044
:108FE0001AAD124DE3120099901AB9120898D007E1
:108FF000D006D005D0041287DA124EBDE4FFFE7D04
:10900000347C43901AB1124E5F12018E1203AD7B75
:10901000D8124F55124EBD901AB1124DE37842123C
:109020004EB5E4FFFEFDFC901AB1124E5F12033400
:10903000500B901AB1124DE37843124EB5901AB10D
:03904000124DE3EB
:01904300220A
:109DBC00127405901D8D120898901A98124E431229
:109DCC00681C901D89120898901A9B124E431274AD
:109DDC0005901D85120898901A9E124E4312681C0D
:109DEC00124F41124DE3901AA5120898901D85123E
:109DFC004DE3901AA9120898901D81124DE3901A08
:0D9E0C00AD120898901D8D124DE3028FC01D
:058BF900901A92EFF05C
:108BFE007018901A98124E887A16796C129DBC12C3
:108C0E0003FC901A93EEF0A3EFF0901A92E0B401E9
:108C1E000C901A98124E6B124EA3128C71901A92DF
:108C2E00E0B40223901A987401F0A3741BF0A3749D
:108C3E0008124E817416F0A3746C124E817416F0E5
:108C4E00A3747CF0128C71D3901A94E09467901AEE
:108C5E0093E094014004E4F0A3F0901A93E0FEA395
:028C6E00E0FF25
:108C7000227B017A1B791C129DBC1203FC901A9373
:068C8000EEF0A3EFF0226C
:10004600901A59120898901A5D124DE3A3124E5F4A
:100056001203345004E4FEFF22901A5D124E5FA391
:10006600124DE3120099901A59124E5F120297121E
:1000760063D4E4FBFA7934784312018E7BDA124FAB
:05008600551203FC22ED
:057ACB00901A56EFF0D7
:107AD000702B901D91124DE3124F29C004C005C0B8
:107AE00006C007124EC3124EEE901BFF124DE3125A
:107AF0004F5ED007D006D005D004127B8B901A566B
:107B0000E0B4012E901D91124DE3124F29C004C024
:107B100005C006C007901AF0124DE3124EEA901B02
:107B2000FF124DE3124F5ED007D006D005D00412ED
:107B30007B8B901A56E064027033901D91124DE3D6
:107B4000124F29C004C005C006C007901AF0124D9C
:107B5000E3124EEA124EC3124F5ED007D006D00594
:107B6000D004120046901A57EEF0A3EFF0D3901A0B
:107B700058E0945A901A57E094004006E4F0A37439
:0A7B80005AF0901A57E0FEA3E0FF50
:0D7B8A0022120046901A57EEF0A3EFF022F1
:10A73900901A92ECF0A3EDF0C3901AD1E09F901A11
:10A74900D0E09E5010901A92E0FCA3E0FDC3EF9D6B
:10A75900FFEE9CFE22C3901A93E09FFF901A92E0AD
:0CA769009EFEC374689FFF74019EFE22D8
:06551300901A92124EE115
:10551900A3EEF0A3EFF0901777E0FF6003025606C1
:10552900124EF4C39417EC94005007124E40744E77
:10553900804AC3ED9444EC94005007124E40744ED7
:10554900801EC3ED9471EC94005007124E407445CF
:10555900802AC3ED949EEC94005013124E4074536C
:10556900120620124E409000017445025603C3ED05
:1055790094CBEC94005013124E407453120620122F
:105589004E409000017420025603C3ED94F8EC9448
:10559900005007124E407453802AC3ED9425EC94B1
:1055A900015013124E407457120620124E409000BB
:1055B900017420025635C3ED9452EC940150131234
:1055C9004E40744E120620124E409000017457024C
:1055D9005635C3ED9468EC9401124E40500F744E49
:1055E900120620124E409000017420800D742D1275
:1055F9000620124E40900001742D025635EF6401C9
:105609007012124EF4E41203C379F0124DEF9000B8
:1056190001EF8018901777E06402701A124EF4E4D3
:105629001203C37920124DEF900001EF1206329058
:105639000002E4020632124E40742D120620124E68
:1056490040900001742D120632900002E4120632D5
:095659009017777401F012A77597
:015662002225
:107B97005620002D2D2D2E2D00404320002D2D2D5C
:107BA7002D2E2D00685061002C00475053204F4662
:107BB7004620004B6D0047505320576169742E2EA5
:107BC7002E2000533A0020004B6D202020002D2D41
:107BD7002D00244130322C562C00576169742E0039
:107BE7000D0A00244130322C412C0050302D3E002C
:107BF7004B6D20002D2D005350443A004B6D202033
:107C070000414C543A004D2C00202D2D2D2D2D00D8
:107C1700244130322C4F2C00475053204F4646000A
:107C27005350443A2D2D2D2D2D2D4B6D6820204678
:107C3700697865642000616C743A2D2D2D2D2D2DEA
:107C47004D002D2D2D2D202D2D202D2D20200024D4
:067C57004630310D0A0069
:1020D400901A9E74FFF0A3747BF074AFA3F07B019D
:1020E4007A04790322E4FAF9F8901A76E0FCA3E082
:1020F400FDA3E0FEA3E0FF12A4B9E47B0AFAF9F819
:1021040012A4B9EB2430901A73FFE0FBA3E0FAA306
:10211400E0F9EF020620E0901A58FFE0FE04F074A4
:10212400612EF582E43405F58322120620901A7498
:10213400E475F0010206BBEEF0A3EFF0901A88E01C
:10214400FCA3E0FDA3E0FEA3E0FF22901A767D0A43
:10215400E0FEA3E0FF7C00020666E4900403F09036
:102164001A9E74FFF0A322FBE024D0FFE434FFFEA8
:102174007D0A120654A3E024D0FDEC34FFCD2FFFDA
:10218400ED3E22901A5AE0FEA3E0FFE4FCFD7B64DE
:10219400FAF9F81206E7A804A905AA06AB07901AEB
:1021A4005CE0FEA3E0FFE4FCFDEB2FFFEA3EFEED66
:1021B40039FDEC38FC22901A73E0FBA3E0FAA3E0AB
:1021C400F9221200267401901A9EF0A37405F0A35C
:1021D4007461227B01901A56E0FCA3E0FDA3E0FFAA
:1021E400A3E0901A78CFF0A3EFF0901A5AE0FFA37F
:1021F400E0901A7ACFF0A3EFF0901A5CE0FFA3E02E
:10220400901A7CCFF0A3EFF0901A60E0221203BE84
:102214007B8F7AC27975783D12018EE4FBFA79A03E
:10222400784012009DE4FBFA79207841120297125B
:1022340003FC901A5EEEF0A3EFF07B0122E4FFFEB4
:102244007C41901A88E0F8A3E0F9A3E0FAA3E0FB4C
:10225400227A1C7965901A56E0FCA3E0FDA3E0FF06
:10226400A3E022EC1203BE7B007A5079C3784702C4
:102274000297E0FCA3E0FDA3E0FEA3E02405FFE455
:102284003EFEE43DFDE43CFCE47B0AFAF9F822EF6F
:10229400F0901A58E0FF04F074612F22E4FBFA78FE
:1022A4004112018EA804A905AA06AB0722EBF0A3EC
:1022B400EAF0A3E9F0A322120099901A8802089880
:1022C400ED2430FF901A7322120898901A56E0FEFB
:1022D400A3E0FFE4FCFD22F583E0FDAC070F74618D
:1022E4002C22EF2430FF901A7322AA06AB07E024B5
:1022F400D0FFE434FFFE7D64120654EF2BFFEE3A68
:10230400FE22901A9E7401F0A322E0FCA3E0FDECEF
:102314000203C3ED2430FF901A7322EB2FFFEA3E31
:10232400FEE93DFDE83CFC020898901A78CFF0A342
:10233400EFF0901A5EE0FFA3E0901A7A22901A78E8
:10234400CFF0A3EFF0901A5AE0FFA3E0901A7A229C
:1023540074FFF0A3747BF0A374D522ECF0FEA3ED1C
:10236400F0FF7C007D64120666EF22E024D0FFE4D7
:1023740034FFFE7C007D0A020654120620901A7473
:10238400227C007D0A020666EFF0901D4FE0FF22DA
:10239400EFF0901D51E0FF227B407A42790FF80262
:1023A40006E7901A60E0901A7AF07B01227401F03B
:1023B400A3741BF0A37418221202970203FC1206E2
:1023C40020901A74227B107A27F9F80206E7747BAE
:0523D400F0A374E722F4
:06B37C001220E202A7EB23
:0950D700901A731222B11208981C
:1050E000E4FFFE7D347C43901A7A12224912009D1F
:1050F0001222BEE4FBFA79A078411221401223BCAF
:10510000901A7E12213BC004C005C006C007901A49
:105110007E12230E79A01222A0D007D006D005D08F
:10512000041222BBE4FBFAF978401221401223BC9E
:10513000901A8012213BC004C005C006C007901A17
:105140008012230EE4FBFAF978401222A5D007D092
:1051500006D005D0041222BB7D4012224112018EDE
:105160001203FC901A82EEF0A3EFF0E4FFFE7DB490
:105170007C42901A7612224912009D1222BEE4FB54
:10518000FA792078411221401223BC901A8412210E
:105190003BC004C005C006C007901A8412230E79D4
:1051A000201222A0D007D006D005D0041222BB12B4
:1051B00021401203FC901A86EEF0A3EFF0A3122117
:1051C00043C004C005C006C007901A8612230E1201
:1051D00022A8D007D006D005D0041222BB7DC01271
:1051E000224112018E1203FC901A7EA3E02441FD9D
:1051F000901A731221BDED120620901A84A3E024A8
:1052000041FD901A731221BD900001ED12063290FB
:105210001A80A3E02430900002120632901A86A36E
:10522000E02430900003120632901A82A3E0244159
:10523000900004120632EF244190000512063290CD
:065240000006E402063244
:1080B400901A731222B112235F2430901A73122182
:1080C4000D1221BA1205DAB43005742012062012FA
:1080D400213112214F12238512231712210E12214E
:1080E4003112214F12231712210E1221311221BAFB
:1080F400744012212E901A78122152EF1223181272
:10810400210E122131901A781221521223171221B2
:108114000E1221311221BA742712212E901A7A12CA
:108124002152EF12231812210E122131901A7A12C1
:10813400215212231712210E1221311221BA742254
:1081440012212E1221BA742012212E901A7CE0FFE3
:10815400901A7312210E1221311221BAE402062060
:1075CF00901A731222B11208987B807A9679987864
:1075DF0000901A7612214312A4B9EF122108901AC3
:1075EF00731221BD1205DAB43005742012062090F3
:1075FF001A741221347B407A42790F78001220EDF1
:10760F00901A741221347BA07A86790178001220A7
:10761F00ED901A74122134901A731221BD742E1228
:10762F0023C2122134E47B107A271220EB901A74B4
:10763F00122134E47BE87A031220EB901A741221A2
:10764F00347B641220E9901A741221347B0A1220C1
:10765F00E9901A7412213412228C901A7612214357
:10766F00122104901A74122134901A731221BD74CE
:10767F00401223C2122134901A731221BD742012AA
:10768F0023C2122134901A7AE012210A901A74122E
:0C769F002134901A731221BDE402062071
:10731B00901A731222B112235F1222C512210E9002
:10732B001A731221BD1205DAB4300574201206202F
:10733B00901A74122134901A76122152122385124C
:10734B0022C412210E901A74122134901A76122133
:10735B00521222C412210E901A74122134901A73F5
:10736B001221BD744012237E122134901A781221FF
:10737B0052EF1222C512210E901A74122134901A58
:10738B00781221521222C412210E901A7412213437
:10739B00901A731221BD742E12237E122134901A6F
:1073AB007A122152EF1222C512210E901A74122159
:1073BB0034901A7A1221521222C412210E901A748E
:1073CB00122134901A731221BD742712237E1221BD
:1073DB0034901A731221BD742012237E1221349023
:1073EB001A7CE0FF901A7312210E901A741221343A
:0A73FB00901A731221BDE40206206F
:105B7100901A731222B1ECF0A3EDF0901A7DE0249B
:105B810032F0901A7CE03400F0D3A3E09463901AD1
:105B91007CE09400400E901A7BE004F07006901AAD
:105BA1007AE004F0D3901A7BE09463901A7AE0943F
:105BB100004012E4F0A3F0901A79E004F07006902E
:105BC1001A78E004F0D3901A79E0943B901A78E0C7
:105BD10094004012E4F0A3F0901A77E004F070060C
:105BE100901A76E004F0901A7FE0901A767006120F
:105BF1002152EF801B7D641221541222E612210EE4
:105C0100901A74122134901A76122152122385EDC2
:105C11001222E712210E901A74122134901A761270
:105C21002152ED1222E712210E901A7412213490A2
:105C31001A781221521222E612210E901A741221A0
:105C410034901A78122152ED1222E712210E901A85
:105C510074122134901A731221BD742E12062090F1
:105C61001A74122134901A7A1221521222E6122148
:105C71000E901A74122134901A7A122152ED1222C6
:105C8100E712210E901A74122134901A7EE0FF90CF
:105C91001A7312210E901A74122134901A73122160
:055CA100BDE402062035
:10293D00901B1D12236F901B1C1222EE901B1E125A
:10294D00217A901A56F0A3EFF0901B1F12216C9074
:10295D001A58F0A3EFF0901B2212216C901A5AF026
:10296D00FAA3EFF0901B2412216B901A5CF0A3EFE9
:10297D00F0901B26E0901A60F0901A71F0AF03AE44
:10298D0002E4122191C004C005C006C007901A5878
:10299D001222D21223C9D003D002D001D000EF2BC6
:1029AD00FFEE3A1221B212228C1206E7901A611232
:1029BD0022CC12239CC004C005C006C007E47B06D0
:1029CD00FAF9F8901A6112214312A4B9D003D0027A
:1029DD00D001D000901A6112231F901A6112227635
:1029ED0012A4B9901A61120898901663E0701090B5
:1029FD001A611221431223A67A1C79651275CF90A4
:102A0D001663E064027016122187122211122255EC
:102A1D0012232E122207901A7CF01280B47A1B79A1
:102A2D001C1221D7901A7EF0E4A3F0125B71901660
:102A3D0063E0B401127B01122255122341122207C9
:102A4D00901A7CF012731B901B0912236F901B08B8
:102A5D001222EE901B0A12217A901A56F0A3EFF073
:102A6D00901B0B12216C901A58F0A3EFF0901B0ED7
:102A7D0012216C901A5AF0FAA3EFF0901B1012214C
:102A8D006B901A5CF0A3EFF0901B12E0901A60F0BF
:102A9D00901A72F0AF03AE02E4122191C004C0058A
:102AAD00C006C007901A581222D21223C9D003D0E3
:102ABD0002D001D000EF2BFFEE3A1221B212228C80
:102ACD001206E7901A651222CC12239CC004C00591
:102ADD00C006C007E47B06FAF9F8901A6512214387
:102AED0012A4B9D003D002D001D000901A651223E0
:102AFD001F901A6512227612A4B9901A65120898C1
:102B0D00901663E07010901A651221431223A67A75
:102B1D001C79381275CF901663E06402701A122179
:102B2D00871222117A1C793812225912232E122261
:102B3D0007901A7CF01280B47A1B79081221D79075
:102B4D001A7EF0A37401F0125B71901663E0B4016C
:102B5D00167B017A1C793812225912234112220751
:102B6D00901A7CF012731B901A71E0901A61B44E9A
:102B7D000812214312226780091221431222671283
:102B8D0003AD901A69120898901A72E0901A65B404
:102B9D004508122143122267800912214312226730
:102BAD001203AD901A6D1208987B017A1C7924904E
:102BBD001A6D122143901A7A120898901A691221EF
:042BCD00430250D798
:10002600E4FEEEC39F50151221237420F074622E55
:0C003600F582E43405F583E4F00E80E66A
:01004200229B
:109FDD007F0A900561E4F0A3DFFCE4901A58F07B52
:109FED0064FAF9F8901B3E122143120772129ED3A8
:109FFD00901D5012211AEFF0901D4D12211AEFF005
:10A00D00901D4E12211AEFF0901D4F12211A12229F
:10A01D0093122126742EF0901D5112211A122293A3
:05A02D00122126E4F001
:01A03200220B
:1058F600200879128F3B122306741DF074A0122023
:10590600E01295EF122163747BF0A374971220E1E5
:10591600125A2E300F0C7401F0A3741CF0A3748578
:10592600800A74FFF0A3747BF0A3749A1220E1122C
:1059360095EF122163747BF0A374A01220E1125A32
:105946002E300F0C7401F0A3741CF0A3747A800A35
:1059560074FFF0A3747BF0A374A41220E11295EFF8
:10596600122163747BF0A374AB0259BF90068EE0DC
:105976007023122163747BF0A374B11220E1125AD2
:10598600351221C91220E11295EF122163747BF0C2
:10599600A374BA802420032A122163747BF0A374B3
:1059A600BD1220E1125A351221C91220E11295EFDB
:1059B600122163747BF0A374BA1220E11295EF02F0
:1059C6005A27300362122163747BF0A374CA122033
:1059D600E11295EF122306741AF0A374F41220E173
:1059E6001295EF122163747BF0A374CD1220E1129D
:1059F60095EF129FDD1221C91220E11295EF1221B7
:105A060063747BF0A374CF1220E11295EF901A9E77
:105A16003004051223B180031223541220E112959B
:105A2600EF1220D41295EF221295EF901A9E2212B1
:065A360095EF129FDD2236
:06891100901A58120898AC
:108917007F0A900561E4F0A3DFFCE4901A5CF09015
:108927001A58E0FCA3E0FDA3A3EC33501BA31222CB
:1089370098122126742DF0901A5812214312080418
:10894700901A58120898800C901A5C1222981221DB
:10895700267420F0901A58A3122148129ED3901D16
:1089670050E0901A5C12211EEFF0901D4DE0FF9031
:108977001A5C12211FEFF0901D4EE0FF901A5C1257
:10898700211F12238C901A5C12211F122394901A14
:108997005C12211FEFF0901A5C122298122126E434
:0189A700F0DF
:0189A80022AC
:109F86007D0A900561E4F0A3DDFCE4901A58F01216
:109F96009ED3901D50E0FF901A5812211FEFF090AB
:109FA6001D4DE0FF901A5812211FEFF0901D4EE054
:109FB600FF901A5812211F12238C901A5812211F33
:109FC600122394901A5812211FEFF0901A58122259
:069FD60098122126E4F0C0
:019FDC002262
:1093B70012391312215E747BF0A374D91220E112C3
:1093C70095EF7F0E1221C61220E11295EF1221634D
