:0300030002B23D09
:10B23D00C0E0C083C082901DABE4F0A3F0D082D0FB
:04B24D0083D0E03298
:10B09F00E4900000F0A3F0901DADF0A3F0C28CC2BD
:0BB0AF008D758CDCF58AD28CD2A922B2
:109D6C00C2A3E4F593F594F591F592F595F596F576
:109D7C00B1F5B2F5B3F5B4F5C9F5CA75968475B2FB
:109D8C0042901A58F0C2A67F017E0012B186D2A66C
:109D9C00901A58E004F0E0C3940240E912B1561254
:109DAC00ADBB12B3FF12B0BA12B2F412AE9112B034
:0F9DBC001312AD2112ACD012B32412B09FD2AF4C
:019DCB002275
:03000B00028297D7
:10829700C0E0C0F0C083C082C0D075D000C000C0AD
:1082A70001C002C003C004C005C006C00712A72A48
:1082B700900CE5E004F0900F40E004F090119BE093
:1082C70004F0900001E004F07006900000E004F074
:1082D700901DAEE004F07006901DADE004F0D39061
:1082E7001DAEE094C7901DADE094004034E4F0A3C8
:1082F700F0901DACE004F07006901DABE004F09028
:108307001951E004F0901ADDE004F07006901ADCD1
:10831700E004F0901DB4E004F07006901DB3E00493
:10832700F0D007D006D005D004D003D002D001D0BA
:0C83370000D0D0D082D083D0F0D0E03253
:10A51200129D6C901688E0FF7004C2B68002D2B61B
:10A52200EFB4010312ACA512391F12A3EB129BE583
:10A53200129C4712A480129CA912B0D51295CFD3B7
:10A54200900001E094C7900000E0940040DFE4F046
:07A55200A3F012A76980D6F7
:10618C00205665723A2000207C200043505520494F
:10619C00443A2000566F6C746167653A20002056B3
:1061AC007C200053544152543100555639385F38D5
:1061BC0036385F3232303433305F4434004E4F4324
:1061CC00414C4C00333133332E39304E00003132D8
:1061DC003032322E38304500555639380000000028
:1061EC0000000000000000000000000000000000A3
:1061FC000000000000003230322E3134312E3137A5
:10620C00362E3200000000000000000000000000EC
:10621C000000000000000000000000000000000072
:10622C0000000000000000004869576946695F33B0
:10623C0034353241455F32470031333031333638F3
:10624C003430303000312C3433312E303430302C6B
:10625C003433312E303430302C302C332C30200071
:10626C000000000000000000312C3134342E363494
:10627C0030302C3134342E363430302C302C332C0E
:10628C00302C302000000000000000534F53000061
:10629C0000000000000000000000000000000000F2
:0962AC00000000000000000000E9
:10A30700ECF5C3AF058FC41205DAF5C275C65A75E9
:10A31700C6A522FFE43401FEEC93FD12AE52EC9386
:10A3270022AD07AC0675C78075F51622ECF5C3AFED
:10A33700058FC4227FD112AE527FD202AE527D0169
:0CA3470012AE521D22E4FD12AE520D2297
:10868800901A5CEFF012A7E4129072901A5CE06402
:10869800017BFF7A61798C703512A9B87BFF7A610A
:1086A80079B612870C7A61799712A9B87B017A1D7D
:1086B800795412870C7A6179A012A9B87B017A1DC6
:1086C80079A212A9B87BFF7A6179AA02A9B812A97E
:1086D800EB7BFF7A6179B612871B7A61799712A9C9
:1086E800EB7B017A1D795412871B7A6179A012A954
:1086F800EB7B017A1D79A212A9EB7BFF7A6179AA3B
:1087080012A9EB2212A9B87BFF7A61799312A9B852
:108718007BFF2212A9EB7BFF7A61799312A9EB7B8D
:02872800FF222E
:0EB35100E4F5C7F5C5F5C675C3FF75C4FF2248
:10B28A0012A32875C50112A33312A31300AFC20279
:02B29A00B351AE
:10B25100AD07AC0612A33312A32C75C50312A313B9
:03B2610002B351E4
:10AED70012A32875C50212A307000DBD00010C744B
:10AEE7000129F9E43AFA901A62E014F070E802B323
:01AEF7005109
:07AE4B007F2E12AE527F2F93
:10AE5200AB07AA0612A32C75C502EAF5C3AF038F8E
:0CAE6200C4AF058FC212A3130002B3514D
:10ACF90012A32875C5021205DA601212A307000D06
:10AD0900BD00010C740129F9E43AFA80E912A33370
:08AD1900E412A3110002B35182
:10A89800E4FFFE12B251E4901A99F0A3F0901A99CD
:10A8A800E0FEA3E0FF244EF58274163EF583E0FD3A
:10A8B80012AE52901A9AE004F07006901A99E004C9
:0AA8C800F0C3901A99E0940240D307
:01A8D2002263
:10ADBB00E4FBFAAF03AE0212B28A744E2BF5827427
:10ADCB00163AF583EFF00BBB00010AE4B503E4EA96
:03ADDB00B402E0DF
:01ADDE002252
:05269C00901A5CEFF054
:1026A100E4FFFE12B251E4FDFF12AE527D147F0130
:1026B10012AE52E4FD7F0212AE527F0312AE527F80
:1026C1000412AE527F0512AE527F0612AE527D0346
:1026D1007F0712AE527BFF7A6179C9901A62740743
:1026E100F07F0812AED77D077F0F12AE527F101216
:1026F100A3457F1112AE527D217F1212AE527D2F62
:102701007F1312AE527D5B7F1412AE527F1512A35E
:102711004C7F1612AE527F1712AE521D7F1812AEA9
:10272100527F1912AE527F1A12AE527F1B12AE5255
:102731007F1C12AE527F1D12AE520D7F1E12AE5281
:102741001D7F2A12AE520D7F2B12AE527D157F2CAA
:1027510012AE527F2D12A34C12AE4B7F3A12AE52E3
:102761001D7F3B12AE527F3C12AE527F3D12AE52E4
:102771007F3E12AE527F3F12AE527BFF7A6179D01B
:102781007F2012ACF97A6179DA7F3012ACF97A6183
:1027910079E47F4012ACF9E4FD7FA012AE520D7FC7
:1027A100A112AE527FA212AE521D7FA312AE527F72
:1027B100A412AE527FA512AE520D7FA612AE521DCB
:1027C1007FA712AE520D7FA812AE527FA912AE5250
:1027D1007FAA12AE527FAB12AE527FAC12AE527FC5
:1027E100AD12AE527FAE12AE521D7FAF12AE5290FD
:1027F1001A5CE07BFF70087A6279517F8080087AE9
:102801006279747F807E0012ACF97D017FB07E0019
:1028110012AE527FB112AE527FB212AE521D7FB3D1
:1028210012AE527D387FB412AE527DF47FB512AE36
:1028310052E4FD7FB612AE527FB712AE527FB8128C
:10284100AE527FB912AE527FBA12AE520D7FBB1299
:10285100AE527D5C7FBC12AE527D507FBD12AE5236
:10286100E4FD7FBE12AE527DB47FBF12AE52E4FCD6
:10287100EC24C0FFE433FEEC90620212A320600559
:102881000CECB420EBE4FCEC240090623412A31AAB
:1028910060050CECB40FF0E4FCEC241090624512DE
:1028A100A31A60050CECB40FF0E4FCEC24B0FFE4D7
:1028B1003401FEEC90629712A32060050CECB41E6B
:1028C100EAE4FD7FD07E0112AE520D12A33B7FD30D
:1028D10012AE527D067FD412AE52E4FD7FD512AE08
:1028E100527FD612AE527FD712AE527BFF7A6179F8
:1028F100AF901A627407F07F2012AED77F2712A320
:10290100457F2812AE527F2912AE527D647F2A1272
:10291100AE527D017F2B12AE521D7F2C12AE527F23
:102921002D12AE5212AE4B127374E4FD7F307E0154
:1029310012AE527F3112AE5212A33B7FDF12AE5262
:082941007D037F1F1E02AE5250
:10B156007F1F7E0012B28AEF64037F016009122608
:08B166009C75C7207F00222226
:1030C000615E040400000000000000000000000039
:1030D00000000000000000000000000000000000F0
:1030E00000000000000000000000000000000000E0
:1030F00000000000000000000000000000000000D0
:1031000000000000000000000000000000000000BF
:1031100000000000000000000000000000000000AF
:10312000000000000000000000000000000000009F
:10313000000000000000000000000000000000008F
:10314000000000000000000000000000000000007F
:10315000000000000000000000000000000000006F
:10316000000000000000000000000000000000005F
:10317000000000000000000000000000000000004F
:10318000000000000000000000000000000000003F
:10319000000000000000000000000000000000002F
:1031A000000000000000000000000000000000001F
:1031B000000000000000000000000000000000000F
:1031C00000000000000000000000000000000000FF
:1031D00000000000000000000000000000000000EF
:1031E00000000000000000000000000000000000DF
:1031F00000000000000000000000000000000000CF
:1032000000000000000000000000000000000000BE
:1032100000000000000000000000000000000000AE
:023220000000AC
:08B427007F1D7EB7DEFEDFFC95
:01B42F0022FA
:10B16E00AD07AC06ED4C600FED1DAE0470011C4E2C
:08B17E00600512B42780F122E4
:0CB3B3007F037ECF7D1CDDFEDEFCDFFA98
:01B3BF00226B
:10B18600AB07AA06EB4A600FEB1BAE0270011A4E24
:08B19600600512B3B380F12241
:10AF7A00E0FF901A69E0FE04F074A22EF582E43430
:0FAF8A001DF58322901A69E0FF04F074A22F22B4
:0AB3FF0043918075DE0F75BC8722B4
:10AAB400E4F5BDF5BEE5BC548044404FF5BC000050
:10AAC4000000E5BC30E5FB53BCDFE5BEC4540FFD1C
:10AAD4007C00AFBDEF75F010A42DFFEC35F0FE2225
:109072007F0712AAB4AC06AD07E41203C3901A63C9
:109082001208987FBA7E497D1C7C41901A63E0F8F1
:10909200A3E0F9A3E0FAA3E0FB12018E7B0A7AD7E0
:1090A200792378421202971203FC901A67EEF0A31A
:1090B200EFF0129FFCC3901A68E094E8901A67E000
:1090C2009403E4901A6950028008F0901D4F12AF89
:1090D2007AEFF0901D5012AF7AEFF012AF8E12AF0E
:1090E20086742EF0901D5112AF7AEFF012AF8E12ED
:0490F200AF86E4F071
:0190F6002257
:06B460002000200D0A008F
:10AF99007C00AF03AE021206667C007D0A120666CB
:0FAFA900ED243022743B2FF582E4341DF5832212
:10B2E400EFD394394005EF24C9FF2274D02FFF22F5
:10B29C00EF540FFFD39409EF50042430FF222437CE
:02B2AC00FF227F
:109FFC00AB07AA067C277D1012AF9F901D52F07CF8
:10A00C00037DE812AF9B901D4FF07D6412AF99A3B6
:10A01C00F07D0A12AF99A3F0AE02AF0312AFA2FF0C
:10A02C00901D53F0901D52E0901D45F0901D4FE097
:10A03C00901D46F0901D50E0901D47F0901D51E092
:0BA04C00901D48F0A3EFF0E4A3F02209
:10ADDF00901A69EFF0E0C4540FFF12B29C12B44006
:10ADEF00901A69E0FF12B29C12B4407BFF7AB479DB
:04ADFF006002A9EB5A
:10971900901A62EBF0A3EAF0A3E9F0A3ECF0A3ED51
:01972900F04F
:10972A007FC012ADDFE4FF12ADDFE4901A67F0A349
:10973A00F0901A65E0FEA3E0FFA3E0FCA3E0FDC3FE
:10974A009FEC9E5026901A62E0FBA3E0FAA3E0F990
:10975A008D828C831205F3FF12ADDF901A68E00444
:10976A00F070CE901A67E004F080C67FC012ADDFB9
:09977A007BFF7AB4796202A9EBCD
:10A7E4007EF1E4FDA806E6FC0EC4540FFF12B29CF1
:10A7F400ED25E02454F582E4341DF583EFF0AF0435
:10A8040012B29CED25E02455F582E4341DF583EF66
:0BA81400F00DEDB407CEE4901D62F0E3
:01A81F002216
:0E917B00901A71EEF0A3EFF0A3ECF0A3EDF06C
:10918900E4FFFEEEFD901A72E02DFD901A71E034B5
:1091990000FC744E2DF58274163CF583E0F9600BE2
:1091A90012AFADE9F00F0EEEB406D812AFAD742DC3
:1091B900F00F901A73E0FCA3E0244EF58274163C7C
:1091C900F583E0FEC3940AEE75F00A500280148418
:1091D90075F00A84E5F02430FD12AFADEDF00FEE25
:1091E90075F00A84E5F02430FE12AFADEEF00F12EF
:0491F900AFADE4F042
:0191FD00224F
:10B0D500128AD5BF051312AB7212AA517F027E00E8
:0AB0E50012B18612718712928122C7
:10AC2400475053204F4E0D0A005761697420475016
:10AC340053204C6F636B200D0A00475053204F463E
:0BAC4400460D0A0041505556393800FB
:1080880074D42FF582E4341AF583E0FF901A5DE08A
:108098002404F582E43400F583EFF0901A5DE004DF
:1080A800F022901A5DE02404F582E43400F583227E
:1080B800E4FAF9F8901A5FE0FCA3E0FDA3E0FEA360
:1080C800E0FF12A59DE47B0AFAF9F812A59DEB24BE
:1080D8003022A3E02FFFE433FE74042FF5827400EE
:1080E8003EF5837440F0901A5CE004F022901A5C2C
:1080F800E0FFC3940622F583E025E0FEEFFD901A29
:108108005DE02DFDE433FC74042DF58274003CF52C
:1081180083EE22901A5CE0FFC322E4FAF9F8E0FC4F
:10812800A3E0FDA3E0FEA3E0FF22901678E064013F
:018138002224
:1011030090165EE0FF901A5EF0BF0103126F82E457
:10111300901A5DF0128132703F901A5EE0B4011FA5
:10112300E4901A5CF01280F5504774782FF582E44E
:10113300341DF583E025E01280931280EE80E6E40F
:10114300901A5CF01280F55028EF90AC489325E09C
:101153001280931280EE80ECE4901A5CF01280F51A
:10116300500FEF90AC489325E01280931280EE80ED
:10117300EC1280AA74601280A2E4901A5CF01280D0
:10118300F550051280DA80F6E4901A5CF01280F5CF
:10119300502574562FF582E43416F583E0601890D9
:1011A3001A5CE02456F582E43416F583E025E01258
:1011B30080931280EE80D690165DE0FF901835E0A4
:1011C300FE90183DE0F9901A5D740DF0EE700CE995
:1011D3007009EF25E04461FF02129DEF25E044E032
:1011E300128093EE6065E4901A5CF01280F550056E
:1011F3001280DA80F6E4901A5CF01280F5502074C5
:101203002E2FF582E43418F583E06013901A5CE026
:10121300242EF582E434181280FE1280ED80DB90D8
:101223001A5DE02406F0901835E025E04460FF9055
:101233001A5DE0FE1280AEEFF0E9700C74042E121A
:1012430080B0E04401F080001280A3E9604FE49095
:101253001A5CF01280F550051280DA80F6E4901AD9
:101263005CF01280F5502074362FF582E43418F5C3
:1012730083E06013901A5CE02436F582E43418129C
:1012830080FE1280ED80DB901A5DE02406F090185A
:101293003DE025E04461FF901A5D1280971280AA19
:1012A30074031280A21280AD74F01280A2128132F4
:1012B3006003021381901A5EE0B4011FE4901A5C8C
:1012C300F012811B940E400302147474642FF58290
:1012D300E4341D1280901280EE80E6901660128036
:1012E30092E4901A5CF012811B94085010741E2F24
:1012F300F582E4341B1280901280EE80E9901ADBB1
:10130300E0B4020590170A8003901661128092E4FC
:10131300901A5CF012811B94095010740A2FF58205
:10132300E4341B1280901280EE80E9901ADBE0B463
:10133300020590170B8003901662128092901AD2C6
:101343001216681280AD742F1280A2901B0312161E
:10135300681280AD742F1280A21280AD7441128086
:10136300A21280AD743D1280A2E4901A5CF0128048
:10137300F540030214741280881280EE80F09016F8
:1013830060128092E4901A5CF012811B9408501052
:10139300746E2FF582E434161280901280EE80E989
:1013A300901661128092E4901A5CF012811B9409EA
:1013B3005010747E2FF582E434161280901280EE62
:1013C30080E9901662E0FF1280AAEF12160C1280D9
:1013D300AD742F12160C1280AD742F1280A21280DE
:1013E300AD74411280A21280AD743D1280A2901799
:1013F30077E0FEA3E07C002400FDEC3EFCE4120356
:10140300C37BA17AF87951784012018E1203FC90C4
:101413001A5F1208987BA07A86790178001280BC43
:10142300901AD4F0E47B107A271280BA901AD5F080
:10143300E47BE87A031280BA901AD6F07B641280B8
:10144300B8901AD7F07B0A1280B8901AD8F07B0AAA
:10145300901A5F1281221280D3901AD9F0E4A3F07C
:10146300901A5CF01280F550081280881280EE808A
:10147300F3E4901A5CF012811B943C502A748E2F73
:10148300F582E43416F583E0FF601C128094E0FFDC
:10149300D39464400D74042F1280B0747E1280A222
:1014A30080051280EE80CF127E6190168CE064017D
:1014B3007051128132704C1280AA74201280A27B68
:1014C30064901B40128122120772129FFC901D52DE
:1014D300128092901D4F128092901D501280929014
:1014E3001D511280921280AD742E1280A2901D5352
:1014F3001280921280AD744B1280A21280AD746D73
:101503001280A290168AE0640170361280AA7420B9
:101513001280A2129072E4901A5CF0901A5CE0249C
:10152300A2F582E4341DF583E0FF600D1280AAEF7B
:101533001280EDA3E004F080E21280AA74561280B8
:10154300A212391F90168BE064017036300F3312EC
:1015530080AA74201280A2E4901A5CF0901A5CE0D6
:101563002487F582E4341CF583E0FF600D1280AA22
:10157300EF1280EDA3E004F080E21280AA7443121C
:1015830080A2901689E064017046300F431280AA4E
:1015930074201280A2E4901A5CF0901A5CE0247C20
:1015A300F582E4341CF583E0FF600D1280AAEF128C
:1015B30080EDA3E004F080E21280AA74681280A296
:1015C3001280AD74501280A21280AD74611280A299
:1015D300128132702490168DE06401701C1280AA6F
:1015E30074201280A21280AD74531280A2901AF656
:1015F300128092901AF7128092901A5DE0FF900683
:0816030090E4F0A3EFF07F0179
:10160B0022F0901A5DE004F0E4FFFE129FFC901DA7
:10161B0050E0FF901A5DE02404F582E43400F5837A
:10162B00EFF0901A5DE004F0901D51E0FF901A5D11
:10163B00E02404F582E43400F583EFF0901A5DE0CA
:10164B0004F0901D53E0FF901A5DE02404F582E452
:10165B003400F583EFF0901A5DE004F022E0FEA376
:10166B00E0FF129FFC901D50E0FF901A5DE02404F8
:10167B00F582E43400F583EFF0901A5DE004F0900E
:10168B001D51E0FF901A5DE02404F582E43400F56F
:10169B0083EFF0901A5DE004F0901D53E0FF901A79
:1016AB005DE02404F582E43400F583EFF0901A5DDD
:0416BB00E004F02235
:10AAE40090167BE0B4010D20A70AD2A77BFF7AACB5
:10AAF40079248010901678E0B4010C2003097BFFC0
:10AB04007AAC792D02A9EB121103E4FF1287CA2251
:1095CF00901650E0B4012990164EE0FEA3E07C0007
:1095DF002400FFEC3ECF24FFCF34FFFED3901DB409
:1095EF00E09F901DB3E09E4007E4F0A3F012AAE4C1
:1095FF00901650E0B401047F0180027F0090165155
:10960F00E0B401047E0180027E00EE4F60249016CC
:10961F007BE0B4011D901678E0B4011630A713302B
:10962F00031012AAE4C2A7C2037BFF7AAC793E12E1
:03963F00A9EB2272
:109B8300444947492031204F4E0D0A004449474973
:109B93002031204F46460D0A0044494749203220D0
:109BA3004F4E0D0A00444947492032204F46460D87
:109BB3000A004E4F57205253540D0A00574944454B
:109BC300312000005749444532200000574944459D
:109BD30031200000574944453220000031323334EC
:029BE300353615
:10992800FD745D2EF582E4341AF583EDF0745E2F34
:10993800F582E4341AF583E4F0901A67E004F02223
:10994800E0240AF582E43400F58322FDE02DFDE4ED
:1099580033FC74042DF58274003CF58322901A5A66
:10996800E0FBA3E0FAA3E02274612FF582E4341A45
:10997800F58322F0901A5FE004F022745B29F582E7
:06998800E4341AF583220D
:106D7400E4901A67F0901A67E0FFC394065011E09C
:106D8400FE2426F582E43418F583E012992880E580
:106D9400901A787401F0A3741AF0A3745DF07B0167
:106DA4007A047904127DA2901A5AEBF0A3EAF0A3B4
:106DB400E9F01299654A4B7003026E6FE4901A670A
:106DC400F0901A67E0FFC394085016129965F99081
:106DD4001A67E0FEF5827583001205F31299288084
:106DE400E0901A63E0B44111A3E0B4310C9018456B
:106DF400126E727A9B7983804E901A63E0B44115C7
:106E0400A3E0B43010E4901845F012A8987BFF7A00
:106E14009B798F8032901A63E0B44211A3E0B431BD
:106E24000C90184D126E727A9B799C801A901A639A
:106E3400E0B44219A3E0B43014E490184DF012A861
:106E4400987BFF7A9B79A812A9EB7F0122901A63A1
:106E5400E0B45214A3E0B4300F7BFF7A9B79B512EF
:0D6E6400A9EB75C7207F01227F01227F006E
:0A6E7100227401F012A8987BFF22A2
:0E7A7400901A5AEBF0A3EAF0A3E9F0A3EDF0AC
:107A8200129948E0541EC313901A5EF070037F01EE
:107A920022E4901A5FF0901A5FE0FFC39406500A46
:107AA200129970742012997B80ECE4901A5FF09026
:107AB2001A5FE0FFC394065026901A5A129968F989
:107AC2008F827583001205F3901A60F06011E0FF57
:107AD200901A5FE02461129973EF12997B80D0E4CF
:107AE200901A5FF0901A5FE0FF901A5D129953E0CE
:107AF200C313FE129970E06E60037F002212997C1C
:107B0200E0B406E0901A5EE014F0E025E0F0901A8E
:107B12005DE0FF129949E054E1F0740A2F12994B8B
:107B2200C083C082E0FF901A5EE0FEEF4ED082D0AA
:107B320083F0EE700A901A5D129948E04480F07F5B
:017B42000240
:017B4300221F
:05849900901A5AEFF0FB
:10849E00900690E0FEA3E0FFD394E8EE9403400331
:1084AE0002853F901656E0700302853FAE07901A84
:1084BE005AE0FDC3EF9D04FCE4F9E9C39C501C7423
:1084CE00042EF582E43400F583E0FD740B2EF58264
:1084DE00E43400F583EDF01E0980DF7906901A5B17
:1084EE007440F0A3D9FCE4F9745629F582E43416ED
:1084FE00F583E0600D25E0FE129983EEF009E9B4F4
:10850E0006E690165DE025E044E0901A61F0E4F98D
:10851E00129983E0FFE9901A5A129953EFF009E984
:10852E00B407ED900691E02407F0900690E0340039
:01853E00F04C
:01853F002219
:10A98200901823E0D394004021E4901A5AF09018D2
:10A9920023E0FF901A5AE0C39F500F7F287E0012D7
:10A9A200B186901A5AE004F080E47F067E0012B16C
:06A9B200867F010287CA46
:10928100126D74901845E0700690184DE06064907E
:109291000011E020E05D901A59740DF0E4901A5825
:1092A100F0901845E0600C7A18793E1292F5BF02F1
:1092B10002801090184DE060167A1879461292F5E6
:1092C100BF020C901A59E004FF12849902A98290FE
:1092D1001A59E0240BF582E43400F583E020E01311
:1092E100901A59E02407F0901A58E004F0E0C39472
:0392F1000640AE86
:0D92F400227B01901A59E004FD127A7422C9
:10737400E4901A5DF0901A5DE0FD24E0909BBF124A
:10738400740B40F17FE612744C7D017FE712745454
:10739400901A5DE0FD24E8909BC712740B40F17FC6
:1073A400EE1274377FEF127440901A5DE0FD24F002
:1073B400909BCF12742140F17FF61274377FF7123D
:1073C4007440901A5DE0FD24F8909BD7127421401C
:1073D400F17FFE12744CE4FD7FFF127454901A5D29
:1073E400E0FD24D8FFE43401FEED909BDF93FD1211
:1073F400AE52901A5DE004F0E0C3940640DFE4FD71
:077404007FDE7E0102AE52A3
:10740B00FFE43401FEED93FD12AE52901A5DE004E1
:10741B00F0E0C3940622FFE43401FEED93FD12AEBF
:10742B0052901A5DE004F0E0C3940622E4FD7E0165
:10743B0012AE52E422FD7E0112AE52E4901A5DF0C0
:10744B0022E4FD7E0112AE52227E0112AE52E49076
:04745B001A5DF022A4
:10371F00000011892312329B462457AD653674BFC2
:10372F008C489DC1AF5ABED3CA6CDBE5E97EF8F772
:10373F00108101083393221A56A5472C75B7643EA2
:10374F009CC98D40BFDBAE52DAEDCB64F9FFE87652
:10375F002102308B02101399672676AF443455BD82
:10376F00AD4ABCC38E589FD1EB6EFAE7C87CD9F532
:10377F003183200A1291031877A7662E54B5453C62
:10378F00BDCBAC429ED98F50FBEFEA66D8FDC97412
:10379F004204538D6116709F042015A9273236BB42
:1037AF00CE4CDFC5ED5EFCD7886899E1AB7ABAF3F2
:1037BF005285430C7197601E14A1052837B3263A22
:1037CF00DECDCF44FDDFEC5698E98960BBFBAA72D2
:1037DF006306728F4014519D252234AB063017B902
:1037EF00EF4EFEC7CC5CDDD5A96AB8E38A789BF1B2
:1037FF007387620E5095411C35A3242A16B10738E2
:10380F00FFCFEE46DCDDCD54B9EBA8629AF98B7091
:10381F0084089581A71AB693C22CD3A5E13EF0B7C1
:10382F00084019C92B523ADB4E645FED6D767CFF71
:10383F0094898500B79BA612D2ADC324F1BFE036A1
:10384F0018C109483BD32A5A5EE54F6C7DF76C7E51
:10385F00A50AB48386189791E32EF2A7C03CD1B581
:10386F00294238CB0A501BD96F667EEF4C745DFD31
:10387F00B58BA40296998710F3AFE226D0BDC13461
:10388F0039C3284A1AD10B587FE76E6E5CF54D7C11
:10389F00C60CD785E51EF497802891A1A33AB2B341
:1038AF004A445BCD695678DF0C601DE92F723EFBF1
:1038BF00D68DC704F59FE41690A98120B3BBA23221
:1038CF005AC54B4C79D7685E1CE10D683FF32E7AD1
:1038DF00E70EF687C41CD595A12AB0A3823893B101
:1038EF006B467ACF485459DD2D623CEB0E701FF9B1
:1038FF00F78FE606D49DC514B1ABA02292B98330E1
:10390F007BC76A4E58D5495C3DE32C6A1EF10F7890
:05964200901A67EDF035
:1096470074FFA3F0A3F0901A67E0D39400403F1291
:1096570005DAFF901A68A3E06F25E0FFE433FE7494
:109667001F2FF58274373EF583E493FC740193FD55
:10967700901A68E0FFECFEED6FFFEEF0A3EFF090BD
:109687001A67E014F0740129F9E43AFA80B8901ADD
:1096970068E0FEA3E0F4FFEEF4FCEF901DB6F0AE39
:0696A70004EE901DB5F079
:0196AD00229A
:10AE0300900690E0FCA3E02404F58274003CF583F3
:10AE130022C313F04480F0A3E004F0E022901DAFBE
:04AE2300E0640322C2
:0CB3E700E4F5D875F9FA75E910D2DE2201
:0EB35F00E4F5D875F9FDF5E9D2DE30DFFD2208
:10A1B6007B017A007904900690A3E024FEFD1296B6
:10A1C60042900690E0FCA3E0FD2402F58274003C78
:10A1D600F583E0FF901DB6E06F60037F00227403F5
:10A1E6002DF58274003CF583E0FF901DB5E06F60AD
:10A1F600037F0022900691E024FEF0900690E03462
:05A20600FFF07F0122C2
:108D2C00E4901DAFF0A3F012008EEF30E004C29679
:108D3C008002D296A2969201E4901DB1F0901DBDD6
:108D4C00F012B35F901DB0E0FFC313F0A3E0B406C4
:108D5C0016901DBDE004F0E0B4030C901DAF74033D
:108D6C00F0E4901DB1F022E4901DB1F0C20220029B
:108D7C00D012B3E720DF2612008EEE20E207901D02
:108D8C00AF7404F022EF30E004C2968002D296A2B7
:108D9C0096300101B350DDA2969201D2022002CE90
:108DAC00901DB0E012AE14B407C4901DAF7405F062
:018DBC002294
:108ED600E4901DB2F0901DBEF0901DBEE0C3940854
:108EE600507812B3E720DF2C12008EEE20E20790B6
:108EF6001DAF7404F022EF30E004C2968002D296D1
:108F0600A296300101B35008A2969201D2028004C3
:108F1600C20280D120021A901DB0E0FF12AE14B436
:108F26000707901DAF7405F022901DBEE004F08087
:108F3600A812B35F901DB1E0FFB40604A37401F05C
:108F4600EF6405600D901DB0E0C313F0901DBEE008
:0A8F560004F0E4901DB1F0028EDF7C
:018F600022EE
:10872A00E4900690F0A3F0128D2C12AE2060037F25
:10873A000122901DB0E0647E60037F0222128ED671
:10874A00901DB0E0FEB47E0812AE2060F07F0322D6
:10875A00E4900690F0A3F012AE03EEF0900691E0DA
:10876A0004F07006900690E004F0128ED612AE2045
:10877A0060037F0422901DB0E0FF12AE03EFF09079
:10878A000691E004F07006900690E004F0D390069B
:10879A0091E094E8900690E0940340037F052290CC
:1087AA001DB2E0B401C4900691E024FFF090069057
:1087BA00E034FFF012A1B6BF01037F06227F072231
:10A35300120898E47B597A20901A63F9F8E0FCA379
:10A36300E0FDA3E0FEA3E0FF02A59D901B037D0A91
:10A37300E0FEA3E0FF7C00020666E024D075F00A4D
:10A38300A4FFA3E024D02F241C22AC00AD01AE0215
:0CA39300AF03020898A3A3A3E02421223A
:1057D500EFB40700504A9057E2F82828730257F7AC
:1057E5000257FB02580302580802580F02581702C5
:1057F500581E7C0180167C017D01E4FE80267C011B
:10580500E480187C01E4FDFE801AE4FC7D017E0144
:105815008012E4FC7D01FE800BE4FCFD7E0180042A
:10582500E4FCFDFEECB40115901B1EE0FFB420085E
:10583500901D78745AF0800DEF24208004901B1E73
:10584500E0901D78F0EDB40115901B1FE0FFB4202A
:1058550008901D79745AF0800DEF24208004901B68
:105865001FE0901D79F0EEB40115901B20E0FFB408
:105875002008901D7A745AF0800DEF242080049042
:105885001B20E0901D7AF0901B25E0B44E19901B6B
:1058950021E0FFB42008901D7B745AF0801BEF2493
:1058A50020901D7BF08012901B21E0FF901D7BB4A2
:1058B5002005744CF08002EFF0901D82E0B464196D
:1058C500901B23E0FFB42008901D7C745AF0801BC8
:1058D500EF2420901D7CF08012901B23E0FF901D8B
:1058E5007CB42005744CF08002EFF0901B12E0B4FC
:1058F5005717901B24E0FFB42007901D7D745AF0C4
:1059050022EF2420901D7DF022901B24E0FF901DA6
:0A5915007DB42004744CF022EFF082
:01591F002265
:109D0B00901D647460F0901B0BE024D075F00AA4D6
:109D1B00FF901B0AE024D075F064A42FFF901B0C5E
:109D2B00E024D02FFFC3940A5005EF24768027EF51
:109D3B00C39464500DEF241C901D65F0E4901D82BC
:109D4B00F022EFC3946E5005EF24088009EFC39403
:109D5B00B4500DEF24B8901D65F0901D827464F023
:019D6B0022D5
:106F8200129D0B901B0D12A37D901D66F0C39426DB
:106F92005004E0243CF0901B1012A37D901D67F07A
:106FA20012A36EAB07EBC39414EB241C901D68F084
:106FB20012A36EAB05901AD27D6412A373EF241C48
:106FC200FFEB75F00AA42F901D69F0901AD2E0FE33
:106FD200A3E0FF7C007D64120666AF05EF241C90DF
:106FE2001D6AF0901ADBE0B4020D90170BE0901DC1
:106FF2006BF090170A800B901662E0901D6BF09078
:107002001661E0901D6CF0901AF2E0FCA3E0FDA383
:10701200E0FEA3E02410FFEE3427FEE43DFDE43C55
:10702200FC901A6312A353901A6712A353901A6B1F
:1070320012A38DE47B5BFA901A6B12A35E901A6F17
:10704200120898E47B5BFAF9F8901A6B12A360902D
:107052001A7312A38D901D6D7460F0901A6712A3BB
:1070620098901D6EF0901A6F12A398901D6FF09079
:107072001A7312A398901D70F0A3747DF090165F9E
:05708200E0FF0257D5FC
:105CD000EF2BFBEE3AFAED39F9EC38F8901A61E067
:105CE000FEA3E0FFE4FCFDEB2FFFEA3EFEED39FDF5
:105CF000EC38FCEF249BFFEE34A1FEED34FBFDEC11
:105D000034FFFCA31208987F0122901A63E0FCA3E1
:105D1000E0FDA3E0FEA3E022FD74D52FF582E4347C
:105D20001BF58322EE75F00A84E5F0243022F5831A
:105D3000E0FD901A61E4F0A3EDF0E4FCFD7B5BFA7A
:105D4000F9F80206E774042FF582E43400F583E0E5
:105D500022E4FDFC901A63E0F8A3E0F9A3E0FAA3C3
:105D6000E0FBC3020812FEED9400FDEC9400FC90F1
:105D70001A63020898901A5DE0FEA3E0FFE4FCFDC0
:105D80007B597A20F9F80206E7F583E0901A5FFF65
:105D90007E00EEF0A3EFF022F583E024E4901A58A1
:105DA000F02224E4FFE034FFFE7C007D0A22F5832C
:105DB000E0901A5DFDE4F0A3EDF0227420901BCE7C
:105DC000F0901C05227420901BD1F0901C0022241E
:105DD00009F582E43400F583E022901BCB7420F0B7
:105DE00022901A68E0FFC322901BCC7420F022900E
:105DF0001A69E0FFC322901BCD7420F02275F00ACF
:045E000084243022A4
:10AA83007F06E4FE125D4520E00E74072FFF0EEEF5
:10AA9300D3940840EF7F00220F0F0F125D45FEB4E1
:10AAA30027028004EEB46006901DB8EFF0227F0009
:01AAB3002280
:103CF200E4FEFDFC74042C125D48C313FB74672CB4
:103D0200F582E4341AF583EBF00CECB406E6901A73
:103D120067E0FCC39450400DECD394595007EC2457
:103D2200E0901BCBF0901A67E0FFC39441400DEF87
:103D3200D3944A5007EF24EF901BCBF0901A67E020
:103D4200FFB44B03125DDAEFB45A03125DDA901A34
:103D520067E0B44C03125DDA901A67E0FFC3943A4D
:103D62005005901BCBEFF0125DE19450400DEFD364
:103D720094595007EF24E0901BCCF0125DE194417E
:103D8200400DEFD3944A5007EF24EF901BCCF090F4
:103D92001A68E0FFB44B03125DE8EFB45A03125DF8
:103DA200E8901A68E0B44C03125DE8125DE1943ABF
:103DB2005005901BCCEFF0125DEF9450400DEFD305
:103DC20094595007EF24E0901BCDF0125DEF94411F
:103DD200400DEFD3944A5007EF24EF901BCDF090A3
:103DE2001A69E0FFB44B03125DF6EFB45A03125D99
:103DF200F6901A69E0B44C03125DF6125DEF943A44
:103E02005005901BCDEFF0901A6AE0FFC39450402A
:103E120009EF24E0125DBD744EF0901A6AE0B45AC4
:103E220006125DBB744EF0901A6AE0FFB44C0612A3
:103E32005DBB7453F0EFC3943A5007EF125DBD744B
:103E420053F0901BCF742EF0901A6BE0FFC3945086
:103E52004009EF24E0901BD0F07A64901A6BE0B432
:103E62005A08901BD07420F07A64901A6BE0FFB469
:103E72004C08901BD07420F0E4FAEFC3943A500738
:103E8200901BD0EFF0E4FA901A6CE0FFC39450401C
:103E920009EF24E0125DC77457F0901A6CE0B45A2F
:103EA20006125DC57457F0901A6CE0FFB44C06120E
:103EB2005DC57445F0EFC3943A5007EF125DC774C5
:0F3EC20045F0901C05E0901BD2F0E4A3F0AF0296
:013ED10022CE
:101A570012AA83EF7006901DB7F0FF22123CF29096
:101A67001DB8E0FD2405F582E43400125D98EFB45B
:101A77006404E02464F0901A58E0FFC394B4400A69
:101A8700EFD394BD5004E024B0F0901A58E0FFC3A0
:101A970094BE400AEFD394C75004E02442F0901A52
:101AA70058E0FE75F064842430901BBDF0EE75F0AD
:101AB7000A84125D25A3F0901A58E0125D25901B49
:101AC700BFF074062DF582E43400125D98C3943C90
:101AD7004004E024C4F0901A58E0FD125DFD901B0D
:101AE700C0F0ED125D25A3F0A3742EF0901DB8E0B1
:101AF700FD2407F582E43400125D98E0FE125DFDD7
:101B0700901BC3F0125D24A3F0901C00E0901BC54E
:101B1700F0E4A3F074082DF582E43400F583E0FFC8
:101B2700901A59E4F0A3EFF0901DB8E0125DCF9042
:101B37001A5B125D8F24E4FFEE125DA6120666AAF9
:101B470006AB07901A5AE0901A59125DA212065472
:101B5700EF2BFFEE3AFEE4FD125D6F7F207E03124E
:101B67005D51400C125D0A9420FFEE9403125D66EE
:101B7700125D0AFFEC1203BE7BF67A28799478414E
:101B870012018E1203FC121DAF901D52E0901C1A19
:101B9700F0901D4FE0901C1BF0901D50E0901C1C16
:101BA700F0901D51E0901C1DF0A3742EF0901D5372
:101BB700E0901C1FF0E4A3F0901DB8E0FF125DCF8A
:101BC700901A5B125DB4740A2FF582E43400F58332
:101BD700E0FB7A00901A5CE0901A5B125DA2120695
:101BE700667E007F64120654EB24E4FDE434FFCDE7
:101BF7002FFFED3EFEE4FCFD125D6F7F907E01122C
:101C07005D51400C125D0A9490FFEE9401125D66DF
:101C1700901A63121DC3901D50E0901C06F0901D92
:101C270051E0901C07F0901D53E0901C08F0E4A3CE
:101C3700F0FF901DB8E0F92410F582E43400F58335
:101C4700E0647D703B901DB8E0FF240DF582E4341D
:101C570000125DAE740E2FF582E43400125D8974B4
:101C67000F29F582E43400125D2EC004C005C006BA
:101C7700C007125D75D003D002D001D000125CD02E
:101C8700901DB8E0F92411F582E43400F583E0648F
:101C97007D703B901DB8E0FF240EF582E4340012FE
:101CA7005DAE740F2FF582E43400125D897410293C
:101CB700F582E43400125D2EC004C005C006C007DB
:101CC700125D75D003D002D001D000125CD0EF6452
:101CD70001705A125D0AFFEC1203BE901C01120834
:101CE70098125D0AFFEC33901A635011A3A3A3E087
:101CF700120804121DAF901C10742D800A121DC308
:101D0700901D52E0901C10F0901D4FE0901C11F0B8
:101D1700901D50E0901C12F0901D51E0901C13F0A4
:101D2700901D53E0901C14F0E4A3F0800A901C016E
:101D37001208A400000000901DB8E0240BF582E40F
:101D47003400F583E0901BE1F0E4FF7E0774042E76
:101D5700125D48C313901A58F064206007E0125DC3
:101D670018EDF00F0EEEB40DE4900011E0541EC311
:101D770013FED394004025125D19742DF00FEEC3A6
:101D8700940AEE50044430800C125DFD125D18ED8C
:101D9700F00F125D24FE125D19EEF00F125D19E4CB
:071DA700F0901DB704F0FFEE
:101DAE0022901A63120898901A63A3A3E0FEA3E090
:101DBE00FF129FFC22A3A3E0FEA3E0FF129FFC22D2
:10B2AE0024475057504C2C00000024475057504C08
:02B2BE002C0062
:10322200603C1CCD00000000000000000000000017
:10323200000000000000000000000000000000008C
:10324200000000000000000000000000000000007C
:10325200000000000000000000000000000000006C
:10AE6E000EE0FD74CD2EF582E4341CF583EDF00E6C
:10AE7E0074CD2EF582E4341CF58322F583E0FD7447
:03AE8E00CD2F22A3
:105E040078627C1A7D017BFF7AB279AE7E007F0ACC
:105E14001205B4E4FFFE74622EF582E4341A12AE65
:105E24008912AE81EDF00F0EEEB407EAE4FE74CBF6
:105E34002EF582E4341B12AE8912AE81EDF00F0E02
:105E4400EEB407EA74CD2F12AE81742CF00F901CBF
:105E540005E0FE74CD2F12AE81EEF00F74CD2F123B
:105E6400AE81742CF00FE4FE74BD2EF582E4341B75
:105E740012AE8912AE81EDF00F0EEEB408EA74CDC5
:105E84002F12AE81742CF00F901C00E0FE74CD2F05
:105E940012AE81EEF00F74CD2F12AE81742CF00F80
:105EA400E4FE74D52EF582E4341BF583E0FD600E28
:105EB40074CD2F12AE81EDF00F0EEEB409E474CD63
:105EC4002F12AE81742AF00FE4FD7E01EF14FCEE74
:105ED400C39C500912AE7EE06DFD0E80EFEDC454FC
:105EE4000FFEC3940AEE5004243080022437FE745B
:105EF400CD2F12AE81EEF00FED540FFEC3940AEED7
:105F04005004243080022437FE74CD2F12AE81EE6B
:105F1400F00F74CD2F12AE81740DF00F74CD2F12CB
:0E5F2400AE81740AF00F74CD2F12AE81E4F03E
:015F3200224C
:104F7500E4FEFDED90B2B893FC12AE7EECF00E0DA2
:104F8500EDB407EF901678E06401704EFD741E2DA8
:104F9500F582E4341BF583E0FC12AE7EECF00E0DD9
:104FA500EDB407E912AE7E742CF0901B2512AE6E9F
:104FB500742CF00EE4FD740A2DF582E4341BF583A0
:104FC500E0FC12AE7EECF00E0DEDB408E912AE7EFB
:104FD500742CF00E901B1202502BE4FD746E2DF50F
:104FE50082E43416F583E0FC12AE7EECF00E0DED96
:104FF500B407E912AE7E742CF090167512AE6E747D
:105005002CF00EE4FD747E2DF582E43416F583E074
:10501500FC12AE7EECF00E0DEDB408E912AE7E7416
:105025002CF00E901686E0FC12AE7EEC12AE7C746F
:105035002CF00EE4FD74562DF582E43416F583E06C
:10504500FF600B12AE7EEFF00E0DEDB406E712AE6B
:105055007E742DF00E90165DE0FDC3940AED75F09B
:105065000A500280148475F00A84E5F02430FC129D
:10507500AE7EECF00EED75F00A84E5F02430FC12FE
:10508500AE7EECF00E12AE7E742AF00EE4FC7D01CD
:10509500EE14FBEDC39B500C74CD2D12AE81E06C6C
:1050A500FC0D80ECECC4540FFDC3940AED500424B0
:1050B5003080022437FD12AE7EEDF00EEC540FFD6C
:1050C500C3940AED5004243080022437FD12AE7ECD
:1050D500EDF00E12AE7E740D12AE7C740A12AE7C2B
:0250E500E4F0F5
:0150E70022A6
:106B6400EF2BFFEE3AFEED39FDEC38FC901C14A837
:106B740004A905AA06AB07E075F00AA4FFE4FCFD2E
:106B8400EB2FFBEA35F0FAED39F9EC38F8A3E0FF26
:106B9400E4FEEB2FFFEE3AFEED39FDEC38FC22F576
:106BA40083EEF075F001E4901A5A0206BB901A596C
:106BB400E0FBA3E0FAA3E0F90205DA901A5D1208FB
:106BC40098901A5DE0FCA3E0FDA3E0FEA3E0FFE4DF
:106BD4001203BE7BBF7A0E799C783E12018E12039B
:106BE400FC901A5D020898AF03AE021206667C00A0
:106BF4007D0A120666ED243022901C127BE87A038B
:106C0400E0FFE4FCFDFEF9F80206E7901C13E0FF48
:106C1400E4FCFDFE7B64FAF9F80206E774102FF534
:106C240082E4341CF583E024D0F0901A61E004F08F
:106C3400227B017A047904901A58E0FD22901A5CB0
:106C4400E0FFC322901A5CE004F0221205DAFF741C
:106C54000129F9E43AFA22F0901A62E0FEA3E0FF77
:086C6400227B017A047904226D
:1093F8007F0A901BD5E4F0A3DFFC7F0A901BCBE427
:10940800F0A3DFFC7F0A901BBDE4F0A3DFFC7F0A1A
:10941800901C06E4F0A3DFFC7F0A901C1AE4F0A37A
:10942800DFFC7F0A901C10E4F0A3DFFC7F0A901B8E
:10943800F6E4F0A3DFFCE4901BC7F0A3F0901BDF79
:10944800F0A3F0901C011208A400000000E4901B97
:10945800C9F0A3F07F0A901BECE4F0A3DFFC7F0ABD
:08946800901BE2E4F0A3DFFC1D
:0194700022D9
:10998E00E4FF741A2FF582E4341CF583E024D0F042
:10999E000FEFB403ED901C1A126C12901C1B126B7D
:1099AE0073E41203BE7BF67A287994784112018E05
:1099BE001203FC129FFC901D52E0901C1AF0901D99
:1099CE004FE0901C1BF0901D50E0901C1CF0901D61
:1099DE0051E0901C1DF0A3742EF0901D53E0901CCE
:0599EE001FF0E4A3F0EE
:0199F3002251
:10493F00901C10E0642D60030249D7901A6104F0B7
:10494F00901A61E0FFC394065005126C2080F1129B
:10495F006BFDC004C005C006C007901C117B107A08
:10496F0027126C04D003D002D001D000EF2B126BB2
:10497F0098C004C005C006C007126C0FD003D00248
:10498F00D001D000126B64126BBF901C011208A4EF
:10499F0000000000901A5DA3A3E0FEA3E0FF129FAA
:1049AF00FC901D52E0901C11F0901D4FE0901C12D6
:1049BF00F0901D50E0901C13F0901D51E0901C14CE
:1049CF00F0901D53E0024AD1E4901A61F0901A6101
:1049DF00E0FFC394065005126C2080F1901C11E08B
:1049EF00FFE4FCFDFE7B107A27F9F81206E7C004FE
:1049FF00C005C006C007901C10E0FFE4FCFDFE7B65
:104A0F00A07A867901F81206E7D003D002D001D040
:104A1F0000EF2B126B98C004C005C006C007126BC5
:104A2F00FDD003D002D001D000EF2B126B98C00441
:104A3F00C005C006C007126C0FD003D002D001D042
:104A4F0000126B64126BBF901A5DE0FCA3E0FDA334
:104A5F00E0FEA3E0FFE41203BE901C011208989041
:104A6F001A5DA3A3E0FFA3E0901A62CFF0A3EF12A9
:104A7F006C5BE4FCFD7BA07A867901F812A59DEFB3
:104A8F002430901C10F0901A62E0FAA3E0FB7C2710
:104A9F007D10FF126BED901C11F07C037DE8126B03
:104AAF00EBA3F0901A62A3E07C007D64FF126BED24
:104ABF00901C13F07C007D0A126BEBA3126C5B123F
:094ACF006BF2901C15F0E4A3F059
:014AD80022BB
:10B19E00E4FF1205DAB43A04EF04FF22126C530FE7
:06B1AE00EFB47DEE7F000E
:01B1B4002278
:10A43600E4FE126C4FEF643E601174D52EF582E493
:10A44600341BF583EFF00EEEB40AE7E4FE126C4F10
:10A45600EFB42C047D0180027D00EFB43A047C0148
:10A4660080027C00EC4D701174EC2EF582E4341BF6
:09A47600F583EFF00EEEB40AD4F8
:01A47F0022BA
:0B525700901A59EBF0A3EAF0A3E9F075
:10526200AF058FF0126BAA126BB1FF126BA7EFB4EE
:1052720040047E0180027E00EFB42F047F01800291
:105282007F00EF4E6020E4901A5CF0126C419407AC
:105292005014126BB1FE74E22FF582E4341B126BD0
:1052A200A3126C4880E5E4901A5CF0126C419408F9
:1052B2005014126BB1FE74CB2FF582E4341B126BC7
:1052C200A3126C4880E5901BD2E0901C05126BA6DD
:1052D200E4901A5CF0126C4194095014126BB1FE06
:1052E20074BD2FF582E4341B126BA3126C4880E567
:1052F200901BC5E0901C00F0126BB1FF901BE112F5
:105302006BA6EF645F70030253BD901C011208A4E8
:1053120000000000901A59E0FBA3E0FAA3E0F99024
:1053220000031205F3642F60030253BD901A5CF070
:10533200126C4194035014126BB1FE74062FF58265
:10534200E4341C126BA3126C4880E5126BA7E49044
:105352001A5CF0126C4194035014126BB1FE741A71
:105362002FF582E4341C126BA3126C4880E512996B
:105372008E126BB1642F70439000011205F36441E9
:1053820070399000021205F3643D702F75F001121E
:105392006BAB126BA7126BA7E4901A5CF0126C4114
:1053A20094065014126BB1FE74102FF582E4341C73
:0B53B200126BA3126C4880E512493F0B
:0153BD0022CD
:10978300126C6512A4367A04790412B19E901A58A9
:10979300EFF07002FF22901A58E0FD2404F582E4F2
:1097A3003404F583E024D9603224F8602124F56081
:1097B3002D24FD601414602924FE601724E0601B2F
:1097C300243F7020126C65800D126C358008126C7A
:1097D300358003126C35125257800C7F02227F03AF
:0997E300227F04227F05227F0190
:0197EC00225A
:10A20B00901678E07015FF126500E4FF12A25490CF
:10A21B001BDFEEF0A3EFF0E4FF802230032A7F0177
:10A22B001265007F0112A254901AD2E0FCA3E0FD4C
:10A23B0012A85C901BDFEEF0A3EFF07F01127B44C2
:10A24B00901BC9EEF0A3EFF022128DBD901BC7EE51
:05A25B00F0A3EFF0226A
:10AB72001293F8121A57BF0102800F126C65E4FD9E
:10AB8200125524129783EFB4010A12A20B12661E09
:0CAB92007F01800512661EE4FF12754969
:01AB9E002294
:10A0B100901A85E0FBA3E0FAA3E0F9901DBFE0FF51
:10A0C10004F08F8275830022901A85E0FBA3E0FAE9
:10A0D100A3E0F9901DBFE0FE04F08E82758300EFCE
:10A0E100020632F0901A85E0FBA3E0FAA3E0F92220
:10A0F100901A8AE02404F582E43400F583E022EB2F
:08A10100F0A3EAF0A3E9F0224B
:10A55900901A8B12A100EDD394004037901A8B12F8
:10A56900A0B4742D120632EDC3940AED500B2430B9
:10A57900FF901A8B12A0E8801775F00A842430FF27
:10A58900901A8B12A0CCED75F00A84E5F02430FF07
:04A5990012A0D42216
:09A6EB00901A8B12A100A3EDF0FE
:10A6F400A3F0901A8EE02406FFE433FEA3E0FDC32A
:10A704009FEE6480F8748098501B74042D12A0F797
:10A71400C313FF64206006901A8B12A0CC901A8F8A
:05A72400E004F080CD0F
:01A72900220D
:09552400901A8512A100A3EDF01C
:10552D00E4901DBF12A0E47D0712A6EB12A0E5903A
:10553D00001112567A12A0B1743E120632E4FD1219
:10554D00A6EB12A0E590000A12567A901A8A740DF5
:10555D00F0E4FC12A0F120E03C12A0B1742C120674
:10556D0032901A8AE004F0E0FD12A6EB901A8AE060
:10557D00240612A0E412A0F1541EFFC313FD12A5C0
:10558D005912A0F130E70812A0B1742A1206320C9C
:10559D00EC640870BE901A88E06401704B90166838
:1055AD00E06401704312A0B1742C120632E4901A1B
:1055BD0089F0901A89E0FFC39406501974562FF59F
:1055CD0082E43416F583E0FF600B12A0C9901A89AE
:1055DD00E004F080DD12A0E590165DE0FD12A55906
:1055ED0012A0B1742A12063212A0B1743A12063208
:1055FD00901A8AE02403F0E0901A89F0901A89E05D
:10560D00FFFDD3900691E09D900690E0940040251B
:10561D0074042F12A0F7FF12A0C9901DBFE0D39400
:10562D00BE400A12A0B1747E1206328008901A890B
:10563D00E004F080C7901DBFE024FFFFE434FFFEBF
:10564D0012A0E58F828E831205F3901DBFB40D025B
:10565D00800B12A0BF740D120632901DBF12A0BF99
:0C566D00740A12063212A0BCE4120632CD
:0C56790022E0541EFFC313FD12A55922AD
:0AB40900740129F9E43AFA0205DAA9
:10B2C000EF540FFFD39409EF50042430FF222437AA
:02B2D000FF225B
:10A8200012B409FEE4FF12B409FD642A6008ED6E5B
:10A83000FE0FEFB47EF012B409FD12B409FCEEC4B1
:10A84000540FFF12B2C0EF6D60037F0022AF0612FB
:0BA85000B2C0EF6C60037F00227F01AC
:01A85B0022DA
:10AFB8007B017A1879D112A820EF7002FF227B0159
:0FAFC8007A18795112A820EF7002FF227F012220
:06B4660048454C4C4F006C
:103262004A1B45000000000000000000004D1B2D1D
:10327200000000000000000000000000004F1B1EC4
:103282000000000000000000000000000000004FED
:103292001B0A000000000000000000000000000007
:1032A20000421B3A0000421B030000421B050000C3
:1032B200471AD400000000000000431AF600000084
:1032C2004A1AF9000000000000000000004A1AE853
:0A32D20000000000000000000000F2
:103ED200901A58E0FBA3E0FAA3E0F98F8275830001
:103EE2000205F3EF2BFFEE3AFEED39FDEC38FCA8AC
:103EF20004A905AA06AB07E075F00AA4FFE4FCFDDD
:103F0200EB2FFBEA35F0FAED39F9EC38F8A3E0FFD4
:103F1200E4FEEB2FFFEE3AFEED39FDEC38FC22EB2E
:103F22002430F07B0AE4FAF9F8901A64E0FCA3E08A
:103F3200FDA3E0FEA3E0FF22FD74452EF582E434EA
:103F42001BF583EDF00E0F74452EF582E4341BF55C
:103F52008322E0FF901A5BE0FE04F0742D2EF582BE
:103F6200E4341BF58322E024D0FFE434FFFE7C001E
:103F72007D0A020654EBF0A3EAF0A3E9F0E4221270
:103F82000772E47B0AFAF9F8020772E024D075F0AE
:103F92000AA4FFA3E024D02F22901A5DE0FFE4FCE4
:103FA200FDFE22901A58E0FBA3E0FAA3E0F9A3E099
:103FB200F58222E0FE04F0741E2EF582E4341BF535
:103FC2008322120772E4FB7A01F9F822F0A3F0A32C
:103FD200F0A3F0A3F022AA06AB07E024D0FFE4345A
:103FE200FFFE7D64120654EF2BFFEE3AFE22901A7A
:103FF20069E0FAA3E0FB7C017D90FFAE0212066647
:10400200ED4C22E024D0FDEC34FFCD2FFFED3E221B
:10401200740A2FF582E4341BF583227B017A187926
:10402200D122901A69E0FEA3E0FF7C007D641206B3
:1040320066ED4C22901A5BE0FF04F0742D2F223EB5
:10404200F583EDF0901A59E004F022F0EFF5827555
:104052008300A3227B64FAF9F80206E7901A58E07B
:10406200FEA3E0FF22E0F8A3E0F9A3E0FAA3E0FB5D
:1040720022E4901A58F0A3F022F0901A5BE004F0C8
:1040820022D3901ADDE09F901ADCE02224D0FEE4D5
:1040920034FFF0A3CEF022F582E433F5830205F378
:1040A2007BE87A03F9F80206E7901A58E004F02256
:109B2000901709E0605C123FC7901B40123F2E1255
:109B30003FC4123FC4120772AD077F007EFE12AF12
:109B4000F5123FC7901B40123F2E123FC4120772FE
:109B5000AD077F017EFE12AFF5123FC7901B40128A
:109B60003F2E120772AD077F027EFE12AFF5901BEB
:109B700040E0FCA3A3A3E0FFE4AD077F037EFE1259
:039B8000AFF5221C
:10AB9F00901B401208A400000000E4FDFF12ABC49C
:10ABAF007F0112ABC47F027EFE12AFF5E4FD7F037F
:0DABBF007EFE02AFF57EFE12AFF5E4FD2232
:107E6100901B19E0700F04F0901B3C1208A4000055
:107E71000000027EE4901A9B7401F0A3741AF0A32F
:107E810074E8F0A37401F0A3741BF0A3741EF0A3B3
:107E91007401F0A3741BF0A3740AF07B017A1A79C0
:107EA100F9129E881203FC901B3C120898901B400B
:107EB100123F2E901B3C124067EF2B123F16A3126C
:107EC10008987F007E657DCD7C1D901B4012406728
:107ED100D3120828400A901B401208A40000000099
:107EE100129B20E4FF741E2F123FBCE0FE74F92F99
:107EF100F582E4341AF583EEF00FEFB409E7E4FFFD
:107F0100124012E0FE74E82FF582E4341AF583EE94
:087F1100F00FEFB40AEA7F0152
:017F19002245
:107FD200E4901B19F0901709E0700D901B401208F5
:107FE200A4000000000280697F007EFE12B04BBF39
:107FF200FF0612AB9F0280697F01128074FBFA793F
:1080020001F81206E7C004C005C006C0077F0012CF
:108012008074FBFAF978011206E7D003D002D0018E
:10802200D000EF2B123F16C004C005C006C0077F68
:108032000212807EFB7A01F9F81206E7D003D00221
:10804200D001D000EF2B123F16C004C005C006C0FD
:10805200077F0312807ED003D002D001D000123FEE
:1080620014901B40120898901B3C1208A4000000B8
:1080720000227EFE12B04BE4FCFDFE227EFE12B018
:068082004BE4FCFDFE22B0
:0378CC00901A58B7
:1078CF00123F77FFFE901A58123ED56009B42C0173
:1078DF000E0FEEB401EF901A58123ED5FD642C70C6
:1078EF00030279A0E4FEEE2445123F4CEDF00E0F9B
:1078FF00123EDD123F3A743AF00E123EDDFD123F9A
:10790F0049EDF00E0F123EDD123F3A743AF00E12AF
:10791F003EDDFD123F49EDF00E0F123EDDFD123F31
:10792F0049EDF074452408123F4CE4F090167AE0CC
:10793F00FFC3940D901B45E0501824D075F00AA496
:10794F00FEA3E024D02EFEC3740D9FFFC3EE9FFC59
:10795F00800C123F8EFF90167AE024F32FFCECC3BD
:10796F009418400474E82CFCECFF901B08E4F0A37F
:10797F00EFF075F00A842430901B45F0EC75F00A97
:10798F0084E5F02430A3F0901B4B123F8D901B0722
:01799F00F0F7
:0179A00022C4
:0340B200901A5809
:1040B500123F77901A66123FCEFF901A5BF0901A66
:1040C50058123ED56011B42C06901A5BE004F00F2F
:1040D500901A5BE0B409E7901A58123ED5FE642C9D
:1040E500700302424A901A5CEE12404D1205F3909D
:1040F5001A5D12404DA31205F3901A5E12404DA3AE
:10410500A31205F3901A5FF0EF2404124099901A58
:1041150060F074052F124099901A61F0FB901A5CBB
:10412500123F8D901A67F0901A5E123F8D901A68B3
:10413500F0901A60123F68EB124006CF24D0CF34BE
:1041450007901A69F0A3EFF0C3901B09E09408905B
:104155001B08E0940040030241F4901A67E004F064
:10416500E024E260261460401460602403600302CA
:1041750041F4123FF06078EB54037005124024704F
:104185006E901A68E0640270668017123FF0600A4C
:10419500EB5403705A1240246055901A68E064028B
:1041A500704D901A6704801C901A68E0FF640460E3
:1041B5000EEF64066009EF64096004EFB40B3090FC
:1041C5001A677401F0A3E004F08024901A67740163
:1041D500F0A3E004F0E0C3940D4014901A6AE004E3
:1041E500F07006901A69E004F0901A687401F0E422
:1041F500901A5BF0901A69E0FEA3E0FF129FFC9015
:104205001D4F123F54EFF0901D50123F54EFF090A8
:104215001D51123F54EFF0901D53123F54EFF01211
:104225004036123F60742DF0901A6812424B1240CE
:1042350036123F60742DF0901A6712424B124036C9
:05424500123F60E4F0EF
:10424A0022E0FF7E00129FFC901D51E0FF901A5B56
:10425A00E0FE04F0742D2EF582E4341BF583EFF0B2
:10426A00901D53E0FF901A5BE0FE04F0742D2EF5CA
:09427A0082E4341BF583EFF0220D
:10AD2100901679E0B40104D2A78002C2A7E4901B77
:10AD31003AF0A3F0901AD2F0A3F0C203127FD2E44A
:07AD4100901B07F0C2052280
:03ABCC00901A5884
:10ABCF00123F77FFFE901A58123ED56009B42C0140
:10ABDF000E0FEEB402EF901A58123ED5B44105D2C3
:08ABEF00037F0122C2037F0075
:01ABF700223B
:037F1A00901A5862
:107F1D00123F77FFA3F0123ED26011B42C06901AD7
:107F2D005BE004F00F901A5BE0B403EAE4901A5B97
:107F3D00F0123FB57430F0E4FE123ED2FD901A5BA4
:107F4D00E0FC04F0741E2C123FBCEDF00F0EEEB4ED
:107F5D0009E7123ED2B42C030F80020F0F123ED24E
:107F6D00FE901A5BE0FD04F0741E2D123FBCEEF086
:107F7D00901A5B123FB5E4F00F0F901A5BF0FE12F2
:107F8D003ED2FD901A5BE0FC04F0740A2C124015F1
:107F9D00EDF00F0EEEB40AE7123ED2B42C030F80B3
:107FAD00020F0F123ED2FF901A5BE0FE04F0740A2E
:107FBD002E124015EFF0901A5BE0FF04F012401204
:047FCD00E4F07F015C
:017FD100228D
:03A66700901A58EE
:10A66A00123F77FFFE901A58123ED56009B42C01AA
:10A67A000E0FEEB407EF901A58123ED5901AF6F064
:10A68A000F123EDD901AF7F0E4A3F0901AF7E0B447
:0EA69A002C0C901AF6E0A3F0901AF67430F033
:01A6A800228F
:0B350900901A58EBF0A3EAF0A3E9F0E1
:10351400901A641208A400000000901AD4742D12AA
:103524003FCEA3F0E4A3F0901A5BF0FF123FA51284
:103534003EDFFE600BB42C010F12407CEFB409ECAB
:10354400123FA5123EDFFBB42C12901B447401F011
:10355400901A641208A4000000008050E4901B44F8
:10356400F0EBB42D09E4901A6812407B8006901A9F
:10357400687401F0E4901A5CF0123FA5123EDFFF7C
:10358400642E6035EF24D0FF901A5CE0245DF58250
:10359400E4341AF583EFF0901A5CE00412407BA344
:1035A400E0D3940540D3901B447401F0901AF212B6
:1035B40008A4000000007F0022901A5CE024FE6052
:1035C4001014602814603C24037060123F9B023680
:1035D40078901A5DE075F00AA4FFA3E07C002FFF49
:1035E400EC35F0FE3395E0FDFC023678123F9B1279
:1035F4004056A804A905AA06AB07901A5E123EF924
:10360400023678901A5E123F9E124056C004C005DE
:10361400C006C007123F9B1240A2D003D002D001C3
:10362400D000901A5F123EE5023678901A5E123F7F
:103634009E1240A2C004C005C006C007123F9B7B77
:10364400107A27F9F81206E7D003D002D001D0008F
:10365400EF2B123F16C004C005C006C007901A5FC6
:10366400123F9E124056D003D002D001D000901ACF
:1036740060123EE5901A64120898901A68E0901A55
:10368400647008123F2E1208048003123F2E901A11
:10369400F2120898123F2BE41203BE7BA17AF87948
:1036A40051784012018E1203FC901A641208987B20
:1036B400A07A8679017800123F2B123F81EB2430E7
:1036C400901AD4F0E47B107A27123F29123F81EB41
:1036D4002430901AD5F0E47BE87A03123F29123F94
:1036E40081EB2430901AD6F07B64123F27123F817D
:1036F400901AD7123F21123F81901AD8123F2112FB
:103704000772EB2430901AD9F0E4A3F0901A68E021
:0A3714007006901AD4742DF07F01A6
:01371E002288
:106C6C00C3901ADDE0940A901ADCE0940050037F84
:106C7C00002290170CE0FEA3E07A002400FFEA3E0D
:106C8C00FE1240839E4007E4F0A3F07F0222200313
:106C9C00037F0022901B03E07002A3E07002FF222E
:106CAC002004037F0022901B3AE0FEA3E0FF901A21
:106CBC00D2E0FAA3E0FBD39FEA9E4006EB9FFFEAEB
:106CCC008013901AD2E0FEA3E0FFC3901B3BE09F21
:106CDC00FF901B3AE09E901A5AF0A3EFF0901A5ACC
:106CEC00E0FEA3E0FFD394B4EE9400401074689FD0
:106CFC00901A59F074019E901A58F0800F901A5AFD
:106D0C00E0FFA3E0901A58CFF0A3EFF0D3901A59FC
:106D1C00E09419901A58E094004006E4901ADC8034
:106D2C002F901652E024FE600F14601014601114A2
:106D3C00601224047D14800E7D28800A7D3C800620
:106D4C007D5A80027D78EDFF12408394004016E45A
:106D5C00F0A3F0901AD2E0FFA3E0901B3ACFF0A37F
:076D6C00EFF07F01227F0020
:016D730022FD
:0385E500901A5891
:1085E800123F77FFFE901A58123ED56009B42C014D
:1085F8000E0FEEB407EF901A58123ED5B42C09E4CA
:10860800901B03123FD0FF22E4FE901A58123ED569
:10861800FD642E6010745B2EF582E4341AF583ED48
:10862800F00F0E80E5EE24FD600C047024901A5BB8
:10863800123F68A3800F901A5C123F68901A5B1271
:108648003FD8901A5D124005901B03F0A3EFF0800D
:108658000A901A5BE0901B0312408E901B03E0FC0B
:10866800A3E0FDE41203C37B567A0E79ED783F123E
:0F867800018E1203FC901B05EEF0A3EFF07F00C4
:0186870022D0
:03854000901A5836
:10854300123F77FFFE901A58123ED56009B42C01F2
:108553000E0FEEB408EF901A58123ED5B42C05C294
:10856300047F0022E4FE901A58123ED5FD642E606B
:1085730010745B2EF582E4341AF583EDF00F0E8050
:10858300E5EE24FD600C047024901A5B123F68A38F
:10859300800F901A5C123F68901A5B123FD8901AB2
:1085A3005D124005901AD2F0A3EFF0800A901A5B97
:1085B300E0901AD212408ED204901AD2E0FEA3E0C9
:1085C300FF129FFC901D50E0901B1AF0901D51E08C
:1085D300901B1BF0901D53E0901B1CF0E4A3F07F55
:0185E3000196
:0185E4002274
:108C0300200503028C97C20512407312405E241E96
:108C1300F582741B3EF583E0FD746E2FF5827416A6
:108C230012404170031240AB901A58E07004A3E065
:108C3300640870D712407312405E240AF582741BD5
:108C43003EF583E0FD747E2FF58274161240417069
:108C5300031240AB901A58E07004A3E0640970D784
:108C630012A89812A3EB7BFF7AB4796612A9EB12D0
:108C7300407312405EC3EE94025019744E2FF58276
:108C830074163EF583E0FF12B4401240467003129F
:048C930040AB80DE94
:018C970022BA
:1091FE0012AFB8EF6401707A12401D12ABCC20038F
:10920E0003C2052212401D1278CC12401D1240B22C
:10921E0012401D127F1A12401D1285E512401D12BA
:10922E008540EF24FF92047B017A1879511235099B
:10923E007B017A18795112A667122949128C039074
:10924E001678E06401702B901653E0600DA3E0FFDA
:10925E00901B07E0B5070312AAE4E4901ADBF09026
:10926E001652E0600D126C6C901ADBEFF060031278
:03927E00AAE4223D
:104DEF00E4FBFA7842E0FCA3E0FDA3E0FEA3E0FFC2
:104DFF0022E4FBFA7841120297E4FBFAF9783F12AA
:104E0F00009D1203FC901A97EEF0A3EFF0901A9703
:104E1F00E0FEA3E0FF7C007D0A120666EF2430FF60
:104E2F00901A94E0FBA3E0FAA3E0F9EF12062090AA
:104E3F001A97E0FEA3E0FF7C007D0A120666ED24C0
:104E4F0030FF901A94E0FBA3E0FAA3E0F922E024EC
:104E5F00D0FDE434FFFC0203C37F007E407D1C7C49
:104E6F0046E0F8A3E0F9A3E0FAA3E0FB227401F017
:104E7F00A3741BF0A3740AF0A37401F0A3741BF0C6
:104E8F0074CBA3F0A37401F0A3227B0104F0A374ED
:104E9F0016F0A3747EF0A3EBF0A3741BF0A374CBF6
:104EAF00F0A3EBF0A3741BF0A374BDF0227920786C
:104EBF0041E4FBFA02018EE4FBFA79B412009D90F3
:104ECF001AB3020898901777E0FEA3E07C00240045
:104EDF00FDEC3EFCE40203C374F62FF582E4341BB1
:104EEF00F58322EBF0A3EAF0A3E9F022EC1203BE64
:104EFF00901A5F020898901A97E0FCA3E0FD221227
:104F0F00018E901AC0020898F0901D53E0901BFB81
:104F1F00F0E4A3F0227BCD7ACC79CC783D02018EE0
:104F2F007B0A7AD77923783C02018E1203FCE402C4
:104F3F0003BE8F827583001205F3FE22E4FBFAF99C
:104F4F00784022901D83120898901D8B22F0901D9F
:104F5F004FE0901BF7F0227A0F79497840020297C1
:064F6F00901A630208988D
:10AEF800901AC41208987FDA7E0F7D497C40901A18
:10AF0800C4124E7012018EE4FBFA793478430202BF
:01AF180097A1
:06763000901AA4124EF2B4
:10763600E4FF901AA4124E54124F4174AF2FF582F4
:10764600E4341AF583EEF00FEFB408E6901AB1129F
:107656004E5D124EBCC004C005C006C007901AB2EB
:10766600124E5DD003D002D001D00012009DC0049E
:10767600C005C006C007901AB4124E5D124F24D042
:1076860003D002D001D00012009DC004C005C00680
:10769600C007901AB5124E5D124F2FD003D002D0FC
:1076A60001D00012009D901AAB120898901AAF12E2
:1076B6004E5D124EBCC004C005C006C007901AB08D
:1076C600124E5DD003D002D001D00012009DC0043E
:1076D600C005C006C0077970901AAB124DEF1202B2
:1076E60097D003D002D001D00012009D901AA712A5
:1076F6000898901AB6E0B4530F901AA7124DF412D8
:0E77060003AD901AA7120898901AA7124DF41E
:017714002252
:06695100901AA4124EF2A0
:10695700E4FF901AA4124E54124F4174AF2FF582E0
:10696700E4341AF583EEF00FEFB409E6901AB21289
:106977004E5D124EBCC004C005C006C007901AB3D6
:10698700124E5DD003D002D001D00012009DC0048A
:10699700C005C006C007901AB5124E5D124F24D02D
:1069A70003D002D001D00012009DC004C005C0066C
:1069B700C007901AB6124E5D124F2FD003D002D0E7
:1069C70001D00012009D901AAB120898901AB012CD
:1069D7004E5D124EBCC004C005C006C007901AAF7A
:1069E700124E5D79C87842124EC0D003D002D00152
:1069F700D00012009DC004C005C006C007901AB1A0
:106A0700124E5DD003D002D001D00012009DC00409
:106A1700C005C006C007E4FBFA79707842901AAB4C
:106A2700124DF4120297D003D002D001D000120009
:106A37009D901AA7120898901AB7E0B4570F901AAA
:106A4700A7124DF41203AD901AA7120898901AA72F
:036A5700124DF4E9
:016A5A002219
:105A660012AEF8901AB4120898901AAC124DF412AD
:105A7600AEF8901AB8120898901AB8124E70901A8A
:105A8600B4124DF4120099901ABC120898901AB0EC
:105A9600124DF412AEF8C004C005C006C007901A35
:105AA600A8124DF412AEF8D003D002D001D00012E5
:105AB6000099124F4B120297124CC5C004C005C084
:105AC60006C007901AC81208A440000000D007D0EC
:105AD60006D005D0041253BEC004C005C006C007D8
:105AE600901AB8124DF4124CAFC004C005C006C0DF
:105AF60007901AB4124DF4124CAFD003D002D00165
:105B0600D00012018ED003D002D001D00012018E37
:105B1600C004C005C006C007124F4B901ABC124DF8
:105B2600F4120297124CC5C004C005C006C0079007
:105B36001AC81208A440000000D007D006D005D02D
:105B4600041253BED003D002D001D00012009D1221
:105B5600834712A8D3124F4B124F0E901AC0124D04
:105B6600F47B197A5179C77845124F0E901AC012F4
:105B76004E6812018EE4FBFAF9783F12009D12720C
:105B860084E4FBFA79207841120297124F11901A99
:045B9600C0124DF4F8
:015B9A0022E8
:109E8800127630901D8F120898901A9B124E541219
:109E98006951901D8B120898901A9E124E54127692
:109EA80030901D87120898901AA1124E54126951C9
:109EB800124F52124DF4901AA8120898901D87124A
:109EC8004DF4901AAC120898901D83124DF4901A14
:0D9ED800B0120898901D8F124DF4025A66CA
:05650000901A94EFF079
:106505007009901A9B124E99126601901A94E0B484
:106515000118901A9B124E7C124EB47B017A1B799E
:106525001E129E88901D93120898901A94E0B4024A
:1065350024901A9B7401F0A37416F0747E124E9188
:10654500741BF0A3741E124E92741BF0A3740AF010
:106555007B01126601E4901A97F0901A97E0FFC349
:106565009408500D124EE7E4F0901A97E004F0807D
:10657500E9901D93124E681203345028901D931212
:106585004DF412660F901BF6742A124F5CA3742EFD
:10659500F0901D50E0901BF9F0901D51E0901BFA12
:1065A500124F172279C8901D93124DEF12029712C0
:1065B500660F901D52E0901BF6124F5C901D50E047
:1065C500901BF8F0901D51E0901BF9F0A3742E126A
:1065D5004F17901A97F0901A97E0FFC39403501B3A
:1065E500124EE7E0B43014901A97E024F6124EEA02
:0B65F5007420F0901A97E004F080DBA7
:10660000227A16796E129E88901D93120898221293
:0E66100003FC901A95EEF0A3EFF0129FFC220F
:1090F700AB07AA06A905A804901AAB124DF41200F3
:1091070099C004C005C006C007901AA7124E7090F8
:109117001AAF124DF4120099901ABB120898D00793
:10912700D006D005D004128906124ECEE4FFFE7D8C
:10913700347C43901AB3124E7012018E1203AD7B2A
:10914700D8124F66124ECE901AB3124DF4784212CF
:109157004EC6E4FFFEFDFC901AB3124E70120334A4
:10916700500B901AB3124DF47843124EC6901AB3AF
:03917700124DF4A2
:01917A0022D2
:109EE500127630901D8F120898901A9A124E5412BD
:109EF5006951901D8B120898901A9D124E54127636
:109F050030901D87120898901AA0124E541269516C
:109F1500124F52124DF4901AA7120898901D8712ED
:109F25004DF4901AAB120898901D83124DF4901AB7
:0D9F3500AF120898901D8F124DF40290F7A6
:058DBD00901A94EFF094
:108DC2007018901A9A124E997A16796E129EE512BE
:108DD20003FC901A95EEF0A3EFF0901A94E0B40120
:108DE2000C901A9A124E7C124EB4128E35901A942E
:108DF200E0B40223901A9A7401F0A3741BF0A374D6
:108E02000A124E927416F0A3746E124E927416F0F9
:108E1200A3747EF0128E35D3901A96E09467901A5E
:108E220095E094014004E4F0A3F0901A95E0FEA3CB
:028E3200E0FF5F
:108E3400227B017A1B791E129EE51203FC901A957F
:068E4400EEF0A3EFF022A6
:10004600901A5B120898901A5F124DF4A3124E7024
:100056001203345004E4FEFF22901A5F124E70A37E
:10006600124DF4120099901A5B124E7012029712FA
:1000760063FEE4FBFA7934784312018E7BDA124F81
:05008600661203FC22DC
:057B4400901A58EFF05B
:107B4900702B901D93124DF4124F3AC004C005C01A
:107B590006C007124ED4124EFF901C01124DF412AA
:107B69004F6FD007D006D005D004127C04901A5864
:107B7900E0B4012E901D93124DF4124F3AC004C087
:107B890005C006C007901AF2124DF4124EFB901C64
:107B990001124DF4124F6FD007D006D005D0041250
:107BA9007C04901A58E064027033901D93124DF4CE
:107BB900124F3AC004C005C006C007901AF2124D10
:107BC900F4124EFB124ED4124F6FD007D006D005D7
:107BD900D004120046901A59EEF0A3EFF0D3901A90
:107BE9005AE0945A901A59E094004006E4F0A374BC
:0A7BF9005AF0901A59E0FEA3E0FFD5
:0D7C030022120046901A59EEF0A3EFF02275
:10A85C00901A94ECF0A3EDF0C3901AD3E09F901AE9
:10A86C00D2E09E5010901A94E0FCA3E0FDC3EF9D43
:10A87C00FFEE9CFE22C3901A95E09FFF901A94E085
:0CA88C009EFEC374689FFF74019EFE22B4
:06568500901A94124EF28F
:10568B00A3EEF0A3EFF0901779E0FF6003025778D9
:10569B00124F05C39417EC94005007124E51744EE1
:1056AB00804AC3ED9444EC94005007124E51744E53
:1056BB00801EC3ED9471EC94005007124E5174454B
:1056CB00802AC3ED949EEC94005013124E517453E8
:1056DB00120620124E519000017445025775C3ED0E
:1056EB0094CBEC94005013124E51745312062012AB
:1056FB004E519000017420025775C3ED94F8EC9451
:10570B00005007124E517453802AC3ED9425EC942C
:10571B00015013124E517457120620124E51900025
:10572B000174200257A7C3ED9452EC94015013124D
:10573B004E51744E120620124E51900001745702B6
:10574B0057A7C3ED9468EC9401124E51500F744E51
:10575B00120620124E519000017420800D742D12F0
:10576B000620124E51900001742D0257A7EF6401D1
:10577B007012124F05E41203C379F0124E00900021
:10578B0001EF8018901779E06402701A124F05E44C
:10579B001203C37920124E00900001EF12063290D3
:1057AB000002E4020632124E51742D120620124EE4
:1057BB0051900001742D120632900002E412063251
:0957CB009017797401F012A898FE
:0157D40022B2
:107CDC005620002D2D2D2E2D00404320002D2D2D16
:107CEC002D2E2D00685061002C00475053204F461C
:107CFC004620004B6D0047505320576169742E2E5F
:107D0C002E2000533A0020004B6D202020002D2DFA
:107D1C002D00244130322C562C00576169742E00F2
:107D2C000D0A00244130322C412C0050302D3E00E5
:107D3C004B6D20002D2D005350443A004B6D2020EC
:107D4C0000414C543A004D2C00202D2D2D2D2D0092
:107D5C00244130322C4F2C00475053204F464600C4
:107D6C005350443A2D2D2D2D2D2D4B6D6820204632
:107D7C00697865642000616C743A2D2D2D2D2D2DA4
:107D8C004D002D2D2D2D202D2D202D2D202000248E
:067D9C004630310D0A0023
:1020D900901AA074FFF0A3747CF074F4A3F07B0150
:1020E9007A04790422E4FAF9F8901A78E0FCA3E07A
:1020F900FDA3E0FEA3E0FF12A59DE47B0AFAF9F82F
:1021090012A59DEB2430901A75FFE0FBA3E0FAA31A
:10211900E0F9EF020620E0901A5AFFE0FE04F0749D
:10212900622EF582E43405F58322120620901A7690
:10213900E475F0010206BBEEF0A3EFF0901A8AE015
:10214900FCA3E0FDA3E0FEA3E0FF22901A787D0A3C
:10215900E0FEA3E0FF7C00020666E4900404F09030
:102169001AA074FFF0A322FBE024D0FFE434FFFEA1
:102179007D0A120654A3E024D0FDEC34FFCD2FFFD5
:10218900ED3E22901A5CE0FEA3E0FFE4FCFD7B64D7
:10219900FAF9F81206E7A804A905AA06AB07901AE6
:1021A9005EE0FEA3E0FFE4FCFDEB2FFFEA3EFEED5F
:1021B90039FDEC38FC22901A75E0FBA3E0FAA3E0A4
:1021C900F9221200267401901AA0F0A37405F0A355
:1021D9007462227B01901A58E0FCA3E0FDA3E0FFA2
:1021E900A3E0901A7ACFF0A3EFF0901A5CE0FFA376
:1021F900E0901A7CCFF0A3EFF0901A5EE0FFA3E025
:10220900901A7ECFF0A3EFF0901A62E0221203BE7B
:102219007B8F7AC27975783D12018EE4FBFA79A039
:10222900784012009DE4FBFA792078411202971256
:1022390003FC901A60EEF0A3EFF07B0122E4FFFEAD
:102249007C41901A8AE0F8A3E0F9A3E0FAA3E0FB45
:10225900227A1C7967901A58E0FCA3E0FDA3E0FFFD
:10226900A3E022EC1203BE7B007A5079C3784702BF
:102279000297E0FCA3E0FDA3E0FEA3E02405FFE450
:102289003EFEE43DFDE43CFCE47B0AFAF9F822EF6A
:10229900F0901A5AE0FF04F074622F22E4FBFA78F6
:1022A9004112018EA804A905AA06AB0722EBF0A3E7
:1022B900EAF0A3E9F0A322120099901A8A02089879
:1022C900ED2430FF901A7522120898901A58E0FEF2
:1022D900A3E0FFE4FCFD22F583E0FDAC070F746287
:1022E9002C22EF2430FF901A7522AA06AB07E024AE
:1022F900D0FFE434FFFE7D64120654EF2BFFEE3A63
:10230900FE22901AA07401F0A322E0FCA3E0FDECE8
:102319000203C3ED2430FF901A7522EB2FFFEA3E2A
:10232900FEE93DFDE83CFC020898901A7ACFF0A33B
:10233900EFF0901A60E0FFA3E0901A7C22901A7ADD
:10234900CFF0A3EFF0901A5CE0FFA3E0901A7C2293
:1023590074FFF0A3747DF0A3741A22ECF0FEA3EDD0
:10236900F0FF7C007D64120666EF22E024D0FFE4D2
:1023790034FFFE7C007D0A020654120620901A766C
:10238900227C007D0A020666EFF0901D51E0FF22D3
:10239900EFF0901D53E0FF227B407A42790FF8025B
:1023A90006E7901A62E0901A7CF07B01227401F032
:1023B900A3741BF0A3741A221202970203FC1206DB
:1023C90020901A76227B107A27F9F80206E7747DA5
:0523D900F0A3742C22AA
:06B46C001220E702A90E08
:0950E800901A751222B612089804
:1050F100E4FFFE7D347C43901A7C12224E12009D07
:105101001222C3E4FBFA79A078411221451223C18E
:10511100901A80122140C004C005C006C007901A31
:105121008012231379A01222A5D007D006D005D072
:10513100041222C0E4FBFAF978401221451223C17E
:10514100901A82122140C004C005C006C007901AFF
:1051510082122313E4FBFAF978401222AAD007D075
:1051610006D005D0041222C07D4012224612018EC3
:105171001203FC901A84EEF0A3EFF0E4FFFE7DB47D
:105181007C42901A7812224E12009D1222C3E4FB37
:10519100FA792078411221451223C1901A861221F1
:1051A10040C004C005C006C007901A8612231379B7
:1051B100201222A5D007D006D005D0041222C01299
:1051C10021451203FC901A88EEF0A3EFF0A31221FF
:1051D10048C004C005C006C007901A8812231312E4
:1051E10022ADD007D006D005D0041222C07DC01256
:1051F100224612018E1203FC901A80A3E02441FD85
:10520100901A751221C2ED120620901A86A3E0248D
:1052110041FD901A751221C2900001ED12063290E3
:105221001A82A3E02430900002120632901A88A359
:10523100E02430900003120632901A84A3E0244146
:10524100900004120632EF244190000512063290BC
:065251000006E402063233
:10813900901A751222B61223642430901A751221EE
:10814900121221BF1205DAB430057420120620126A
:10815900213612215412238A12231C1221131221AF
:108169003612215412231C1221131221361221BF57
:108179007440122133901A7A122157EF12231D12DB
:108189002113122136901A7A12215712231C122117
:10819900131221361221BF7427122133901A7C122F
:1081A9002157EF12231D122113122136901A7C1226
:1081B900215712231C1221131221361221BF7422B6
:1081C9001221331221BF7420122133901A7EE0FF4D
:1081D900901A751221131221361221BFE4020620CA
:10771500901A751222B61208987B807A9679987815
:1077250000901A7812214812A59DEF12210D901A8A
:10773500751221C21205DAB43005742012062090A4
:107745001A761221397B407A42790F78001220F29D
:10775500901A761221397BA07A8679017800122059
:10776500F2901A76122139901A751221C2742E12CE
:1077750023C7122139E47B107A271220F0901A765C
:10778500122139E47BE87A031220F0901A7612214F
:10779500397B641220EE901A761221397B0A122069
:1077A500EE901A76122139122291901A78122148F8
:1077B500122109901A76122139901A751221C27474
:1077C500401223C7122139901A751221C274201252
:1077D50023C7122139901A7CE012210F901A7612D4
:0C77E5002139901A751221C2E40206201E
:10745F00901A751222B61223641222CA12211390A7
:10746F001A751221C21205DAB430057420120620E3
:10747F00901A76122139901A7812215712238A12F4
:10748F0022C9122113901A76122139901A781221DB
:10749F00571222C9122113901A76122139901A7598
:1074AF001221C27440122383122139901A7A1221A9
:1074BF0057EF1222CA122113901A76122139901AFD
:1074CF007A1221571222C9122113901A76122139DA
:1074DF00901A751221C2742E122383122139901A19
:1074EF007C122157EF1222CA122113901A76122101
:1074FF0039901A7C1221571222C9122113901A7631
:10750F00122139901A751221C27427122383122166
:10751F0039901A751221C2742012238312213990C7
:10752F001A7EE0FF901A75122113901A76122139E4
:0A753F00901A751221C2E402062022
:105B9B00901A751222B6ECF0A3EDF0901A7FE02468
:105BAB0032F0901A7EE03400F0D3A3E09463901AA5
:105BBB007EE09400400E901A7DE004F07006901A7F
:105BCB007CE004F0D3901A7DE09463901A7CE0940F
:105BDB00004012E4F0A3F0901A7BE004F070069002
:105BEB001A7AE004F0D3901A7BE0943B901A7AE097
:105BFB0094004012E4F0A3F0901A79E004F07006E0
:105C0B00901A78E004F0901A81E0901A78700612DE
:105C1B002157EF801B7D641221591222EB122113A5
:105C2B00901A76122139901A7812215712238AED85
:105C3B001222EC122113901A76122139901A781233
:105C4B002157ED1222EC122113901A761221399062
:105C5B001A7A1221571222EB122113901A76122163
:105C6B0039901A7A122157ED1222EC122113901A45
:105C7B0076122139901A751221C2742E12062090B9
:105C8B001A76122139901A7C1221571222EB12210B
:105C9B0013901A76122139901A7C122157ED122289
:105CAB00EC122113901A76122139901A80E0FF9092
:105CBB001A75122113901A76122139901A75122126
:055CCB00C2E402062006
:10294900901B1F122374901B1E1222F3901B20123E
:10295900217F901A58F0A3EFF0901B21122171905A
:102969001A5AF0A3EFF0901B24122171901A5CF00F
:10297900FAA3EFF0901B26122170901A5EF0A3EFD4
:10298900F0901B28E0901A62F0901A73F0AF03AE32
:1029990002E4122196C004C005C006C007901A5A65
:1029A9001222D71223CED003D002D001D000EF2BB0
:1029B900FFEE3A1221B71222911206E7901A63121A
:1029C90022D11223A1C004C005C006C007E47B06BA
:1029D900FAF9F8901A6312214812A59DD003D00282
:1029E900D001D000901A63122324901A6312227B1B
:1029F90012A59D901A63120898901665E0701090C0
:102A09001A631221481223AB7A1C79671277159041
:102A19001665E06402701612218C12221612225ACF
:102A290012233312220C901A7EF01281397A1B7903
:102A39001E1221DC901A80F0E4A3F0125B9B901621
:102A490065E0B401127B0112225A12234612220CAC
:102A5900901A7EF012745F901B0B122374901B0A5C
:102A69001222F3901B0C12217F901A58F0A3EFF059
:102A7900901B0D122171901A5AF0A3EFF0901B10C0
:102A8900122171901A5CF0FAA3EFF0901B12122137
:102A990070901A5EF0A3EFF0901B14E0901A62F0A8
:102AA900901A74F0AF03AE02E4122196C004C00577
:102AB900C006C007901A5A1222D71223CED003D0CB
:102AC90002D001D000EF2BFFEE3A1221B71222916A
:102AD9001206E7901A671222D11223A1C004C00579
:102AE900C006C007E47B06FAF9F8901A6712214874
:102AF90012A59DD003D002D001D000901A671223ED
:102B090024901A6712227B12A59D901A67120898C1
:102B1900901665E07010901A671221481223AB7A5B
:102B29001C793A127715901665E06402701A122121
:102B39008C1222167A1C793A12225E12233312223F
:102B49000C901A7EF01281397A1B790A1221DC90D5
:102B59001A80F0A37401F0125B9B901665E0B40132
:102B6900167B017A1C793A12225E12234612220C34
:102B7900901A7EF012745F901A73E0901A63B44E43
:102B89000812214812226C800912214812226C1263
:102B990003AD901A6B120898901A74E0901A67B4F2
:102BA900450812214812226C800912214812226C10
:102BB9001203AD901A6F1208987B017A1C7926903E
:102BC9001A6F122148901A7C120898901A6B1221D8
:042BD900480250E876
:10002600E4FEEEC39F50151221287420F074632E4F
:0C003600F582E43405F583E4F00E80E66A
:01004200229B
:10A160007F0A900562E4F0A3DFFCE4901A5AF07BCA
:10A1700064FAF9F8901B40122148120772129FFCF2
:10A18000901D5212211FEFF0901D4F12211FEFF072
:10A19000901D5012211FEFF0901D5112211F12220D
:10A1A0009812212B742EF0901D5312211F12229809
:05A1B00012212BE4F078
:01A1B5002287
:1059200020087912907212230B741DF074A21220B9
:10593000E51296AE122168747CF0A374DC1220E6A6
:10594000125A58300F0C7401F0A3741CF0A3748722
:10595000800A74FFF0A3747CF0A374DF1220E612B7
:1059600096AE122168747CF0A374E51220E6125AF8
:1059700058300F0C7401F0A3741CF0A3747C800ADF
:1059800074FFF0A3747CF0A374E91220E61296AEC3
:10599000122168747CF0A374F00259E990068FE03C
:1059A0007023122168747CF0A374F61220E6125A58
:1059B0005F1221CE1220E61296AE122168747CF09E
:1059C000A374FF802420032A122168747DF0A3743D
:1059D000021220E6125A5F1221CE1220E61296AE73
:1059E000122168747CF0A374FF1220E61296AE02B6
:1059F0005A51300362122168747DF0A3740F122093
:105A0000E61296AE12230B741AF0A374F61220E677
:105A10001296AE122168747DF0A374121220E61261
:105A200096AE12A1601221CE1220E61296AE12217D
:105A300068747DF0A374141220E61296AE901AA03A
:105A40003004051223B680031223591220E6129661
:105A5000AE1220D91296AE221296AE901AA0221241
:065A600096AE12A16022C7
:068A3D00901A5A1208987D
:108A43007F0A900562E4F0A3DFFCE4901A5EF090E5
:108A53001A5AE0FCA3E0FDA3A3EC33501BA312229C
:108A63009D12212B742DF0901A5A122148120804DA
:108A7300901A5A120898800C901A5E12229D1221A5
:108A83002B7420F0901A5AA312214D129FFC901DB3
:108A930052E0901A5E122123EFF0901D4FE0FF90F9
:108AA3001A5E122124EFF0901D50E0FF901A5E121F
:108AB3002124122391901A5E122124122399901AD1
:108AC3005E122124EFF0901A5E12229D12212BE4F4
:018AD300F0B2
:018AD400227F
:10A109007D0A900562E4F0A3DDFCE4901A5AF0128E
:10A119009FFC901D52E0FF901A5A122124EFF090F3
