:0300030002B0E95F
:10B0E900C0E0C083C082901D45E4F0A3F0D082D0B7
:04B0F90083D0E032EE
:10AF4B00E4900000F0A3F0901D47F0A3F0C28CC278
:0BAF5B008D758CDCF58AD28CD2A92207
:109BDF00C2A3E4F593F594F591F592F595F596F505
:109BEF00B1F5B2F5B3F5B4F5C9F5CA75968475B28A
:109BFF00429019F2F0C2A67F017E0012B032D2A6B7
:109C0F009019F2E004F0E0C3940240E912B002129E
:109C1F00AC6D12B2AB12AF6612B1A012AD1F12AE85
:0F9C2F00BF12ABD312AB8212B1D012AF4BD2AF78
:019C3E002203
:03000B000281AEC1
:1081AE00C0E0C0F0C083C082C0D075D000C000C097
:1081BE0001C002C003C004C005C006C00712A7FB61
:1081CE00900C7FE004F0900EDAE004F0901135E0B0
:1081DE0004F0900001E004F07006900000E004F05E
:1081EE00901D48E004F07006901D47E004F0D39017
:1081FE001D48E094C7901D47E094004034E4F0A37E
:10820E00F0901D46E004F07006901D45E004F090DD
:10821E0018EBE004F0901A77E004F07006901A76EE
:10822E00E004F0901D4EE004F07006901D4DE00449
:10823E00F0D007D006D005D004D003D002D001D0A4
:0C824E0000D0D0D082D083D0F0D0E0323D
:10A3CA00129BDF901622E0FF7004C2B68002D2B65A
:10A3DA00EFB4010312AB571236E412A259129A587B
:10A3EA00129ABA12A338129B1C12AF8112943BD351
:10A3FA00900001E094C7900000E0940040DFE4F090
:07A40A00A3F012A5E280D6C9
:1060FE00205665723A2000207C20004350552049DE
:10610E00443A2000566F6C746167653A2000205641
:10611E007C200053544152543100555639385F3863
:10612E0036385F3232303433305F4434004E4F43B2
:10613E00414C4C00333133332E39304E0000313266
:10614E003032322E383045005556393800000000B6
:10615E000000000000000000000000000000000031
:10616E000000000000003230322E3134312E313733
:10617E00362E32000000000000000000000000007B
:10618E000000000000000000000000000000000001
:10619E0000000000000000004869576946695F333F
:1061AE0034353241455F3247003133303133363882
:1061BE003430303000312C3433312E303430302CFA
:1061CE003433312E303430302C302C332C30200000
:1061DE000000000000000000312C3134342E363423
:1061EE0030302C3134342E363430302C302C332C9D
:1061FE00302C302000000000000000534F530000F0
:10620E000000000000000000000000000000000080
:09621E0000000000000000000077
:10A17500ECF5C3AF058FC41205DAF5C275C65A757D
:10A18500C6A522FFE43401FEEC93FD12ACE0EC938E
:10A1950022AD07AC0675C78075F51622ECF5C3AF81
:10A1A500058FC4227FD112ACE07FD202ACE07D01E5
:0CA1B50012ACE01D22E4FD12ACE00D2213
:1084F8009019F6EFF012A65D128ED79019F6E06487
:10850800017BFF7A6079FE703512A86A7BFF7A6179
:10851800792812857C7A61790912A86A7B017A1C0C
:1085280079EE12857C7A61791212A86A7B017A1D2C
:10853800793C12A86A7BFF7A61791C02A86A12A8A2
:108548009D7BFF7A61792812858B7A61790912A857
:108558009D7B017A1C79EE12858B7A61791212A8BB
:108568009D7B017A1D793C12A89D7BFF7A61791C5D
:1085780012A89D2212A86A7BFF7A61790512A86A5F
:108588007BFF2212A89D7BFF7A61790512A89D7B4B
:02859800FF22C0
:0EB1FD00E4F5C7F5C5F5C675C3FF75C4FF229E
:10B1360012A19675C50112A1A112A18100AFC2028A
:02B14600B1FD59
:10B0FD00AD07AC0612A1A112A19A75C50312A181CB
:03B10D0002B1FD8F
:10AD650012A19675C50212A175000DBD00010C74E6
:10AD75000129F9E43AFA9019FCE014F070E802B1FF
:01AD8500FDD0
:07ACD9007F2E12ACE07F2F7B
:10ACE000AB07AA0612A19A75C502EAF5C3AF038F96
:0CACF000C4AF058FC212A1810002B1FDAB
:10ABAB0012A19675C5021205DA601212A175000D7D
:10ABBB00BD00010C740129F9E43AFA80E912A1A154
:08ABCB00E412A17F0002B1FDBC
:10A71100E4FFFE12B0FDE4901A33F0A3F0901A3377
:10A72100E0FEA3E0FF24E8F58274153EF583E0FD29
:10A7310012ACE0901A34E004F07006901A33E00491
:0AA74100F0C3901A33E0940240D3F5
:01A74B0022EB
:10AC6D00E4FBFAAF03AE0212B13674E82BF5827431
:10AC7D00153AF583EFF00BBB00010AE4B503E4EAE6
:03AC8D00B402E02E
:01AC900022A1
:052690009019F6EFF0C7
:10269500E4FFFE12B0FDE4FDFF12ACE07D147F0106
:1026A50012ACE0E4FD7F0212ACE07F0312ACE07FE8
:1026B5000412ACE07F0512ACE07F0612ACE07D03AE
:1026C5007F0712ACE07BFF7A61793B9019FC7407B8
:1026D500F07F0812AD657D077F0F12ACE07F101209
:1026E500A1B37F1112ACE07D217F1212ACE07D2FEA
:1026F5007F1312ACE07D5B7F1412ACE07F1512A155
:10270500BA7F1612ACE07F1712ACE01D7F1812AC31
:10271500E07F1912ACE07F1A12ACE07F1B12ACE02F
:102725007F1C12ACE07F1D12ACE00D7F1E12ACE0E9
:102735001D7F2A12ACE00D7F2B12ACE07D157F2C9E
:1027450012ACE07F2D12A1BA12ACD97F3A12ACE0DF
:102755001D7F3B12ACE07F3C12ACE07F3D12ACE04C
:102765007F3E12ACE07F3F12ACE07BFF7A6179429D
:102775007F2012ABAB7A61794C7F3012ABAB7A61BB
:1027850079567F4012ABABE4FD7FA012ACE00D7F24
:10279500A112ACE07FA212ACE01D7FA312ACE07FDA
:1027A500A412ACE07FA512ACE00D7FA612ACE01D33
:1027B5007FA712ACE00D7FA812ACE07FA912ACE0B8
:1027C5007FAA12ACE07FAB12ACE07FAC12ACE07F2D
:1027D500AD12ACE07FAE12ACE01D7FAF12ACE09065
:1027E50019F6E07BFF70087A6179C37F8080087AEB
:1027F5006179E67F807E0012ABAB7D017FB07E0004
:1028050012ACE07FB112ACE07FB212ACE01D7FB339
:1028150012ACE07D387FB412ACE07DF47FB512AC2C
:10282500E0E4FD7FB612ACE07FB712ACE07FB812F2
:10283500ACE07FB912ACE07FBA12ACE00D7FBB1201
:10284500ACE07D5C7FBC12ACE07D507FBD12ACE09E
:10285500E4FD7FBE12ACE07DB47FBF12ACE0E4FCCA
:10286500EC24C0FFE433FEEC90617412A18E600588
:102875000CECB420EBE4FCEC24009061A612A188DA
:1028850060050CECB40FF0E4FCEC24109061B71279
:10289500A18860050CECB40FF0E4FCEC24B0FFE477
:1028A5003401FEEC90620912A18E60050CECB41E99
:1028B500EAE4FD7FD07E0112ACE00D12A1A97FD321
:1028C50012ACE07D067FD412ACE0E4FD7FD512ACFE
:1028D500E07FD612ACE07FD712ACE07BFF7A61795E
:1028E500219019FC7407F07F2012AD657F2712A196
:1028F500B37F2812ACE07F2912ACE07D647F2A12F9
:10290500ACE07D017F2B12ACE01D7F2C12ACE07F8B
:102915002D12ACE012ACD91271CCE4FD7F307E01F2
:1029250012ACE07F3112ACE012A1A97FDF12ACE05E
:082935007D037F1F1E02ACE0D0
:10B002007F1F7E0012B136EF64037F0160091226B2
:08B012009075C7207F00222287
:1040480060FA040300000000000000000000000007
:104058000000000000000000000000000000000058
:104068000000000000000000000000000000000048
:104078000000000000000000000000000000000038
:104088000000000000000000000000000000000028
:104098000000000000000000000000000000000018
:1040A8000000000000000000000000000000000008
:1040B80000000000000000000000000000000000F8
:1040C80000000000000000000000000000000000E8
:1040D80000000000000000000000000000000000D8
:1040E80000000000000000000000000000000000C8
:1040F80000000000000000000000000000000000B8
:1041080000000000000000000000000000000000A7
:104118000000000000000000000000000000000097
:104128000000000000000000000000000000000087
:0E413800000000000000000000000000000079
:08B2D3007F1D7EB7DEFEDFFCEB
:01B2DB002250
:10B01A00AD07AC06ED4C600FED1DAE0470011C4E81
:08B02A00600512B2D380F1228F
:0CB25F007F037ECF7D1CDDFEDEFCDFFAED
:01B26B0022C0
:10B03200AB07AA06EB4A600FEB1BAE0270011A4E79
:08B04200600512B25F80F122EB
:10AE0800E0FF901A03E0FE04F0743C2EF582E4346F
:0FAE18001DF58322901A03E0FF04F0743C2F22F3
:0AB2AB0043918075DE0F75BC872209
:10A96600E4F5BDF5BEE5BC548044404FF5BC00009F
:10A976000000E5BC30E5FB53BCDFE5BEC4540FFD6B
:10A986007C00AFBDEF75F010A42DFFEC35F0FE2274
:108ED7007F0712A966AC06AD07E41203C39019FD1C
:108EE7001208987FBA7E497D1C7C419019FDE0F8F5
:108EF700A3E0F9A3E0FAA3E0FB12018E7B0A7AD77D
:108F0700792378421202971203FC901A01EEF0A31C
:108F1700EFF0129E6FC3901A02E094E8901A01E0F6
:108F27009403E4901A0350028008F0901CE912AEF3
:108F370008EFF0901CEA12AE08EFF012AE1C12AE6A
:108F470014742EF0901CEB12AE08EFF012AE1C1248
:048F5700AE14E4F080
:018F5B0022F3
:06B30C002000200D0A00E4
:10AE27007C00AF03AE021206667C007D0A1206663E
:0FAE3700ED24302274D52FF582E4341CF58322EC
:10B19000EFD394394005EF24C9FF2274D02FFF224A
:10B14800EF540FFFD39409EF50042430FF22243723
:02B15800FF22D4
:109E6F00AB07AA067C277D1012AE2D901CECF07C60
:109E7F00037DE812AE29901CE9F07D6412AE27A392
:109E8F00F07D0A12AE27A3F0AE02AF0312AE30FF81
:109E9F00901CEDF0901CECE0901CDFF0901CE9E0C2
:109EAF00901CE0F0901CEAE0901CE1F0901CEBE0BD
:0B9EBF00901CE2F0A3EFF0E4A3F022FF
:10AC9100901A03EFF0E0C4540FFF12B14812B2EC66
:10ACA100901A03E0FF12B14812B2EC7BFF7AB3793C
:04ACB1000C02A89D4C
:1095F6009019FCEBF0A3EAF0A3E9F0A3ECF0A3EDDD
:01960600F073
:109607007FC012AC91E4FF12AC91E4901A01F0A371
:10961700F09019FFE0FEA3E0FFA3E0FCA3E0FDC389
:109627009FEC9E50269019FCE0FBA3E0FAA3E0F91B
:109637008D828C831205F3FF12AC91901A02E0041D
:10964700F070CE901A01E004F080C67FC012AC9192
:099657007BFF7AB3790E02A89D95
:10A65D007EF1E4FDA806E6FC0EC4540FFF12B148CE
:10A66D00ED25E024EEF582E4341CF583EFF0AF0424
:10A67D0012B148ED25E024EFF582E4341CF583EFAB
:0BA68D00F00DEDB407CEE4901CFCF0D3
:01A69800229F
:0E8FE000901A0BEEF0A3EFF0A3ECF0A3EDF06F
:108FEE00E4FFFEEEFD901A0CE02DFD901A0BE0341E
:108FFE0000FC74E82DF58274153CF583E0F9600BE6
:10900E0012AE3BE9F00F0EEEB406D812AE3B742D45
:10901E00F00F901A0DE0FCA3E024E8F58274153CE5
:10902E00F583E0FEC3940AEE75F00A5002801484B4
:10903E0075F00A84E5F02430FD12AE3BEDF00FEE34
:10904E0075F00A84E5F02430FE12AE3BEEF00F12FE
:04905E00AE3BE4F051
:0190620022EB
:10AF8100128C22BF051312AA2412A9037F027E008C
:0AAF910012B032126EEE1291682227
:10AAD600475053204F4E0D0A005761697420475066
:10AAE60053204C6F636B200D0A00475053204F468E
:0BAAF600460D0A00415055563938004B
:107F9F00746E2FF582E4341AF583E0FF9019F7E041
:107FAF002403F582E43400F583EFF09019F7E00431
:107FBF00F0229019F7E02403F582E43400F58322D0
:107FCF00E4FAF9F89019F9E0FCA3E0FDA3E0FEA3B1
:107FDF00E0FF12A455E47B0AFAF9F812A455EB243A
:107FEF003022A3E02FFFE433FE74032FF5827400D9
:107FFF003EF5837440F09019F6E004F0229019F6E4
:10800F00E0FFC3940622F583E025E0FEEFFD901913
:10801F00F7E02DFDE433FC74032DF58274003CF57D
:10802F0083EE229019F6E0FFC322E4FAF9F8E0FCA0
:10803F00A3E0FDA3E0FEA3E0FF22901612E064018F
:01804F00220E
:101103009015F8E0FF9019F8F0BF0103126DE9E4C0
:101113009019F7F0128049703F9019F8E0B4011F5D
:10112300E49019F6F012800C504774122FF582E404
:10113300341DF583E025E0127FAA12800580E6E4E2
:101143009019F6F012800C5028EF90AAFA9325E03C
:10115300127FAA12800580ECE49019F6F012800C3D
:10116300500FEF90AAFA9325E0127FAA1280058010
:10117300EC127FC17460127FB9E49019F6F012800B
:101183000C5005127FF180F6E49019F6F012800CF2
:10119300502574F02FF582E43415F583E060189040
:1011A30019F6E024F0F582E43415F583E025E01226
:1011B3007FAA12800580D69015F7E0FF9017CFE045
:1011C300FE9017D7E0F99019F7740DF0EE700CE963
:1011D3007009EF25E04461FF02129DEF25E044E032
:1011E300127FAAEE6065E49019F6F012800C5005A8
:1011F300127FF180F6E49019F6F012800C502074FF
:10120300C82FF582E43417F583E060139019F6E0F4
:1012130024C8F582E4341712801512800480DB9011
:1012230019F7E02406F09017CFE025E04460FF9023
:1012330019F7E0FE127FC5EFF0E9700C74032E126C
:101243007FC7E04401F08000127FBAE9604FE49069
:1012530019F6F012800C5005127FF180F6E4901914
:10126300F6F012800C502074D02FF582E43417F579
:1012730083E060139019F6E024D0F582E43417126A
:10128300801512800480DB9019F7E02406F0901794
:10129300D7E025E04461FF9019F7127FAE127FC1BA
:1012A3007403127FB9127FC474F0127FB91280499C
:1012B30060030213819019F8E0B4011FE49019F65A
:1012C300F0128032940E400302147474FE2FF582E0
:1012D300E4341C127FA712800580E69015FA127F72
:1012E300A9E49019F6F01280329408501074B82FC4
:1012F300F582E4341A127FA712800580E9901A75EB
:10130300E0B402059016A480039015FB127FA9E4B4
:101313009019F6F01280329409501074A42FF582BC
:10132300E4341A127FA712800580E9901A75E0B49D
:1013330002059016A580039015FC127FA9901A6CE4
:10134300121663127FC4742F127FB9901A9D12165E
:1013530063127FC4742F127FB9127FC47441127F4A
:10136300B9127FC4743D127FB9E49019F6F012806C
:101373000C4003021474127F9F12800580F09015B5
:10138300FA127FA9E49019F6F012803294085010F3
:1013930074082FF582E43416127FA712800580E9C2
:1013A3009015FB127FA9E49019F6F012803294098C
:1013B300501074182FF582E43416127FA71280059B
:1013C30080E99015FCE0FF127FC1EF121607127F30
:1013D300C4742F121607127FC4742F127FB9127FA1
:1013E300C47441127FB9127FC4743D127FB9901740
:1013F30011E0FEA3E07C002400FDEC3EFCE41203BC
:10140300C37BA17AF87951784012018E1203FC90C4
:1014130019F91208987BA07A8679017800127FD394
:10142300901A6EF0E47B107A27127FD1901A6FF036
:10143300E47BE87A03127FD1901A70F07B64127F09
:10144300CF901A71F07B0A127FCF901A72F07B0A49
:101453009019F9128039127FEA901A73F0E4A3F01D
:101463009019F6F012800C5008127F9F12800580AD
:10147300F3E49019F6F0128032943C502A74282F2A
:10148300F582E43416F583E0FF601C127FABE0FFC6
:10149300D39464400D74032F127FC7747E127FB9F7
:1014A300800512800580CF127D78901626E06401B6
:1014B3007051128049704C127FC17420127FB97B26
:1014C30064901ADA128039120772129E6F901CEC24
:1014D300127FA9901CE9127FA9901CEA127FA990A0
:1014E3001CEB127FA9127FC4742E127FB9901CEDDE
:1014F300127FA9127FC4744B127FB9127FC4746D1B
:10150300127FB9901624E064017036127FC17420F3
:10151300127FB9128ED7E49019F6F09019F6E024F1
:101523003CF582E4341DF583E0FF600D127FC1EFCB
:10153300128004A3E004F080E2127FC17456127F8C
:10154300B91236E4901625E064017036300F331279
:101553007FC17420127FB9E49019F6F09019F6E078
:101563002421F582E4341CF583E0FF600D127FC172
:10157300EF128004A3E004F080E2127FC1744312EF
:101583007FB9901623E064017046300F43127FC188
:101593007420127FB9E49019F6F09019F6E024163E
:1015A300F582E4341CF583E0FF600D127FC1EF1276
:1015B3008004A3E004F080E2127FC17468127FB953
:1015C300127FC47450127FB9127FC47461127FB941
:1015D3001280497024901627E06401701C127FC1A9
:1015E3007420127FB9127FC47453127FB9901A907A
:1015F300127FA9901A91127FA99019F7E090062BF8
:03160300F07F0174
:1016060022F09019F7E004F0E4FFFE129E6F901CA2
:10161600EAE0FF9019F7E02403F582E43400F5834D
:10162600EFF09019F7E004F0901CEBE0FF9019F74B
:10163600E02403F582E43400F583EFF09019F7E037
:1016460004F0901CEDE0FF9019F7E02403F582E426
:101656003400F583EFF09019F7E004F022E0FEA3E2
:10166600E0FF129E6F901CEAE0FF9019F7E024035A
:10167600F582E43400F583EFF09019F7E004F0907A
:101686001CEBE0FF9019F7E02403F582E43400F543
:1016960083EFF09019F7E004F0901CEDE0FF90194D
:1016A600F7E02403F582E43400F583EFF09019F7B0
:0416B600E004F0223A
:10A99600901615E0B4010D20A70AD2A77BFF7AAA6C
:10A9A60079D68010901612E0B4010C2003097BFFC3
:10A9B6007AAA79DF02A89D121103E4FF12863B22D0
:10943B009015EAE0B401299015E8E0FEA3E07C006A
:10944B002400FFEC3ECF24FFCF34FFFED3901D4E04
:10945B00E09F901D4DE09E4007E4F0A3F012A9960B
:10946B009015EAE0B401047F0180027F009015EBB8
:10947B00E0B401047E0180027E00EE4F6024901662
:10948B0015E0B4011D901612E0B4011630A713308D
:10949B00031012A996C2A7C2037BFF7AAA79F01216
:0394AB00A89D2257
:1099F600444947492031204F4E0D0A004449474902
:109A06002031204F46460D0A00444947492032205E
:109A16004F4E0D0A00444947492032204F46460D15
:109A26000A004E4F57205253540D0A0057494445D9
:109A3600312000005749444532200000574944452B
:109A4600312000005749444532200000313233347A
:029A56003536A3
:10979B00FD74F72EF582E43419F583EDF074F82F90
:1097AB00F582E43419F583E4F0901A01E004F02219
:1097BB00E02409F582E43400F58322FDE02DFDE47D
:1097CB0033FC74032DF58274003CF583229019F45D
:1097DB00E0FBA3E0FAA3E02274FB2FF582E434193B
:1097EB00F58322F09019F9E004F02274F529F58243
:0697FB00E43419F583229D
:106BDB00E4901A01F0901A01E0FFC394065011E003
:106BEB00FE24C0F582E43417F583E012979B80E511
:106BFB00901A127401F0A37419F0A374F7F07B01CF
:106C0B007A047903127CB99019F4EBF0A3EAF0A3A0
:106C1B00E9F01297D84A4B7003026CD6E4901A0134
:106C2B00F0901A01E0FFC3940850161297D8F99010
:106C3B001A01E0FEF5827583001205F312979B8013
:106C4B00E09019FDE0B44111A3E0B4310C9017DFD3
:106C5B00126CD97A9979F6804E9019FDE0B44115F2
:106C6B00A3E0B43010E49017DFF012A7117BFF7A8A
:106C7B009A790280329019FDE0B44211A3E0B4314D
:106C8B000C9017E7126CD97A9A790F801A9019FD2C
:106C9B00E0B44219A3E0B43014E49017E7F012A764
:106CAB00117BFF7A9A791B12A89D7F01229019FD07
:106CBB00E0B45214A3E0B4300F7BFF7A9A79281218
:0D6CCB00A89D75C7207F01227F01227F0058
:0A6CD800227401F012A7117BFF22C5
:0E78CA009019F4EBF0A3EAF0A3E9F0A3EDF0BF
:1078D8001297BBE0541EC3139019F8F070037F0190
:1078E80022E49019F9F09019F9E0FFC39406500AC0
:1078F8001297E374201297EE80ECE49019F9F09057
:1079080019F9E0FFC3940650269019F41297DBF991
:107918008F827583001205F39019FAF06011E0FF69
:107928009019F9E024FB1297E6EF1297EE80D0E465
:107938009019F9F09019F9E0FF9019F71297C6E03D
:10794800C313FE1297E3E06E60037F00221297EFE5
:10795800E0B406E09019F8E014F0E025E0F09019A2
:10796800F7E0FF1297BCE054E1F074092F1297BEBC
:10797800C083C082E0FF9019F8E0FEEF4ED082D0BD
:1079880083F0EE700A9019F71297BBE04480F07FFD
:0179980002EC
:0179990022CB
:05859A009019F4EFF060
:10859F0090062BE0D394E874809483400302863ACC
:1085AF009015F0E0700302863A90062BE0FFFE90E4
:1085BF0019F4E0FDC3EF9D04FCE4F9E9C39C501CE2
:1085CF0074032EF582E43400F583E0FD740A2EF572
:1085DF0082E43400F583EDF01E0980DF79069019EF
:1085EF00F57440F0A3D9FCE4F974F029F582E43472
:1085FF0015F583E0600D25E0FE1297F6EEF009E920
:10860F00B406E69015F7E025E044E09019FBF0E49E
:10861F00F91297F6E0FFE99019F41297C6EFF009F7
:0B862F00E9B407ED90062BE02407F0F3
:01863A00221D
:10A834009017BDE0D394004021E49019F4F09017F0
:10A84400BDE0FF9019F4E0C39F500F7F287E0012F3
:10A85400B0329019F4E004F080E47F067E0012B078
:06A86400327F0102863B79
:10916800126BDB9017DFE070069017E7E060649001
:109178000010E020E05D9019F3740DF0E49019F20E
:10918800F09017DFE0600C7A1779D81291DCBF02F3
:109198000280109017E7E060167A1779E01291DCE8
:1091A800BF020C9019F3E004FF12859A02A83490CC
:1091B80019F3E0240AF582E43400F583E020E01393
:1091C8009019F3E02407F09019F2E004F0E0C3945A
:0391D8000640AEA0
:0D91DB00227B019019F3E004FD1278CA22F6
:1071CC00E49019F7F09019F7E0FD24E0909A321250
:1071DC00726340F17FE61272A47D017FE71272ACFC
:1071EC009019F7E0FD24E8909A3A12726340F17F0F
:1071FC00EE12728F7FEF1272989019F7E0FD24F067
:10720C00909A4212727940F17FF612728F7FF712C8
:10721C0072989019F7E0FD24F8909A4A127279400E
:10722C00F17FFE1272A4E4FD7FFF1272AC9019F78D
:10723C00E0FD24D8FFE43401FEED909A5293FD1248
:10724C00ACE09019F7E004F0E0C3940640DFE4FDF5
:07725C007FDE7E0102ACE0C1
:10726300FFE43401FEED93FD12ACE09019F7E00466
:10727300F0E0C3940622FFE43401FEED93FD12AC6B
:10728300E09019F7E004F0E0C3940622E4FD7E01E8
:1072930012ACE0E422FD7E0112ACE0E49019F7F0B9
:1072A30022E4FD7E0112ACE0227E0112ACE0E49008
:0472B30019F7F022B5
:1034E400000011892312329B462457AD653674BF00
:1034F4008C489DC1AF5ABED3CA6CDBE5E97EF8F7B0
:10350400108101083393221A56A5472C75B7643EDF
:103514009CC98D40BFDBAE52DAEDCB64F9FFE8768F
:103524002102308B02101399672676AF443455BDBF
:10353400AD4ABCC38E589FD1EB6EFAE7C87CD9F56F
:103544003183200A1291031877A7662E54B5453C9F
:10355400BDCBAC429ED98F50FBEFEA66D8FDC9744F
:103564004204538D6116709F042015A9273236BB7F
:10357400CE4CDFC5ED5EFCD7886899E1AB7ABAF32F
:103584005285430C7197601E14A1052837B3263A5F
:10359400DECDCF44FDDFEC5698E98960BBFBAA720F
:1035A4006306728F4014519D252234AB063017B93F
:1035B400EF4EFEC7CC5CDDD5A96AB8E38A789BF1EF
:1035C4007387620E5095411C35A3242A16B107381F
:1035D400FFCFEE46DCDDCD54B9EBA8629AF98B70CF
:1035E40084089581A71AB693C22CD3A5E13EF0B7FF
:1035F400084019C92B523ADB4E645FED6D767CFFAF
:1036040094898500B79BA612D2ADC324F1BFE036DE
:1036140018C109483BD32A5A5EE54F6C7DF76C7E8E
:10362400A50AB48386189791E32EF2A7C03CD1B5BE
:10363400294238CB0A501BD96F667EEF4C745DFD6E
:10364400B58BA40296998710F3AFE226D0BDC1349E
:1036540039C3284A1AD10B587FE76E6E5CF54D7C4E
:10366400C60CD785E51EF497802891A1A33AB2B37E
:103674004A445BCD695678DF0C601DE92F723EFB2E
:10368400D68DC704F59FE41690A98120B3BBA2325E
:103694005AC54B4C79D7685E1CE10D683FF32E7A0E
:1036A400E70EF687C41CD595A12AB0A3823893B13E
:1036B4006B467ACF485459DD2D623CEB0E701FF9EE
:1036C400F78FE606D49DC514B1ABA02292B983301E
:1036D4007BC76A4E58D5495C3DE32C6A1EF10F78CE
:05951F00901A01EDF0BF
:1095240074FFA3F0A3F0901A01E0D39400403F121B
:1095340005DAFF901A02A3E06F25E0FFE433FE741E
:10954400E42FF58274343EF583E493FC740193FDB7
:10955400901A02E0FFECFEED6FFFEEF0A3EFF09047
:109564001A01E014F0740129F9E43AFA80B8901A67
:1095740002E0FEA3E0F4FFEEF4FCEF901D50F0AE29
:0695840004EE901D4FF003
:01958A0022BE
:10AE6500C313F04480F0A3E004F0E022E02403F5EE
:0EAE750082E43400F58322901D49E06403223C
:0CB29300E4F5D875F9FA75E910D2DE2256
:0EB20B00E4F5D875F9FDF5E9D2DE30DFFD225D
:10A2A4007B017A00790390062BE024FEFD12951FB2
:10A2B40090062BE0FE2401F582E43400F583E0FFF0
:10A2C400901D50E06F60037F002274022EF582E43B
:10A2D4003400F583E0FF901D4FE06F60037F0022A0
:0AA2E40090062BE024FEF07F01221B
:108B0400E4901D49F0A3F012008EEF30E004C29609
:108B14008002D296A2969201E4901D4BF0901D57CC
:108B2400F012B20B901D4AE0FFC313F0A3E0B406A9
:108B340016901D57E004F0E0B4030C901D49740333
:108B4400F0E4901D4BF022E4901D4BF0C202200291
:108B5400D012B29320DF2612008EEE20E207901D81
:108B6400497404F022EF30E004C2968002D296A247
:108B740096300101B350DDA2969201D2022002CEBA
:108B8400901D4AE012AE65B407C4901D497405F007
:018B940022BE
:108D3B00E4901D4CF0901D58F0901D58E0C3940822
:108D4B00507812B29320DF2C12008EEE20E20790A7
:108D5B001D497404F022EF30E004C2968002D296D3
:108D6B00A296300101B35008A2969201D202800460
:108D7B00C20280D120021A901D4AE0FF12AE65B4E8
:108D8B000707901D497405F022901D58E004F080F0
:108D9B00A812B20B901D4BE0FFB40604A37401F0B4
:108DAB00EF6405600D901D4AE0C313F0901D58E071
:0A8DBB0004F0E4901D4BF0028D441B
:018DC500228B
:1090E600E490062BF0128B0412AE7C60037F012203
:1090F600901D4AE0647E60037F0222128D3B901D24
:109106004AE0FEB47E0812AE7C60F07F0322E49053
:10911600062BF012AE71EEF090062BE004F0128DE5
:109126003B12AE7C60037F0422901D4AE0FF90064E
:109136002B12AE71EFF090062BE004F0E0D394E82A
:109146007480948340037F0522901D4CE0B401CEC9
:1091560090062BE014F012A2A4BF01037F06227F23
:029166000722DE
:10A1C100120898E47B597A209019FDF9F8E0FCA374
:10A1D100E0FDA3E0FEA3E0FF02A455901A9D7D0AD5
:10A1E100E0FEA3E0FF7C00020666E024D075F00AE1
:10A1F100A4FFA3E024D02F241C22AC00AD01AE02A9
:0CA20100AF03020898A3A3A3E0242122CD
:1055FF00EFB40700504A90560CF828287302562132
:10560F0002562502562D02563202563902564102D3
:10561F0056487C0180167C017D01E4FE80267C01CA
:10562F00E480187C01E4FDFE801AE4FC7D017E011C
:10563F008012E4FC7D01FE800BE4FCFD7E01800402
:10564F00E4FCFDFEECB40115901AB8E0FFB420089D
:10565F00901D12745AF0800DEF24208004901AB818
:10566F00E0901D12F0EDB40115901AB9E0FFB420CF
:10567F0008901D13745AF0800DEF24208004901AA7
:10568F00B9E0901D13F0EEB40115901ABAE0FFB413
:10569F002008901D14745AF0800DEF242080049080
:1056AF001ABAE0901D14F0901ABFE0B44E19901A78
:1056BF00BBE0FFB42008901D15745AF0801BEF2437
:1056CF0020901D15F08012901ABBE0FF901D15B4AD
:1056DF002005744CF08002EFF0901D1CE0B46419AB
:1056EF00901ABDE0FFB42008901D16745AF0801B6D
:1056FF00EF2420901D16F08012901ABDE0FF901D30
:10570F0016B42005744CF08002EFF0901AACE0B4A0
:10571F005717901ABEE0FFB42007901D17745AF068
:10572F0022EF2420901D17F022901ABEE0FF901D4B
:0A573F0017B42004744CF022EFF0C0
:01574900223D
:109B7E00901CFE7460F0901AA5E024D075F00AA433
:109B8E00FF901AA4E024D075F064A42FFF901AA6BB
:109B9E00E024D02FFFC3940A5005EF24768027EFE0
:109BAE00C39464500DEF241C901CFFF0E4901D1C18
:109BBE00F022EFC3946E5005EF24088009EFC39492
:109BCE00B4500DEF24B8901CFFF0901D1C7464F07F
:019BDE002264
:106DE900129B7E901AA712A1EB901D00F0C3942666
:106DF9005004E0243CF0901AAA12A1EB901D01F076
:106E090012A1DCAB07EBC39414EB241C901D02F018
:106E190012A1DCAB05901A6C7D6412A1E1EF241C70
:106E2900FFEB75F00AA42F901D03F0901A6CE0FE99
:106E3900A3E0FF7C007D64120666AF05EF241C9079
:106E49001D04F0901A75E0B4020D9016A5E0901D8E
:106E590005F09016A4800B9015FCE0901D05F090AC
:106E690015FBE0901D06F0901A8CE0FCA3E0FDA351
:106E7900E0FEA3E02410FFEE3427FEE43DFDE43CF0
:106E8900FC9019FD12A1C1901A0112A1C1901A0515
:106E990012A1FBE47B5BFA901A0512A1CC901A09A6
:106EA900120898E47B5BFAF9F8901A0512A1CE90C2
:106EB9001A0D12A1FB901D077460F0901A0112A21D
:106EC90006901D08F0901A0912A206901D09F0906B
:106ED9001A0D12A206901D0AF0A3747DF09015F9FF
:056EE900E0FF0255FF6F
:105C4200EF2BFBEE3AFAED39F9EC38F89019FBE05C
:105C5200FEA3E0FFE4FCFDEB2FFFEA3EFEED39FD83
:105C6200EC38FCEF249BFFEE34A1FEED34FBFDEC9F
:105C720034FFFCA31208987F01229019FDE0FCA3D7
:105C8200E0FDA3E0FEA3E022FD746F2FF582E43471
:105C92001BF58322EE75F00A84E5F0243022F583A9
:105CA200E0FD9019FBE4F0A3EDF0E4FCFD7B5BFA70
:105CB200F9F80206E774032FF582E43400F583E075
:105CC20022E4FDFC9019FDE0F8A3E0F9A3E0FAA3B9
:105CD200E0FBC3020812FEED9400FDEC9400FC9080
:105CE20019FD0208989019F7E0FEA3E0FFE4FCFD1D
:105CF2007B597A20F9F80206E7F583E09019F9FF5B
:105D02007E00EEF0A3EFF022F583E024E49019F296
:105D1200F02224E4FFE034FFFE7C007D0A22F583BA
:105D2200E09019F7FDE4F0A3EDF0227420901B68D7
:105D3200F0901B9F227420901B6BF0901B9A2224E0
:105D420008F582E43400F583E022901B657420F0AC
:105D520022901A02E0FFC322901B667420F0229068
:105D62001A03E0FFC322901B677420F02275F00A29
:045D72008424302233
:10A935007F06E4FE125CB720E00E74072FFF0EEED3
:10A94500D3940840EF7F00220F0F0F125CB7FEB4BF
:10A9550027028004EEB46006901D52EFF0227F00BE
:01A9650022CF
:103AB700E4FEFDFC74032C125CBAC313FB74012CE7
:103AC700F582E4341AF583EBF00CECB406E6901AB1
:103AD70001E0FCC39450400DECD394595007EC24FB
:103AE700E0901B65F0901A01E0FFC39441400DEF91
:103AF700D3944A5007EF24EF901B65F0901A01E02A
:103B0700FFB44B03125D4CEFB45A03125D4C901A8D
:103B170001E0B44C03125D4C901A01E0FFC3943AE4
:103B27005005901B65EFF0125D539450400DEFD395
:103B370094595007EF24E0901B66F0125D539441AF
:103B4700400DEFD3944A5007EF24EF901B66F09097
:103B57001A02E0FFB44B03125D5AEFB45A03125D29
:103B67005A901A02E0B44C03125D5A125D53943A0C
:103B77005005901B66EFF0125D619450400DEFD336
:103B870094595007EF24E0901B67F0125D61944150
:103B9700400DEFD3944A5007EF24EF901B67F09046
:103BA7001A03E0FFB44B03125D68EFB45A03125DCA
:103BB70068901A03E0B44C03125D68125D61943A91
:103BC7005005901B67EFF0901A04E0FFC394504034
:103BD70009EF24E0125D2F744EF0901A04E0B45AF6
:103BE70006125D2D744EF0901A04E0FFB44C0612D5
:103BF7005D2D7453F0EFC3943A5007EF125D2F74A5
:103C070053F0901B69742EF0901A05E0FFC394508F
:103C17004009EF24E0901B6AF07A64901A05E0B43B
:103C27005A08901B6A7420F07A64901A05E0FFB472
:103C37004C08901B6A7420F0E4FAEFC3943A5007DB
:103C4700901B6AEFF0E4FA901A06E0FFC394504025
:103C570009EF24E0125D397457F0901A06E0B45A60
:103C670006125D377457F0901A06E0FFB44C06123F
:103C77005D377445F0EFC3943A5007EF125D39741E
:0F3C870045F0901B9FE0901B6CF0E4A3F0AF02A0
:013C9600220B
:101A520012A935EF7006901D51F0FF22123AB7908D
:101A62001D52E0FD2404F582E43400125D0AEFB455
:101A72006404E02464F09019F2E0FFC394B4400AD5
:101A8200EFD394BD5004E024B0F09019F2E0FFC30C
:101A920094BE400AEFD394C75004E02442F0901958
:101AA200F2E0FE75F064842430901B57F0EE75F07E
:101AB2000A84125C97A3F09019F2E0125C97901BD3
:101AC20059F074052DF582E43400125D0AC3943C8A
:101AD2004004E024C4F09019F2E0FD125D6F901B07
:101AE2005AF0ED125C97A3F0A3742EF0901D52E011
:101AF200FD2406F582E43400125D0AE0FE125D6FF9
:101B0200901B5DF0125C96A3F0901B9AE0901B5F15
:101B1200F0E4A3F074072DF582E43400F583E0FFCE
:101B22009019F3E4F0A3EFF0901D52E0125D4190A2
:101B320019F5125D0124E4FFEE125D18120666AA81
:101B420006AB079019F4E09019F3125D14120654D3
:101B5200EF2BFFEE3AFEE4FD125CE17F207E0312E2
:101B62005CC3400C125C7C9420FFEE9403125CD8A0
:101B7200125C7CFFEC1203BE7BF67A2879947841E2
:101B820012018E1203FC121DAA901CECE0901BB4F1
:101B9200F0901CE9E0901BB5F0901CEAE0901BB6B7
:101BA200F0901CEBE0901BB7F0A3742EF0901CEDAC
:101BB200E0901BB9F0E4A3F0901D52E0FF125D41EA
:101BC2009019F5125D2674092FF582E43400F5832D
:101BD200E0FB7A009019F6E09019F5125D141206F6
:101BE200667E007F64120654EB24E4FDE434FFCDEC
:101BF2002FFFED3EFEE4FCFD125CE17F907E0112C0
:101C02005CC3400C125C7C9490FFEE9401125CD891
:101C12009019FD121DBE901CEAE0901BA0F0901CD2
:101C2200EBE0901BA1F0901CEDE0901BA2F0E4A36E
:101C3200F0FF901D52E0F9240FF582E43400F583A1
:101C4200E0647D703B901D52E0FF240CF582E43489
:101C520000125D20740D2FF582E43400125CFB74D7
:101C62000E29F582E43400125CA0C004C005C0064F
:101C7200C007125CE7D003D002D001D000125C4250
:101C8200901D52E0F92410F582E43400F583E064FB
:101C92007D703B901D52E0FF240DF582E43400126A
:101CA2005D20740E2FF582E43400125CFB740F2960
:101CB200F582E43400125CA0C004C005C006C0076F
:101CC200125CE7D003D002D001D000125C42EF6474
:101CD20001705A125C7CFFEC1203BE901B9B12082F
:101CE20098125C7CFFEC339019FD5011A3A3A3E082
:101CF200120804121DAA901BAA742D800A121DBE7E
:101D0200901CECE0901BAAF0901CE9E0901BABF059
:101D1200901CEAE0901BACF0901CEBE0901BADF045
:101D2200901CEDE0901BAEF0E4A3F0800A901B9BA8
:101D32001208A400000000901D52E0240AF582E47B
:101D42003400F583E0901B7BF0E4FF7E0774032EE2
:101D5200125CBAC3139019F2F064206007E0125CBF
:101D62008AEDF00F0EEEB40DE4900010E0541EC3A5
:101D720013FED394004025125C8B742DF00FEEC33A
:101D8200940AEE50044430800C125D6F125C8AEDAE
:101D9200F00F125C96FE125C8BEEF00F125C8BE47D
:071DA200F0901D5104F0FF59
:101DA900229019FD1208989019FDA3A3E0FEA3E063
:101DB900FF129E6F22A3A3E0FEA3E0FF129E6F22F3
:10B15A0024475057504C2C00000024475057504C5D
:02B16A002C00B7
:10414600603C1C670000000000000000000000004A
:104156000000000000000000000000000000000059
:104166000000000000000000000000000000000049
:104176000000000000000000000000000000000039
:10ACFC000EE0FD74672EF582E4341CF583EDF00E46
:10AD0C0074672EF582E4341CF58322F583E0FD7420
:03AD1C00672F227C
:105D760078FC7C197D017BFF7AB1795A7E007F0A17
:105D86001205B4E4FFFE74FC2EF582E4341912AD5C
:105D96001712AD0FEDF00F0EEEB407EAE4FE7465D0
:105DA6002EF582E4341B12AD1712AD0FEDF00F0E77
:105DB600EEB407EA74672F12AD0F742CF00F901B28
:105DC6009FE0FE74672F12AD0FEEF00F74672F126F
:105DD600AD0F742CF00FE4FE74572EF582E4341BDD
:105DE60012AD1712AD0FEDF00F0EEEB408EA7467A0
:105DF6002F12AD0F742CF00F901B9AE0FE74672FD4
:105E060012AD0FEEF00F74672F12AD0F742CF00F5A
:105E1600E4FE746F2EF582E4341BF583E0FD600E1C
:105E260074672F12AD0FEDF00F0EEEB409E4746730
:105E36002F12AD0F742AF00FE4FD7E01EF14FCEE75
:105E4600C39C500912AD0CE06DFD0E80EFEDC454FD
:105E56000FFEC3940AEE5004243080022437FE74E9
:105E6600672F12AD0FEEF00FED540FFEC3940AEE3E
:105E76005004243080022437FE74672F12AD0FEED3
:105E8600F00F74672F12AD0F740DF00F74672F1299
:0E5E9600AD0F740AF00F74672F12AD0FE4F019
:015EA40022DB
:104F0000E4FEFDED90B16493FC12AD0CECF00E0DDF
:104F1000EDB407EF901612E06401704EFD74B82DE9
:104F2000F582E4341AF583E0FC12AD0CECF00E0DC2
:104F3000EDB407E912AD0C742CF0901ABF12ACFC62
:104F4000742CF00EE4FD74A42DF582E4341AF5837C
:104F5000E0FC12AD0CECF00E0DEDB408E912AD0C56
:104F6000742CF00E901AAC024FB6E4FD74082DF5C7
:104F700082E43416F583E0FC12AD0CECF00E0DED7E
:104F8000B407E912AD0C742CF090160F12ACFC743F
:104F90002CF00EE4FD74182DF582E43416F583E050
:104FA000FC12AD0CECF00E0DEDB408E912AD0C7472
:104FB0002CF00E901620E0FC12AD0CEC12AD0A7431
:104FC0002CF00EE4FD74F02DF582E43415F583E049
:104FD000FF600B12AD0CEFF00E0DEDB406E712AD55
:104FE0000C742DF00E9015F7E0FDC3940AED75F0EA
:104FF0000A500280148475F00A84E5F02430FC1213
:10500000AD0CECF00EED75F00A84E5F02430FC12E6
:10501000AD0CECF00E12AD0C742AF00EE4FC7D0128
:10502000EE14FBEDC39B500C74672D12AD0FE06CBA
:10503000FC0D80ECECC4540FFDC3940AED50042425
:105040003080022437FD12AD0CEDF00EEC540FFD54
:10505000C3940AED5004243080022437FD12AD0CB5
:10506000EDF00E12AD0C740D12AD0A740A12AD0AF9
:02507000E4F06A
:01507200221B
:1069CB00EF2BFFEE3AFEED39FDEC38FC901BAEA839
:1069DB0004A905AA06AB07E075F00AA4FFE4FCFDC9
:1069EB00EB2FFBEA35F0FAED39F9EC38F8A3E0FFC1
:1069FB00E4FEEB2FFFEE3AFEED39FDEC38FC22F511
:106A0B0083EEF075F001E49019F40206BB9019F3D4
:106A1B00E0FBA3E0FAA3E0F90205DA9019F71208FC
:106A2B00989019F7E0FCA3E0FDA3E0FEA3E0FFE4E0
:106A3B001203BE7BBF7A0E799C783E12018E120335
:106A4B00FC9019F7020898AF03AE021206667C00A1
:106A5B007D0A120666ED243022901BAC7BE87A038C
:106A6B00E0FFE4FCFDFEF9F80206E7901BADE0FF4A
:106A7B00E4FCFDFE7B64FAF9F80206E774AA2FF535
:106A8B0082E4341BF583E024D0F09019FBE004F092
:106A9B00227B017A0479039019F2E0FD229019F61A
:106AAB00E0FFC3229019F6E004F0221205DAFF741E
:106ABB000129F9E43AFA22F09019FCE0FEA3E0FF79
:086ACB00227B017A0479032209
:109264007F0A901B6FE4F0A3DFFC7F0A901B65E488
:10927400F0A3DFFC7F0A901B57E4F0A3DFFC7F0A16
:10928400901BA0E4F0A3DFFC7F0A901BB4E4F0A3DE
:10929400DFFC7F0A901BAAE4F0A3DFFC7F0A901B8B
:1092A40090E4F0A3DFFCE4901B61F0A3F0901B7941
:1092B400F0A3F0901B9B1208A400000000E4901B94
:1092C40063F0A3F07F0A901B86E4F0A3DFFC7F0A1F
:0892D400901B7CE4F0A3DFFC19
:0192DC00226F
:10980100E4FF74B42FF582E4341BF583E024D0F037
:109811000FEFB403ED901BB4126A79901BB5126976
:10982100DAE41203BE7BF67A287994784112018E2C
:109831001203FC129E6F901CECE0901BB4F0901C84
:10984100E9E0901BB5F0901CEAE0901BB6F0901C8B
:10985100EBE0901BB7F0A3742EF0901CEDE0901B91
:05986100B9F0E4A3F0E2
:0198660022DF
:1048CA00901BAAE0642D60030249629019FB04F070
:1048DA009019FBE0FFC394065005126A8780F11213
:1048EA006A64C004C005C006C007901BAB7B107A7F
:1048FA0027126A6BD003D002D001D000EF2B1269C5
:10490A00FFC004C005C006C007126A76D003D002F1
:10491A00D001D0001269CB126A26901B9B1208A400
:10492A00000000009019F7A3A3E0FEA3E0FF129E87
:10493A006F901CECE0901BABF0901CE9E0901BAC74
:10494A00F0901CEAE0901BADF0901CEBE0901BAEDF
:10495A00F0901CEDE0024A5CE49019FBF09019FB20
:10496A00E0FFC394065005126A8780F1901BABE002
:10497A00FFE4FCFDFE7B107A27F9F81206E7C00473
:10498A00C005C006C007901BAAE0FFE4FCFDFE7B41
:10499A00A07A867901F81206E7D003D002D001D0B6
:1049AA0000EF2B1269FFC004C005C006C007126AD7
:1049BA0064D003D002D001D000EF2B1269FFC004EB
:1049CA00C005C006C007126A76D003D002D001D053
:1049DA00001269CB126A269019F7E0FCA3E0FDA346
:1049EA00E0FEA3E0FFE41203BE901B9B120898901E
:1049FA0019F7A3A3E0FFA3E09019FCCFF0A3EF12ED
:104A0A006AC2E4FCFD7BA07A867901F812A455EF0C
:104A1A002430901BAAF09019FCE0FAA3E0FB7C2753
:104A2A007D10FF126A54901BABF07C037DE8126A7A
:104A3A0052A3F09019FCA3E07C007D64FF126A5433
:104A4A00901BADF07C007D0A126A52A3126AC21250
:094A5A006A59901BAFF0E4A3F0CF
:014A63002230
:10B04A00E4FF1205DAB43A04EF04FF22126ABA0FD7
:06B05A00EFB47DEE7F0063
:01B0600022CD
:10A2EE00E4FE126AB6EF643E6011746F2EF582E4DE
:10A2FE00341BF583EFF00EEEB40AE7E4FE126AB6F5
:10A30E00EFB42C047D0180027D00EFB43A047C0191
:10A31E0080027C00EC4D701174862EF582E4341BA5
:09A32E00F583EFF00EEEB40AD441
:01A337002203
:0B51E2009019F3EBF0A3EAF0A3E9F052
:1051ED00AF058FF0126A11126A18FF126A0EEFB432
:1051FD0040047E0180027E00EFB42F047F01800207
:10520D007F00EF4E6020E49019F6F0126AA8940723
:10521D005014126A18FE747C2FF582E4341B126A46
:10522D000A126AAF80E5E49019F6F0126AA89408A4
:10523D005014126A18FE74652FF582E4341B126A3D
:10524D000A126AAF80E5901B6CE0901B9F126A0DED
:10525D00E49019F6F0126AA894095014126A18FE17
:10526D0074572FF582E4341B126A0A126AAF80E577
:10527D00901B5FE0901B9AF0126A18FF901B7B1237
:10528D006A0DEF645F7003025348901B9B1208A4D4
:10529D00000000009019F3E0FBA3E0FAA3E0F99001
:1052AD0000031205F3642F60030253489019F6F0C2
:1052BD00126AA894035014126A18FE74A02FF58276
:1052CD00E4341B126A0A126AAF80E5126A0EE4908A
:1052DD0019F6F0126AA894035014126A18FE74B4E9
:1052ED002FF582E4341B126A0A126AAF80E5129818
:1052FD0001126A18642F70439000011205F3644186
:10530D0070399000021205F3643D702F75F0011293
:10531D006A12126A0E126A0EE49019F6F0126AA859
:10532D0094065014126A18FE74AA2FF582E4341BE9
:0B533D00126A0A126AAF80E51248CA2B
:015348002242
:10966000126ACC12A2EE7A04790312B04A9019F26F
:10967000EFF07002FF229019F2E0FD2403F582E47E
:109680003404F583E024D9603224F8602124F560A5
:109690002D24FD601414602924FE601724E0601B53
:1096A000243F7020126ACC800D126A9C8008126AD6
:1096B0009C8003126A9C1251E2800C7F02227F037D
:0996C000227F04227F05227F01B4
:0196C900227E
:10A02500901612E07015FF126472E4FF12A06E9094
:10A035001B79EEF0A3EFF0E4FF802230032A7F01C5
:10A045001264727F0112A06E901A6CE0FCA3E0FD11
:10A0550012A6D5901B79EEF0A3EFF07F01127A6777
:10A06500901B63EEF0A3EFF022128B95901B61EE2F
:05A07500F0A3EFF02252
:10AA2400129264121A52BF0102800F126ACCE4FD22
:10AA340012574A129660EFB4010A12A025126590CB
:0CAA44007F018005126590E4FF1274860B
:01AA500022E3
:109ECA00901A1FE0FBA3E0FAA3E0F9901D59E0FF06
:109EDA0004F08F8275830022901A1FE0FBA3E0FA38
:109EEA00A3E0F9901D59E0FE04F08E82758300EF1D
:109EFA00020632F0901A1FE0FBA3E0FAA3E0F9226F
:109F0A00901A24E02403F582E43400F583E022EB7E
:089F1A00F0A3EAF0A3E9F02234
:10A41100901A25129F19EDD394004037901A2512F6
:10A421009ECD742D120632EDC3940AED500B2430EB
:10A43100FF901A25129F01801775F00A842430FFBE
:10A44100901A25129EE5ED75F00A84E5F02430FF9F
:04A45100129EED2248
:09A5A300901A25129F19A3EDF096
:10A5AC00A3F0901A28E02406FFE433FEA3E0FDC3D9
:10A5BC009FEE6480F8748098501B74032D129F10CA
:10A5CC00C313FF64206006901A25129EE5901A2989
:05A5DC00E004F080CD59
:01A5E1002257
:09574A00901A1F129F19A3EDF043
:10575300E4901D59129EFD7D0712A5A3129EFE9093
:105763000010125887129ECA743E120632E4FD12CC
:10577300A5A3129EFE900009125887901A24740D57
:10578300F0E4901A23F0129F0A20E042129ECA749A
:105793002C120632901A24E004F0E0FD12A5A39027
:1057A3001A24E02406129EFD129F0A541EFFC313FF
:1057B300FD12A411129F0A30E708129ECA742A121E
:1057C3000632901A23E004F0E0C3940840B8901A1C
:1057D30022E06401703B901602E064017033129E74
:1057E300CA742C120632E4FC74F02CF582E43415EE
:1057F300F583E0FF6008129EE20CECB406EA129E09
:10580300FE9015F7E0FD12A411129ECA742A120627
:1058130032129ECA743A120632901A24E02403F01C
:10582300E0FC90062BE0FFECC39F502074032C1286
:105833009F10FF129EE2901D59E0D394BE400A12BE
:105843009ECA747E12063280030C80D6901D59E0E6
:1058530024FFFFE434FFFE129EFE8F828E83120527
:10586300F3901D59B40D02800B129ED8740D1206CD
:1058730032901D59129ED8740A120632129ED5E434
:03588300120632D8
:0C58860022E0541EFFC313FD12A41122E7
:0AB2B500740129F9E43AFA0205DAFF
:10B16C00EF540FFFD39409EF50042430FF222437FF
:02B17C00FF22B0
:10A6990012B2B5FEE4FF12B2B5FD642A6008ED6E90
:10A6A900FE0FEFB47EF012B2B5FD12B2B5FCEEC4E6
:10A6B900540FFF12B16CEF6D60037F0022AF0612D9
:0BA6C900B16CEF6C60037F00227F018A
:01A6D4002263
:10AE46007B017A18796B12A699EF7002FF227B01BB
:0FAE56007A1779EB12A699EF7002FF227F012283
:06B3120048454C4C4F00C1
:104186004A1ADF000000000000000000004D1AC7B8
:10419600000000000000000000000000004F1AB8F8
:1041A6000000000000000000000000000000004FBA
:1041B6001AA400000000000000000000000000003B
:1041C60000421AD40000421A9D0000421A9F0000C5
:1041D600471A6E00000000000000431A900000001D
:1041E6004A1A93000000000000000000004A1A82EC
:0A41F60000000000000000000000BF
:103C97009019F2E0FBA3E0FAA3E0F98F82758300A5
:103CA7000205F3EF2BFFEE3AFEED39FDEC38FCA8E9
:103CB70004A905AA06AB07E075F00AA4FFE4FCFD1A
:103CC700EB2FFBEA35F0FAED39F9EC38F8A3E0FF12
:103CD700E4FEEB2FFFEE3AFEED39FDEC38FC22EB6C
:103CE7002430F07B0AE4FAF9F89019FEE0FCA3E02F
:103CF700FDA3E0FEA3E0FF22FD74DF2EF582E4348E
:103D07001AF583EDF00E0F74DF2EF582E4341AF501
:103D17008322E0FF9019F5E0FE04F074C72EF582C8
:103D2700E4341AF58322E024D0FFE434FFFE7C005C
:103D37007D0A020654EBF0A3EAF0A3E9F0E42212AD
:103D47000772E47B0AFAF9F8020772E024D075F0EB
:103D57000AA4FFA3E024D02F229019F7E0FFE4FC88
:103D6700FDFE229019F2E0FBA3E0FAA3E0F9A3E03D
:103D7700F58222E0FE04F074B82EF582E4341AF5D9
:103D87008322120772E4FB7A01F9F822F0A3F0A369
:103D9700F0A3F0A3F022AA06AB07E024D0FFE43497
:103DA700FFFE7D64120654EF2BFFEE3AFE22901AB7
:103DB70003E0FAA3E0FB7C017D90FFAE02120666EA
:103DC700ED4C22E024D0FDEC34FFCD2FFFED3E2259
:103DD70074A42FF582E4341AF583227B017A1879CB
:103DE7006B22901A03E0FEA3E0FF7C007D641206BD
:103DF70066ED4C229019F5E0FF04F074C72F223EC0
:103E0700F583EDF09019F3E004F022F0EFF58275F9
:103E17008300A3227B64FAF9F80206E79019F2E01F
:103E2700FEA3E0FF22E0F8A3E0F9A3E0FAA3E0FB9A
:103E370022E49019F2F0A3F022F09019F5E004F0D3
:103E470022D3901A77E09F901A76E02224D0FEE4DE
:103E570034FFF0A3CEF022F582E433F5830205F3B5
:103E67007BE87A03F9F80206E79019F2E004F022FA
:109993009016A3E0605C123D8C901ADA123CF3122D
:1099A3003D89123D89120772AD077F007EFE12AE1C
:1099B300A1123D8C901ADA123CF3123D8912077200
:1099C300AD077F017EFE12AEA1123D8C901ADA1212
:1099D3003CF3120772AD077F027EFE12AEA1901A0E
:1099E300DAE0FCA3A3A3E0FFE4AD077F037EFE124E
:0399F300AEA12200
:10AA5100901ADA1208A400000000E4FDFF12AA76A1
:10AA61007F0112AA767F027EFE12AEA1E4FD7F0372
:0DAA71007EFE02AEA17EFE12AEA1E4FD222B
:107D7800901AB3E0700F04F0901AD61208A400000D
:107D88000000027DFB901A357401F0A3741AF0A369
:107D98007482F0A37401F0A3741AF0A374B8F0A36A
:107DA8007401F0A3741AF0A374A4F07B017A1A7911
:107DB80093129CFB1203FC901AD6120898901ADAB8
:107DC800123CF3901AD6123E2CEF2B123CDBA31276
:107DD80008987F007E657DCD7C1D901ADA123E2CB6
:107DE800D3120828400A901ADA1208A400000000EA
:107DF800129993E4FF74B82F123D81E0FE74932F1B
:107E0800F582E4341AF583EEF00FEFB409E7E4FFE6
:107E1800123DD7E0FE74822FF582E4341AF583EE22
:087E2800F00FEFB40AEA7F013C
:017E3000222F
:107EE900E4901AB3F09016A3E0700D901ADA120814
:107EF900A400000000027F807F007EFE12AEF7BF63
:107F0900FF0612AA51027F807F01127F8BFBFA794B
:107F190001F81206E7C004C005C006C0077F0012B9
:107F29007F8BFBFAF978011206E7D003D002D00162
:107F3900D000EF2B123CDBC004C005C006C0077F90
:107F490002127F95FB7A01F9F81206E7D003D002F5
:107F5900D001D000EF2B123CDBC004C005C006C025
:107F6900077F03127F95D003D002D001D000123CC5
:107F7900D9901ADA120898901AD61208A4000000AB
:107F890000227EFE12AEF7E4FCFDFE227EFE12AE5A
:067F9900F7E4FCFDFE22EE
:037722009019F2C9
:10772500123D3CFFFE9019F2123C9A6009B42C01FF
:107735000E0FEEB401EF9019F2123C9AFD642C7015
:10774500030277F6E4FEEE24DF123D11EDF00E0F95
:10775500123CA2123CFF743AF00E123CA2FD123DFF
:107765000EEDF00E0F123CA2123CFF743AF00E1211
:107775003CA2FD123D0EEDF00E0F123CA2FD123D96
:107785000EEDF074DF2408123D11E4F0901614E0BC
:10779500FFC3940D901ADFE0501824D075F00AA4A9
:1077A500FEA3E024D02EFEC3740D9FFFC3EE9FFC05
:1077B500800C123D53FF901614E024F32FFCECC30C
:1077C5009418400474E82CFCECFF901AA2E4F0A392
:1077D500EFF075F00A842430901ADFF0EC75F00AAA
:1077E50084E5F02430A3F0901AE5123D52901AA1D9
:0177F500F0A3
:0177F6002270
:033E77009019F2AD
:103E7A00123D3C901A00123D93FF9019F5F09019EB
:103E8A00F2123C9A6011B42C069019F5E004F00F76
:103E9A009019F5E0B409E79019F2123C9AFE642CE5
:103EAA00700302400F9019F6EE123E121205F390BB
:103EBA0019F7123E12A31205F39019F8123E12A333
:103ECA00A31205F39019F9F0EF2404123E5E90193B
:103EDA00FAF074052F123E5E9019FBF0FB9019F66A
:103EEA00123D52901A01F09019F8123D52901A029E
:103EFA00F09019FA123D2DEB123DCBCF24D0CF34DE
:103F0A0007901A03F0A3EFF0C3901AA3E094089065
:103F1A001AA2E094004003023FB9901A01E004F0AB
:103F2A00E024E26026146040146060240360030207
:103F3A003FB9123DB56078EB54037005123DE97044
:103F4A006E901A02E0640270668017123DB5600A2C
:103F5A00EB5403705A123DE96055901A02E064026C
:103F6A00704D901A0104801C901A02E0FF640460EC
:103F7A000EEF64066009EF64096004EFB40B309039
:103F8A001A017401F0A3E004F08024901A0174016C
:103F9A00F0A3E004F0E0C3940D4014901A04E00486
:103FAA00F07006901A03E004F0901A027401F0E42B
:103FBA009019F5F0901A03E0FEA3E0FF129E6F90AD
:103FCA001CE9123D19EFF0901CEA123D19EFF0902E
:103FDA001CEB123D19EFF0901CED123D19EFF01297
:103FEA003DFB123D25742DF0901A02124010123D2D
:103FFA00FB123D25742DF0901A01124010123DFB60
:05400A00123D25E4F069
:10400F0022E0FF7E00129E6F901CEBE0FF9019F5EF
:10401F00E0FE04F074C72EF582E4341AF583EFF056
:10402F00901CEDE0FF9019F5E0FE04F074C72EF53B
:09403F0082E4341AF583EFF0224B
:10ABD300901613E0B40104D2A78002C2A7E4901A2E
:10ABE300D4F0A3F0901A6CF0A3F0C203127EE9E450
:07ABF300901AA1F0C2052237
:03AA7E009019F23A
:10AA8100123D3CFFFE9019F2123C9A6009B42C0170
:10AA91000E0FEEB402EF9019F2123C9AB44105D2B6
:08AAA100037F0122C2037F00C4
:01AAA900228A
:037E31009019F2B3
:107E3400123D3CFFA3F0123C976011B42C0690193C
:107E4400F5E004F00F9019F5E0B403EAE49019F5B5
:107E5400F0123D7A7430F0E4FE123C97FD9019F56F
:107E6400E0FC04F074B82C123D81EDF00F0EEEB47A
:107E740009E7123C97B42C030F80020F0F123C97B2
:107E8400FE9019F5E0FD04F074B82D123D81EEF07A
:107E94009019F5123D7AE4F00F0F9019F5F0FE12E7
:107EA4003C97FD9019F5E0FC04F074A42C123DDA23
:107EB400EDF00F0EEEB40AE7123C97B42C030F80DA
:107EC400020F0F123C97FF9019F5E0FE04F074A422
:107ED4002E123DDAEFF09019F5E0FF04F0123DD7D1
:047EE400E4F07F0146
:017EE8002277
:03A51F009019F29E
:10A52200123D3CFFFE9019F2123C9A6009B42C01D4
:10A532000E0FEEB407EF9019F2123C9A901A90F0B7
:10A542000F123CA2901A91F0E4A3F0901A91E0B499
:0EA552002C0C901A90E0A3F0901A907430F048
:01A5600022D8
:0B32CE009019F2EBF0A3EAF0A3E9F086
:1032D9009019FE1208A400000000901A6E742D12B5
:1032E9003D93A3F0E4A3F09019F5F0FF123D6A12A3
:1032F9003CA4FE600BB42C010F123E41EFB409EC63
:10330900123D6A123CA4FBB42C12901ADE7401F02F
:103319009019FE1208A4000000008050E4901ADE03
:10332900F0EBB42D09E4901A02123E408006901A7F
:10333900027401F0E49019F6F0123D6A123CA4FF00
:10334900642E6035EF24D0FF9019F6E024F7F5825A
:10335900E43419F583EFF09019F6E004123E40A326
:10336900E0D3940540D3901ADE7401F0901A8C12C0
:1033790008A4000000007F00229019F6E024FE60F6
:103389001014602814603C24037060123D600234FC
:103399003D9019F7E075F00AA4FFA3E07C002FFF28
:1033A900EC35F0FE3395E0FDFC02343D123D601230
:1033B9003E1BA804A905AA06AB079019F8123CBE42
:1033C90002343D9019F8123D63123E1BC004C0053A
:1033D900C006C007123D60123E67D003D002D0017B
:1033E900D0009019F9123CAA02343D9019F8123D07
:1033F90063123E67C004C005C006C007123D607B6A
:10340900107A27F9F81206E7D003D002D001D000CC
:10341900EF2B123CDBC004C005C006C0079019F9A8
:10342900123D63123E1BD003D002D001D000901987
:10343900FA123CAA9019FE120898901A02E0901903
:10344900FE7008123CF31208048003123CF3901A30
:103459008C120898123CF0E41203BE7BA17AF87929
:1034690051784012018E1203FC9019FE1208987BC4
:10347900A07A8679017800123CF0123D46EB24309F
:10348900901A6EF0E47B107A27123CEE123D46EB5F
:103499002430901A6FF0E47BE87A03123CEE123D77
:1034A90046EB2430901A70F07B64123CEC123D46D6
:1034B900901A71123CE6123D46901A72123CE612BD
:1034C9000772EB2430901A73F0E4A3F0901A02E02B
:0A34D9007006901A6E742DF07F014A
:0134E30022C6
:106AD300C3901A77E0940A901A76E0940050037FEB
:106AE30000229016A6E0FEA3E07A002400FFEA3E0F
:106AF300FE123E489E4007E4F0A3F07F02222003EB
:106B0300037F0022901A9DE07002A3E07002FF222F
:106B13002004037F0022901AD4E0FEA3E0FF901A22
:106B23006CE0FAA3E0FBD39FEA9E4006EB9FFFEAEB
:106B33008013901A6CE0FEA3E0FFC3901AD5E09F88
:106B4300FF901AD4E09E9019F4F0A3EFF09019F49B
:106B5300E0FEA3E0FFD394B4EE9400401074689F6A
:106B63009019F3F074019E9019F2F0800F9019F4CC
:106B7300E0FFA3E09019F2CFF0A3EFF0D39019F365
:106B8300E094199019F2E094004006E4901A76809C
:106B93002F9015ECE024FE600F14601014601114A4
:106BA300601224047D14800E7D28800A7D3C8006BB
:106BB3007D5A80027D78EDFF123E4894004016E432
:106BC300F0A3F0901A6CE0FFA3E0901AD4CFF0A3E7
:076BD300EFF07F01227F00BB
:016BDA002298
:038455009019F289
:10845800123D3CFFFE9019F2123C9A6009B42C01BF
:108468000E0FEEB407EF9019F2123C9AB42C09E4FF
:10847800901A9D123D95FF22E4FE9019F2123C9A43
:10848800FD642E601074F52EF582E43419F583ED41
:10849800F00F0E80E5EE24FD600C0470249019F5B1
:1084A800123D2DA3800F9019F6123D2D9019F5124B
:1084B8003D9D9019F7123DCA901A9DF0A3EFF080E8
:1084C8000A9019F5E0901A9D123E53901A9DE0FC0F
:1084D800A3E0FDE41203C37B567A0E79ED783F12D0
:0F84E800018E1203FC901A9FEEF0A3EFF07F00BD
:0184F7002262
:0383B0009019F22F
:1083B300123D3CFFFE9019F2123C9A6009B42C0165
:1083C3000E0FEEB408EF9019F2123C9AB42C05C2CA
:1083D300047F0022E4FE9019F2123C9AFD642E60A1
:1083E3001074F52EF582E43419F583EDF00F0E8049
:1083F300E5EE24FD600C0470249019F5123D2DA3C5
:10840300800F9019F6123D2D9019F5123D9D90198C
:10841300F7123DCA901A6CF0A3EFF0800A9019F599
:10842300E0901A6C123E53D204901A6CE0FEA3E063
:10843300FF129E6F901CEAE0901AB4F0901CEBE0E0
:10844300901AB5F0901CEDE0901AB6F0E4A3F07F1B
:018453000127
:018454002205
:1089DB00200503028A6FC205123E38123E2324B8CB
:1089EB00F582741A3EF583E0FD74082FF582741638
:1089FB00123E067003123E709019F2E07004A3E071
:108A0B00640870D7123E38123E2324A4F582741AE0
:108A1B003EF583E0FD74182FF5827416123E067036
:108A2B0003123E709019F2E07004A3E0640970D752
:108A3B0012A71112A2597BFF7AB3791212A89D12B9
:108A4B003E38123E23C3EE9402501974E82FF58280
:108A5B0074153EF583E0FF12B2EC123E0B7003125D
:048A6B003E7080DEFB
:018A6F0022E4
:1090630012AE46EF6401707A123DE212AA7E20032B
:1090730003C20522123DE2127722123DE2123E772D
:10908300123DE2127E31123DE2128455123DE2128C
:1090930083B0EF24FF92047B017A1779EB1232CE6F
:1090A3007B017A1779EB12A51F12293D1289DB90F8
:1090B3001612E06401702B9015EDE0600DA3E0FF44
:1090C300901AA1E0B5070312A996E4901A75F090DF
:1090D30015ECE0600D126AD3901A75EFF06003127D
:0390E300A9962229
:104D7A00E4FBFA7842E0FCA3E0FDA3E0FEA3E0FF37
:104D8A0022E4FBFA7841120297E4FBFAF9783F121F
:104D9A00009D1203FC901A31EEF0A3EFF0901A3145
:104DAA00E0FEA3E0FF7C007D0A120666EF2430FFD6
:104DBA00901A2EE0FBA3E0FAA3E0F9EF1206209086
:104DCA001A31E0FEA3E0FF7C007D0A120666ED249C
:104DDA0030FF901A2EE0FBA3E0FAA3E0F922E024C8
:104DEA00D0FDE434FFFC0203C37F007E407D1C7CBF
:104DFA0046E0F8A3E0F9A3E0FAA3E0FB227401F08D
:104E0A00A3741AF0A374A4F0A37401F0A3741BF0A2
:104E1A007465A3F0A37401F0A3227B0104F0A374C8
:104E2A0016F0A37418F0A3EBF0A3741BF0A3746537
:104E3A00F0A3EBF0A3741BF0A37457F02279207847
:104E4A0041E4FBFA02018EE4FBFA79B412009D9068
:104E5A001A4D020898901711E0FEA3E07C00240086
:104E6A00FDEC3EFCE40203C374902FF582E4341B8C
:104E7A00F58322EBF0A3EAF0A3E9F022EC1203BED9
:104E8A009019F9020898901A31E0FCA3E0FD221269
:104E9A00018E901A5A020898F0901CEDE0901B952A
:104EAA00F0E4A3F0227BCD7ACC79CC783D02018E56
:104EBA007B0A7AD77923783C02018E1203FCE4023A
:104ECA0003BE8F827583001205F3FE22E4FBFAF912
:104EDA00784022901D1D120898901D2522F0901CE2
:104EEA00E9E0901B91F0227A0F7949784002029703
:064EFA009019FD0208986A
:10AD8600901A5E1208987FDA7E0F7D497C40901AF1
:10AD96005E124DFB12018EE4FBFA7934784302020F
:01ADA6009715
:0673A100901A3E124E7D21
:1073A700E4FF901A3E124DDF124ECC74492FF5823E
:1073B700E4341AF583EEF00FEFB408E6901A4B1297
:1073C7004DE8124E47C004C005C006C007901A4CCE
:1073D700124DE8D003D002D001D00012009DC004A6
:1073E700C005C006C007901A4E124DE8124EAFD026
:1073F70003D002D001D00012009DC004C005C00612
:10740700C007901A4F124DE8124EBAD003D002D0DF
:1074170001D00012009D901A45120898901A49123F
:107427004DE8124E47C004C005C006C007901A4A6F
:10743700124DE8D003D002D001D00012009DC00445
:10744700C005C006C0077970901A45124D7A12021E
:1074570097D003D002D001D00012009D901A41129C
:107467000898901A50E0B4530F901A41124D7F12AA
:0E74770003AD901A41120898901A41124D7FF1
:0174850022E4
:0667B800901A3E124E7D16
:1067BE00E4FF901A3E124DDF124ECC74492FF58233
:1067CE00E4341AF583EEF00FEFB409E6901A4C128A
:1067DE004DE8124E47C004C005C006C007901A4DC2
:1067EE00124DE8D003D002D001D00012009DC0049B
:1067FE00C005C006C007901A4F124DE8124EAFD01A
:10680E0003D002D001D00012009DC004C005C00606
:10681E00C007901A50124DE8124EBAD003D002D0D3
:10682E0001D00012009D901A45120898901A4A1233
:10683E004DE8124E47C004C005C006C007901A4965
:10684E00124DE879C87842124E4BD003D002D001D7
:10685E00D00012009DC004C005C006C007901A4BA0
:10686E00124DE8D003D002D001D00012009DC0041A
:10687E00C005C006C007E4FBFA79707842901A454D
:10688E00124D7F120297D003D002D001D000120019
:10689E009D901A41120898901A51E0B4570F901A11
:1068AE0041124D7F1203AD901A41120898901A4171
:0368BE00124D7FF9
:0168C10022B4
:1059D80012AD86901A4E120898901A46124D7F12F0
:1059E800AD86901A52120898901A52124DFB901ACE
:1059F8004E124D7F120099901A56120898901A4A22
:105A0800124D7F12AD86C004C005C006C007901AAB
:105A180042124D7F12AD86D003D002D001D00012C1
:105A28000099124ED6120297124C50C004C005C0FD
:105A380006C007901A621208A440000000D007D0E0
:105A480006D005D004125349C004C005C006C007DB
:105A5800901A52124D7F124C3AC004C005C006C0BD
:105A680007901A4E124D7F124C3AD003D002D00143
:105A7800D00012018ED003D002D001D00012018EC6
:105A8800C004C005C006C007124ED6901A56124D63
:105A98007F120297124C50C004C005C006C0079080
:105AA8001A621208A440000000D007D006D005D022
:105AB80004125349D003D002D001D00012009D1225
:105AC800825E12A74C124ED6124E99901A5A124D57
:105AD8007F7B197A5179C77845124E99901A5A12D4
:105AE8004DF312018EE4FBFAF9783F12009D127013
:105AF800DCE4FBFA79207841120297124E9C901A46
:045B08005A124D7F61
:015B0C002276
:109CFB001273A1901D29120898901A35124DDF127C
:109D0B0067B8901D25120898901A38124DDF127300
:109D1B00A1901D21120898901A3B124DDF1267B8C3
:109D2B00124EDD124D7F901A42120898901D21128F
:109D3B004D7F901A46120898901D1D124D7F901A58
:0D9D4B004A120898901D29124D7F0259D828
:05647200901A2EEFF06E
:106477007009901A35124E24126573901A2EE0B4E3
:106487000118901A35124E07124E3F7B017A1A797E
:10649700B8129CFB901D2D120898901A2EE0B4029A
:1064A70024901A357401F0A37416F07418124E1C58
:1064B700741AF0A374B8124E1D741AF0A374A4F0E2
:1064C7007B01126573E4901A31F0901A31E0FFC333
:1064D7009408500D124E72E4F0901A31E004F080E7
:1064E700E9901D2D124DF31203345028901D2D12E3
:1064F7004D7F126581901B90742A124EE7A3742E6C
:10650700F0901CEAE0901B93F0901CEBE0901B943A
:10651700124EA22279C8901D2D124D7A120297129F
:106527006581901CECE0901B90124EE7901CEAE00E
:10653700901B92F0901CEBE0901B93F0A3742E122B
:106547004EA2901A31F0901A31E0FFC39403501B0A
:10655700124E72E0B43014901A31E02490124E7546
:0B6567007420F0901A31E004F080DB9B
:10657200227A167908129CFB901D2D12089822127D
:0E65820003FC901A2FEEF0A3EFF0129E6F2292
:108F5C00AB07AA06A905A804901A45124D7F12006A
:108F6C0099C004C005C006C007901A41124DFB9071
:108F7C001A49124D7F120099901A55120898D00771
:108F8C00D006D005D004128776124E59E4FFFE7D30
:108F9C00347C43901A4D124DFB12018E1203AD7BA3
:108FAC00D8124EF1124E59901A4D124D7F78421232
:108FBC004E51E4FFFEFDFC901A4D124DFB12033492
:108FCC00500B901A4D124D7F7843124E51901A4D02
:038FDC00124D7FB4
:018FDF00226F
:109D58001273A1901D29120898901A34124DDF121F
:109D680067B8901D25120898901A37124DDF1273A4
:109D7800A1901D21120898901A3A124DDF1267B867
:109D8800124EDD124D7F901A41120898901D211233
:109D98004D7F901A45120898901D1D124D7F901AFC
:0D9DA80049120898901D29124D7F028F5C12
:058B9500901A2EEFF024
:108B9A007018901A34124E247A167908129D5812B7
:108BAA0003FC901A2FEEF0A3EFF0901A2EE0B40116
:108BBA000C901A34124E07124E3F128C0D901A2E38
:108BCA00E0B40223901A347401F0A3741AF0A37467
:108BDA00A4124E1D7416F0A37408124E1D7416F0DA
:108BEA00A37418F0128C0DD3901A30E09467901A7F
:108BFA002FE094014004E4F0A3F0901A2FE0FEA3C2
:028C0A00E0FF89
:108C0C00227B017A1A79B8129D581203FC901A2F04
:068C1C00EEF0A3EFF022D0
:100046009019F51208989019F9124D7FA3124DFBDD
:100056001203345004E4FEFF229019F9124DFBA35B
:10006600124D7F1200999019F5124DFB120297124C
:100076006370E4FBFA7934784312018E7BDA124E10
:05008600F11203FC2251
:057A67009019F2EFF0A0
:107A6C00702B901D2D124D7F124EC5C004C005C049
:107A7C0006C007124E5F124E8A901B9B124D7F124E
:107A8C004EFAD007D006D005D004127B279019F2FD
:107A9C00E0B4012E901D2D124D7F124EC5C004C0B6
:107AAC0005C006C007901A8C124D7F124E86901B93
:107ABC009B124D7F124EFAD007D006D005D004127F
:107ACC007B279019F2E064027033901D2D124D7FCC
:107ADC00124EC5C004C005C006C007901A8C124DCA
:107AEC007F124E86124E5F124EFAD007D006D0058A
:107AFC00D0041200469019F3EEF0A3EFF0D39019D6
:107B0C00F4E0945A9019F3E094004006E4F0A37466
:0A7B1C005AF09019F3E0FEA3E0FF19
:0D7B2600221200469019F3EEF0A3EFF022BA
:10A6D500901A2EECF0A3EDF0C3901A6DE09F901A3E
:10A6E5006CE09E5010901A2EE0FCA3E0FDC3EF9D98
:10A6F500FFEE9CFE22C3901A2FE09FFF901A2EE0DA
:0CA705009EFEC374689FFF74019EFE223C
:0654AF00901A2E124E7D42
:1054B500A3EEF0A3EFF0901713E0FF60030255A2EF
:1054C500124E90C39417EC94005007124DDC744EA5
:1054D500804AC3ED9444EC94005007124DDC744EA1
:1054E500801EC3ED9471EC94005007124DDC744599
:1054F500802AC3ED949EEC94005013124DDC745336
:10550500120620124DDC900001744502559FC3ED33
:1055150094CBEC94005013124DDC745312062012F8
:105525004DDC900001742002559FC3ED94F8EC9476
:10553500005007124DDC7453802AC3ED9425EC947A
:10554500015013124DDC7457120620124DDC9000E9
:105555000174200255D1C3ED9452EC9401501312FD
:105565004DDC744E120620124DDC9000017457027A
:1055750055D1C3ED9468EC9401124DDC500F744E77
:10558500120620124DDC9000017420800D742D123E
:105595000620124DDC900001742D0255D1EF6401F7
:1055A5007012124E90E41203C379F0124D8B9000E5
:1055B50001EF8018901713E06402701A124E90E400
:1055C5001203C37920124D8B900001EF1206329021
:1055D5000002E4020632124DDC742D120620124D33
:1055E500DC900001742D120632900002E41206329E
:0955F5009017137401F012A711C4
:0155FE00228A
:107B33005620002D2D2D2E2D00404320002D2D2DC0
:107B43002D2E2D00685061002C00475053204F46C6
:107B53004620004B6D0047505320576169742E2E09
:107B63002E2000533A0020004B6D202020002D2DA5
:107B73002D00244130322C562C00576169742E009D
:107B83000D0A00244130322C412C0050302D3E0090
:107B93004B6D20002D2D005350443A004B6D202097
:107BA30000414C543A004D2C00202D2D2D2D2D003D
:107BB300244130322C4F2C00475053204F4646006F
:107BC3005350443A2D2D2D2D2D2D4B6D68202046DD
:107BD300697865642000616C743A2D2D2D2D2D2D4F
:107BE3004D002D2D2D2D202D2D202D2D2020002439
:067BF3004630310D0A00CE
:1020D400901A3A74FFF0A3747BF0744BA3F07B0165
:1020E4007A04790322E4FAF9F8901A12E0FCA3E0E6
:1020F400FDA3E0FEA3E0FF12A455E47B0AFAF9F87D
:1021040012A455EB2430901A0FFFE0FBA3E0FAA3CE
:10211400E0F9EF020620E09019F4FFE0FE04F07409
:10212400FD2EF582E43404F58322120620901A1061
:10213400E475F0010206BBEEF0A3EFF0901A24E080
:10214400FCA3E0FDA3E0FEA3E0FF22901A127D0AA7
:10215400E0FEA3E0FF7C00020666E4900403F09036
:102164001A3A74FFF0A322FBE024D0FFE434FFFE0C
:102174007D0A120654A3E024D0FDEC34FFCD2FFFDA
:10218400ED3E229019F6E0FEA3E0FFE4FCFD7B6443
:10219400FAF9F81206E7A804A905AA06AB079019EC
:1021A400F8E0FEA3E0FFE4FCFDEB2FFFEA3EFEEDCA
:1021B40039FDEC38FC22901A0FE0FBA3E0FAA3E00F
:1021C400F9221200267401901A3AF0A37404F0A3C1
:1021D40074FD227B019019F2E0FCA3E0FDA3E0FF73
:1021E400A3E0901A14CFF0A3EFF09019F6E0FFA348
:1021F400E0901A16CFF0A3EFF09019F8E0FFA3E0F7
:10220400901A18CFF0A3EFF09019FCE0221203BE4D
:102214007B8F7AC27975783D12018EE4FBFA79A03E
:10222400784012009DE4FBFA79207841120297125B
:1022340003FC9019FAEEF0A3EFF07B0122E4FFFE19
:102244007C41901A24E0F8A3E0F9A3E0FAA3E0FBB0
:10225400227A1C79019019F2E0FCA3E0FDA3E0FFCF
:10226400A3E022EC1203BE7B007A5079C3784702C4
:102274000297E0FCA3E0FDA3E0FEA3E02405FFE455
:102284003EFEE43DFDE43CFCE47B0AFAF9F822EF6F
:10229400F09019F4E0FF04F074FD2F22E4FBFA78C7
:1022A4004112018EA804A905AA06AB0722EBF0A3EC
:1022B400EAF0A3E9F0A322120099901A24020898E4
:1022C400ED2430FF901A0F221208989019F2E0FEC4
:1022D400A3E0FFE4FCFD22F583E0FDAC070F74FDF1
:1022E4002C22EF2430FF901A0F22AA06AB07E02419
:1022F400D0FFE434FFFE7D64120654EF2BFFEE3A68
:10230400FE22901A3A7401F0A322E0FCA3E0FDEC53
:102314000203C3ED2430FF901A0F22EB2FFFEA3E95
:10232400FEE93DFDE83CFC020898901A14CFF0A3A6
:10233400EFF09019FAE0FFA3E0901A1622901A1415
:10234400CFF0A3EFF09019F6E0FFA3E0901A162265
:1023540074FFF0A3747BF0A3747122ECF0FEA3ED80
:10236400F0FF7C007D64120666EF22E024D0FFE4D7
:1023740034FFFE7C007D0A020654120620901A10D7
:10238400227C007D0A020666EFF0901CEBE0FF223F
:10239400EFF0901CEDE0FF227B407A42790FF802C7
:1023A40006E79019FCE0901A16F07B01227401F004
:1023B400A3741AF0A374B4221202970203FC120647
:1023C40020901A10227B107A27F9F80206E7747B12
:0523D400F0A374832258
:06B318001220E202A787EB
:09507300901A0F1222B1120898E4
:10507C00E4FFFE7D347C43901A1612224912009DE7
:10508C001222BEE4FBFA79A078411221401223BC13
:10509C00901A1A12213BC004C005C006C007901A12
:1050AC001A12230E79A01222A0D007D006D005D058
:1050BC00041222BBE4FBFAF978401221401223BC03
:1050CC00901A1C12213BC004C005C006C007901AE0
:1050DC001C12230EE4FBFAF978401222A5D007D05B
:1050EC0006D005D0041222BB7D4012224112018E43
:1050FC001203FC901A1EEEF0A3EFF0E4FFFE7DB459
:10510C007C42901A1212224912009D1222BEE4FB1C
:10511C00FA792078411221401223BC901A201221D6
:10512C003BC004C005C006C007901A2012230E799C
:10513C00201222A0D007D006D005D0041222BB1218
:10514C0021401203FC901A22EEF0A3EFF0A31221DF
:10515C0043C004C005C006C007901A2212230E12C9
:10516C0022A8D007D006D005D0041222BB7DC012D5
:10517C00224112018E1203FC901A1AA3E02441FD65
:10518C00901A0F1221BDED120620901A20A3E024D4
:10519C0041FD901A0F1221BD900001ED12063290C4
:1051AC001A1CA3E02430900002120632901A22A39B
:1051BC00E02430900003120632901A1EA3E0244122
:1051CC00900004120632EF24419000051206329032
:0651DC000006E4020632A9
:10805000901A0F1222B112235F2430901A0F1221AE
:108060000D1221BA1205DAB430057420120620125E
:10807000213112214F12238512231712210E1221B2
:108080003112214F12231712210E1221311221BA5F
:10809000744012212E901A14122152EF122318123A
:1080A000210E122131901A1412215212231712217B
:1080B0000E1221311221BA742712212E901A161293
:1080C0002152EF12231812210E122131901A16128A
:1080D000215212231712210E1221311221BA7422B9
:1080E00012212E1221BA742012212E901A18E0FFAC
:1080F000901A0F12210E1221311221BAE402062029
:10756B00901A0F1222B11208987B807A967998782C
:10757B0000901A1212214312A455EF122108901AEF
:10758B000F1221BD1205DAB43005742012062090BB
:10759B001A101221347B407A42790F78001220EDB9
:1075AB00901A101221347BA07A8679017800122070
:1075BB00ED901A10122134901A0F1221BD742E1255
:1075CB0023C2122134E47B107A271220EB901A107D
:1075DB00122134E47BE87A031220EB901A1012216B
:1075EB00347B641220E9901A101221347B0A12208A
:1075FB00E9901A1012213412228C901A1212214384
:10760B00122104901A10122134901A0F1221BD74FA
:10761B00401223C2122134901A0F1221BD74201272
:10762B0023C2122134901A16E012210A901A10125A
:0C763B002134901A0F1221BDE402062039
:1072B700901A0F1222B112235F1222C512210E90CB
:1072C7001A0F1221BD1205DAB430057420120620F8
:1072D700901A10122134901A121221521223851279
:1072E70022C412210E901A10122134901A12122160
:1072F700521222C412210E901A10122134901A0F22
:107307001221BD744012237E122134901A141221C7
:1073170052EF1222C512210E901A10122134901A20
:10732700141221521222C412210E901A1012213463
:10733700901A0F1221BD742E12237E122134901A37
:1073470016122152EF1222C512210E901A10122185
:1073570034901A161221521222C412210E901A10BA
:10736700122134901A0F1221BD742712237E122185
:1073770034901A0F1221BD742012237E12213490EB
:107387001A18E0FF901A0F12210E901A10122134CA
:0A739700901A0F1221BDE402062037
:105B0D00901A0F1222B1ECF0A3EDF0901A19E024C7
:105B1D0032F0901A18E03400F0D3A3E09463901A99
:105B2D0018E09400400E901A17E004F07006901AD9
:105B3D0016E004F0D3901A17E09463901A16E094CF
:105B4D00004012E4F0A3F0901A15E004F0700690F6
:105B5D001A14E004F0D3901A15E0943B901A14E057
:105B6D0094004012E4F0A3F0901A13E004F07006D4
:105B7D00901A12E004F0901A1BE0901A127006129F
:105B8D002152EF801B7D641221541222E612210E48
:105B9D00901A10122134901A12122152122385EDEF
:105BAD001222E712210E901A10122134901A12129D
:105BBD002152ED1222E712210E901A10122134906B
:105BCD001A141221521222E612210E901A101221CD
:105BDD0034901A14122152ED1222E712210E901A4E
:105BED0010122134901A0F1221BD742E120620901E
:105BFD001A10122134901A161221521222E6122175
:105C0D000E901A10122134901A16122152ED1222F2
:105C1D00E712210E901A10122134901A1AE0FF90FB
:105C2D001A0F12210E901A10122134901A0F1221F0
:055C3D00BDE402062099
:10293D00901AB912236F901AB81222EE901ABA1289
:10294D00217A9019F2F0A3EFF0901ABB12216C903E
:10295D0019F4F0A3EFF0901ABE12216C9019F6F055
:10296D00FAA3EFF0901AC012216B9019F8F0A3EFB3
:10297D00F0901AC2E09019FCF0901A0DF0AF03AE72
:10298D0002E4122191C004C005C006C0079019F4DD
:10299D001222D21223C9D003D002D001D000EF2BC6
:1029AD00FFEE3A1221B212228C1206E79019FD1297
:1029BD0022CC12239CC004C005C006C007E47B06D0
:1029CD00FAF9F89019FD12214312A455D003D00243
:1029DD00D001D0009019FD12231F9019FD122276FF
:1029ED0012A4559019FD1208989015FFE0701090E3
:1029FD0019FD1221431223A67A1C790112756B90D1
:102A0D0015FFE06402701612218712221112225551
:102A1D0012232E122207901A18F01280507A1A796A
:102A2D00B81221D7901A1AF0E4A3F0125B0D90158D
:102A3D00FFE0B401127B011222551223411222072D
:102A4D00901A18F01272B7901AA512236F901AA44B
:102A5D001222EE901AA612217A9019F2F0A3EFF03D
:102A6D00901AA712216C9019F4F0A3EFF0901AAA06
:102A7D0012216C9019F6F0FAA3EFF0901AAC122116
:102A8D006B9019F8F0A3EFF0901AAEE09019FCF0EE
:102A9D00901A0EF0AF03AE02E4122191C004C005EE
:102AAD00C006C0079019F41222D21223C9D003D048
:102ABD0002D001D000EF2BFFEE3A1221B212228C80
:102ACD001206E7901A011222CC12239CC004C005F5
:102ADD00C006C007E47B06FAF9F8901A01122143EB
:102AED0012A455D003D002D001D000901A011223A8
:102AFD001F901A0112227612A455901A01120898ED
:102B0D009015FFE07010901A011221431223A67A3E
:102B1D001B79D412756B9015FFE06402701A1221A7
:102B2D00871222117A1B79D412225912232E1222C6
:102B3D0007901A18F01280507A1A79A41221D790A2
:102B4D001A1AF0A37401F0125B0D9015FFE0B40199
:102B5D00167B017A1B79D4122259122341122207B6
:102B6D00901A18F01272B7901A0DE09019FDB44E2C
:102B7D000812214312226780091221431222671283
:102B8D0003AD901A05120898901A0EE0901A01B430
:102B9D004508122143122267800912214312226730
:102BAD001203AD901A091208987B017A1B79C09017
:102BBD001A09122143901A16120898901A0512211B
:042BCD0043025073FC
:10002600E4FEEEC39F50151221237420F074FE2EB9
:0C003600F582E43404F583E4F00E80E66B
:01004200229B
:109F79007F0A9004FDE4F0A3DFFCE49019F4F07B80
:109F890064FAF9F8901ADA122143120772129E6FD5
:109F9900901CEC12211AEFF0901CE912211AEFF033
:109FA900901CEA12211AEFF0901CEB12211A1222CE
:109FB90093122126742EF0901CED12211A1222936D
:059FC900122126E4F066
:019FCE002270
:10589200200879128ED7122306741DF0743C122050
:1058A200E012958B122163747BF0A374331220E112
:1058B2001259CA300F0C7401F0A3741CF0A37421A6
:1058C200800A74FFF0A3747BF0A374361220E112F5
:1058D200958B122163747BF0A3743C1220E1125960
:1058E200CA300F0C7401F0A3741CF0A37416800A62
:1058F20074FFF0A3747BF0A374401220E112958B25
:10590200122163747BF0A3744702595B90062AE06C
:105912007023122163747BF0A3744D1220E112599B
:10592200D11221C91220E112958B122163747BF0EE
:10593200A37456802420032A122163747BF0A3747B
:10594200591220E11259D11221C91220E112958B6C
:10595200122163747BF0A374561220E112958B021C
:1059620059C3300362122163747BF0A37466122060
:10597200E112958B122306741AF0A374901220E19F
:1059820012958B122163747BF0A374691220E112C9
:10599200958B129F791221C91220E112958B122147
:1059A20063747BF0A3746B1220E112958B901A3A08
:1059B2003004051223B180031223541220E1129500
:1059C2008B1220D412958B2212958B901A3A2212A6
:0659D200958B129F792263
:0688AD009019F412089876
:1088B3007F0A9004FDE4F0A3DFFCE49019F8F09044
:1088C30019F4E0FCA3E0FDA3A3EC33501BA3122295
:1088D30098122126742DF09019F4122143120804E2
:1088E3009019F4120898800C9019F812229812210A
:1088F300267420F09019F4A3122148129E6F901C45
:10890300ECE09019F812211EEFF0901CE9E0FF90C3
:1089130019F812211FEFF0901CEAE0FF9019F812EA
:10892300211F12238C9019F812211F1223949019DE
:10893300F812211FEFF09019F8122298122126E461
:01894300F043
:018944002210
:109F22007D0A9004FDE4F0A3DDFCE49019F4F01244
:109F32009E6F901CECE0FF9019F412211FEFF0903D
:109F42001CE9E0FF9019F412211FEFF0901CEAE0E7
:109F5200FF9019F412211F12238C9019F412211F61
:109F62001223949019F412211FEFF09019F4122287
:069F720098122126E4F024
:019F780022C6
:109353001236E412215E747BF0A374751220E112BD
:10936300958B7F0E1221C61220E112958B12216379
:10937300747BF0A3747D1220E112958B1220D4121A
:10938300958B1220D412958B1220D412958B122018
:10939300D412958B1220D412958B1220D412958B54
:1093A3001258921221631223581220E112958B1244
:1093B30020D412958B1221631223D21220E112952D
:0493C3008B02B3184E
:10A620007D0A9004FDE4F0A3DDFCE49019F4F0123F
