:0300030002AECD7D
:10AECD00C0E0C083C082901E81E4F0A3F0D082D098
:04AEDD0083D0E0320C
:10AD4900E4900000F0A3F0901E83F0A3F0C28CC23F
:0BAD59008D758CDCF58AD28CD2A9220B
:109B0F00C2A3E4F593F594F591F592F595F596F5D5
:109B1F00B1F5B2F5B3F5B4F5C9F5CA75968475B25A
:109B2F0042901B39F0C2A67F017E0012AE16D2A65C
:109B3F00901B39E004F0E0C3940240E912ADE61245
:109B4F00AA6712B07812AD6412AF9612AB1912ACAD
:0F9B5F00BD12A9F412A9A312AF7412AD49D2AF6F
:019B6E0022D4
:03000B000280F779
:1080F700C0E0C0F0C083C082C0D075D000C000C04F
:1081070001C002C003C004C005C006C007129DFA23
:10811700900DC6E004F0901021E004F090127CE08E
:1081270004F0900001E004F07006900000E004F015
:10813700901E84E004F07006901E83E004F0D39054
:108147001E84E094C7901E83E094004034E4F0A3BB
:10815700F0901E82E004F07006901E81E004F0901B
:108167001A32E004F0901BBEE004F07006901BBDCD
:10817700E004F0901E8AE004F07006901E89E00487
:10818700F0D007D006D005D004D003D002D001D05C
:0C81970000D0D0D082D083D0F0D0E032F5
:10A21B00129B0F901769E0FF7004C2B68002D2B692
:10A22B00EFB4010312A97812391F12A0F412998806
:10A23B001299EA12A189129A4C12AB5F1293E2D3D4
:10A24B00900001E094C7900000E0940040DFE4F040
:07A25B00A3F012A43380D62A
:105FD800205665723A2000207C2000435055204905
:105FE800443A2000566F6C746167653A2000205669
:105FF8007C200053544152543100555639385F388B
:1060080036385F3232303433305F4434004E4F43D9
:10601800414C4C00333133332E39304E000031328D
:106028003032322E383045005556393800000000DD
:106038000000000000000000000000000000000058
:106048000000000000003230322E3134312E31375A
:10605800362E3200000000000000000000000000A2
:106068000000000000000000000000000000000028
:1060780000000000000000004869576946695F3366
:1060880034353241455F32470031333031333638A9
:106098003430303000312C3433312E303430302C21
:1060A8003433312E303430302C302C332C30200027
:1060B8000000000000000000312C3134342E36344A
:1060C80030302C3134342E363430302C302C332CC4
:1060D800302C302000000000000000534F53000017
:1060E80000000000000000000000000000000000A8
:0960F8000000000000000000009F
:10A05C00ECF5C3AF058FC41205DAF5C275C65A7597
:10A06C00C6A522FFE43401FEEC93FD12AADAEC93B0
:10A07C0022AD07AC0675C78075F51622ECF5C3AF9B
:10A08C00058FC4227FD112AADA7FD202AADA7D010F
:0CA09C0012AADA1D22E4FD12AADA0D223D
:1084E800901B3DEFF012A4AE128D0C901B3DE06482
:1084F800017BFF7A5F79D8703512A6B87BFF7A6066
:10850800790212856C7A5F79E312A6B87B017A1E2C
:10851800793512856C7A5F79EC12A6B87B017A1EE0
:10852800797812A6B87BFF7A5F79F602A6B812A608
:10853800EB7BFF7A60790212857B7A5F79E312A67A
:10854800EB7B017A1E793512857B7A5F79EC12A66E
:10855800EB7B017A1E797812A6EB7BFF7A5F79F6BE
:1085680012A6EB2212A6B87BFF7A5F79DF12A6B8B3
:108578007BFF2212A6EB7BFF7A5F79DF12A6EB7BEB
:02858800FF22D0
:0EAFE400E4F5C7F5C5F5C675C3FF75C4FF22B9
:10AF1A0012A07D75C50112A08812A06800AFC202F6
:02AF2A00AFE492
:10AEE100AD07AC0612A08812A08175C50312A06837
:03AEF10002AFE4C9
:10AB810012A07D75C50212A05C000DBD00010C7400
:10AB91000129F9E43AFA901B43E014F070E802AF9E
:01ABA100E4CF
:07AAD3007F2E12AADA7F2F8B
:10AADA00AB07AA0612A08175C502EAF5C3AF038FB8
:0CAAEA00C4AF058FC212A0680002AFE4E8
:10A9CC0012A07D75C5021205DA601212A05C000D92
:10A9DC00BD00010C740129F9E43AFA80E912A0884F
:08A9EC00E412A0660002AFE4D2
:10A56200E4FFFE12AEE1E4901B7AF0A3F0901B7AB6
:10A57200E0FEA3E0FF242FF58274173EF583E0FD91
:10A5820012AADA901B7BE004F07006901B7AE004BA
:0AA59200F0C3901B7AE0940240D35E
:01A59C00229C
:10AA6700E4FBFAAF03AE0212AF1A742F2BF5827410
:10AA7700173AF583EFF00BBB00010AE4B503E4EAEC
:03AA8700B402E036
:01AA8A0022A9
:05269C00901B3DEFF072
:1026A100E4FFFE12AEE1E4FDFF12AADA7D147F0120
:1026B10012AADAE4FD7F0212AADA7F0312AADA7FF4
:1026C1000412AADA7F0512AADA7F0612AADA7D03BA
:1026D1007F0712AADA7BFF7A607915901B43740792
:1026E100F07F0812AB817D077F0F12AADA7F1012EB
:1026F100A09A7F1112AADA7D217F1212AADA7D2F08
:102701007F1312AADA7D5B7F1412AADA7F1512A059
:10271100A17F1612AADA7F1712AADA1D7F1812AA50
:10272100DA7F1912AADA7F1A12AADA7F1B12AADA41
:102731007F1C12AADA7F1D12AADA0D7F1E12AADAF5
:102741001D7F2A12AADA0D7F2B12AADA7D157F2CA2
:1027510012AADA7F2D12A0A112AAD37F3A12AADA05
:102761001D7F3B12AADA7F3C12AADA7F3D12AADA58
:102771007F3E12AADA7F3F12AADA7BFF7A60791CC8
:102781007F2012A9CC7A6079267F3012A9CC7A6099
:1027910079307F4012A9CCE4FD7FA012AADA0D7F27
:1027A100A112AADA7FA212AADA1D7FA312AADA7FE6
:1027B100A412AADA7FA512AADA0D7FA612AADA1D3F
:1027C1007FA712AADA0D7FA812AADA7FA912AADAC4
:1027D1007FAA12AADA7FAB12AADA7FAC12AADA7F39
:1027E100AD12AADA7FAE12AADA1D7FAF12AADA9071
:1027F1001B3DE07BFF70087A60799D7F8080087ABD
:102801006079C07F807E0012A9CC7D017FB07E00FF
:1028110012AADA7FB112AADA7FB212AADA1D7FB345
:1028210012AADA7D387FB412AADA7DF47FB512AA32
:10283100DAE4FD7FB612AADA7FB712AADA7FB812FC
:10284100AADA7FB912AADA7FBA12AADA0D7FBB120D
:10285100AADA7D5C7FBC12AADA7D507FBD12AADAAA
:10286100E4FD7FBE12AADA7DB47FBF12AADAE4FCCE
:10287100EC24C0FFE433FEEC90604E12A0756005BD
:102881000CECB420EBE4FCEC240090608012A06F0F
:1028910060050CECB40FF0E4FCEC24109060911294
:1028A100A06F60050CECB40FF0E4FCEC24B0FFE485
:1028B1003401FEEC9060E312A07560050CECB41ECF
:1028C100EAE4FD7FD07E0112AADA0D12A0907FD337
:1028D10012AADA7D067FD412AADAE4FD7FD512AA04
:1028E100DA7FD612AADA7FD712AADA7BFF7A5F796A
:1028F100FB901B437407F07F2012AB817F2712A04E
:102901009A7F2812AADA7F2912AADA7D647F2A1215
:10291100AADA7D017F2B12AADA1D7F2C12AADA7F97
:102921002D12AADA12AAD31272DAE4FD7F307E01E7
:1029310012AADA7F3112AADA12A0907FDF12AADA84
:082941007D037F1F1E02AADACC
:10ADE6007F1F7E0012AF1AEF64037F0160091226EF
:08ADF6009C75C7207F0022229A
:1030C000615E040400000000000000000000000039
:1030D00000000000000000000000000000000000F0
:1030E00000000000000000000000000000000000E0
:1030F00000000000000000000000000000000000D0
:1031000000000000000000000000000000000000BF
:1031100000000000000000000000000000000000AF
:10312000000000000000000000000000000000009F
:10313000000000000000000000000000000000008F
:10314000000000000000000000000000000000007F
:10315000000000000000000000000000000000006F
:10316000000000000000000000000000000000005F
:10317000000000000000000000000000000000004F
:10318000000000000000000000000000000000003F
:10319000000000000000000000000000000000002F
:1031A000000000000000000000000000000000001F
:1031B000000000000000000000000000000000000F
:1031C00000000000000000000000000000000000FF
:1031D00000000000000000000000000000000000EF
:1031E00000000000000000000000000000000000DF
:1031F00000000000000000000000000000000000CF
:1032000000000000000000000000000000000000BE
:1032100000000000000000000000000000000000AE
:023220000000AC
:08B0A0007F1D7EB7DEFEDFFC20
:01B0A8002285
:10ADFE00AD07AC06ED4C600FED1DAE0470011C4EA0
:08AE0E00600512B0A080F122E2
:0CB038007F037ECF7D1CDDFEDEFCDFFA16
:01B0440022E9
:10AE1600AB07AA06EB4A600FEB1BAE0270011A4E97
:08AE2600600512B03880F12232
:10AC2400E0FF901B4AE0FE04F074782EF582E434D1
:0FAC34001EF58322901B4AE0FF04F074782F2254
:0AB0780043918075DE0F75BC87223E
:10A7B400E4F5BDF5BEE5BC548044404FF5BC000053
:10A7C4000000E5BC30E5FB53BCDFE5BEC4540FFD1F
:10A7D4007C00AFBDEF75F010A42DFFEC35F0FE2228
:108D0C007F0712A7B4AC06AD07E41203C3901B4453
:108D1C001208987FBA7E497D1C7C41901B44E0F878
:108D2C00A3E0F9A3E0FAA3E0FB12018E7B0A7AD749
:108D3C00792378421202971203FC901B48EEF0A3A1
:108D4C00EFF0129D9FC3901B49E094E8901B48E004
:108D5C009403E4901B4A50028008F0901E3012AC31
:108D6C0024EFF0901E3112AC24EFF012AC3812ACA0
:108D7C0030742EF0901E3212AC24EFF012AC38127C
:048D8C00AC30E4F033
:018D900022C0
:06B0D9002000200D0A001A
:10AC43007C00AF03AE021206667C007D0A12066624
:0FAC5300ED243022741C2FF582E4341EF5832289
:10AF8600EFD394394005EF24C9FF2274D02FFF2256
:10AF2C00EF540FFFD39409EF50042430FF22243741
:02AF3C00FF22F2
:109D9F00AB07AA067C277D1012AC49901E33F07CCE
:109DAF00037DE812AC45901E30F07D6412AC43A3E6
:109DBF00F07D0A12AC43A3F0AE02AF0312AC4CFF1E
:109DCF00901E34F0901E33E0901E26F0901E30E06F
:109DDF00901E27F0901E31E0901E28F0901E32E06A
:0B9DEF00901E29F0A3EFF0E4A3F02287
:10AA8B00901B4BEFF0E0C4540FFF12AF2C12B0B978
:10AA9B00901B4BE0FF12AF2C12B0B97BFF7AB07951
:04AAAB00D902A6EB3B
:1094C000901B44EBF0A3EAF0A3E9F0A3ECF0A3EDCA
:0194D000F0AB
:1094D1007FC012AA8BE4FF12AA8BE4901B49F0A370
:1094E100F0901B47E0FEA3E0FFA3E0FCA3E0FDC377
:1094F1009FEC9E5026901B44E0FBA3E0FAA3E0F909
:109501008D828C831205F3FF12AA8B901B4AE00413
:10951100F070CE901B49E004F080C67FC012AA8B88
:099521007BFF7AB079DB02A6EBB6
:10A4AE007EF1E4FDA806E6FC0EC4540FFF12AF2C9D
:10A4BE00ED25E02435F582E4341EF583EFF0AF048C
:10A4CE0012AF2CED25E02436F582E4341EF583EF31
:0BA4DE00F00DEDB407CEE4901E43F03B
:01A4E9002250
:0E8E9A00901B52EEF0A3EFF0A3ECF0A3EDF06E
:108EA800E4FFFEEEFD901B53E02DFD901B52E034D5
:108EB80000FC742F2DF58274173CF583E0F9600BE4
:108EC80012AC57E9F00F0EEEB406D812AC57742D59
:108ED800F00F901B54E0FCA3E0242FF58274173C9C
:108EE800F583E0FEC3940AEE75F00A5002801484FC
:108EF80075F00A84E5F02430FD12AC57EDF00FEE62
:108F080075F00A84E5F02430FE12AC57EEF00F122B
:048F1800AC57E4F07E
:018F1C002232
:10AB5F0012804ABF051B12A682901745E064016060
:10AB6F000312A7517F027E0012AE161270ED128FE4
:02AB7F00A02212
:10A8F700475053204F4E0D0A005761697420475047
:10A9070053204C6F636B200D0A00475053204F466E
:0BA91700460D0A00415055563938002B
:107E3B0074B52FF582E4341BF583E0FF901B3EE015
:107E4B002404F582E43400F583EFF0901B3EE0044C
:107E5B00F022901B3EE02404F582E43400F58322EB
:107E6B00E4FAF9F8901B40E0FCA3E0FDA3E0FEA3CD
:107E7B00E0FF12A2A6E47B0AFAF9F812A2A6EB2401
:107E8B003022A3E02FFFE433FE74042FF58274003D
:107E9B003EF5837440F0901B3DE004F022901B3DB7
:107EAB00E0FFC3940622F583E025E0FEEFFD901B77
:107EBB003EE02DFDE433FC74042DF58274003CF59B
:107ECB0083EE22901B3DE0FFC322E4FAF9F8E0FCBD
:107EDB00A3E0FDA3E0FEA3E0FF22901759E06401AD
:017EEB002274
:1011030090173FE0FF901B3FF0BF0103126DE6E431
:10111300901B3EF0127EE5703F901B3FE0B4011F31
:10112300E4901B3DF0127EA8504774592FF582E4DA
:10113300341EF583E025E0127E46127EA180E6E4AC
:10114300901B3DF0127EA85028EF90A91B9325E039
:10115300127E46127EA180ECE4901B3DF0127EA825
:10116300500FEF90A91B9325E0127E46127EA180BB
:10117300EC127E5D7460127E55E4901B3DF0127E8E
:10118300A85005127E8D80F6E4901B3DF0127EA8D8
:10119300502574372FF582E43417F583E0601890F7
:1011A3001B3DE02437F582E43417F583E025E01294
:1011B3007E46127EA180D690173EE0FF901916E07E
:1011C300FE90191EE0F9901B3E740DF0EE700CE9D1
:1011D3007009EF25E04461FF02129DEF25E044E032
:1011E300127E46EE6065E4901B3DF0127EA850052A
:1011F300127E8D80F6E4901B3DF0127EA850207481
:101203000F2FF582E43419F583E06013901B3DE062
:10121300240FF582E43419127EB1127EA080DB9094
:101223001B3EE02406F0901916E025E04460FF9091
:101233001B3EE0FE127E61EFF0E9700C74042E1287
:101243007E63E04401F08000127E56E9604FE49033
:101253001B3DF0127EA85005127E8D80F6E4901B94
:101263003DF0127EA8502074172FF582E43419F54F
:1012730083E06013901B3DE02417F582E4341912D8
:101283007EB1127EA080DB901B3EE02406F0901915
:101293001EE025E04461FF901B3E127E4A127E5DF4
:1012A3007403127E55127E6074F0127E55127EE531
:1012B3006003021381901B3FE0B4011FE4901B3DC8
:1012C300F0127ECE940E400302147474452FF582FF
:1012D300E4341E127E43127EA180E6901741127EF3
:1012E30045E4901B3DF0127ECE9408501074FF2FFE
:1012F300F582E4341B127E43127EA180E9901BBC6D
:10130300E0B402059017EB8003901742127E45E488
:10131300901B3DF0127ECE9409501074EB2FF58292
:10132300E4341B127E43127EA180E9901BBCE0B41F
:1013330002059017EC8003901743127E45901BB370
:10134300121668127E60742F127E55901BE41216DB
:1013530068127E60742F127E55127E607441127E75
:1013630055127E60743D127E55E4901B3DF0127E53
:10137300A84003021474127E3B127EA180F09017E2
:1013830041127E45E4901B3DF0127ECE940850102E
:10139300744F2FF582E43417127E43127EA180E945
:1013A300901742127E45E4901B3DF0127ECE9409C5
:1013B3005010745F2FF582E43417127E43127EA11E
:1013C30080E9901743E0FF127E5DEF12160C127E48
:1013D30060742F12160C127E60742F127E55127ECB
:1013E300607441127E55127E60743D127E559018D2
:1013F30058E0FEA3E07C002400FDEC3EFCE4120375
:10140300C37BA17AF87951784012018E1203FC90C4
:101413001B401208987BA07A8679017800127E6FB0
:10142300901BB5F0E47B107A27127E6D901BB6F00B
:10143300E47BE87A03127E6D901BB7F07B64127E27
:101443006B901BB8F07B0A127E6B901BB9F07B0A82
:10145300901B40127ED5127E86901BBAF0E4A3F057
:10146300901B3DF0127EA85008127E3B127EA18095
:10147300F3E4901B3DF0127ECE943C502A746F2F00
:10148300F582E43417F583E0FF601C127E47E0FF2A
:10149300D39464400D74042F127E63747E127E55C0
:1014A3008005127EA180CF127C1490176DE0640139
:1014B3007051127EE5704C127E5D7420127E557B56
:1014C30064901C21127ED5120772129D9F901E33C9
:1014D300127E45901E30127E45901E31127E45903D
:1014E3001E32127E45127E60742E127E55901E347B
:1014F300127E45127E60744B127E55127E60746DAF
:10150300127E5590176BE064017036127E5D742075
:10151300127E55128D0CE4901B3DF0901B3DE02490
:1015230078F582E4341EF583E0FF600D127E5DEFF3
:10153300127EA0A3E004F080E2127E5D7456127E58
:101543005512391F90176CE064017036300F331257
:101553007E5D7420127E55E4901B3DF0901B3DE0B0
:101563002468F582E4341DF583E0FF600D127E5D8F
:10157300EF127EA0A3E004F080E2127E5D744312BA
:101583007E5590176AE064017046300F43127E5D0A
:101593007420127E55E4901B3DF0901B3DE0245DCA
:1015A300F582E4341DF583E0FF600D127E5DEF12DA
:1015B3007EA0A3E004F080E2127E5D7468127E5583
:1015C300127E607450127E55127E607461127E55D5
:1015D300127EE5702490176EE06401701C127E5D2C
:1015E3007420127E55127E607453127E55901BD761
:1015F300127E45901BD8127E45901B3EE0FF90065D
:0816030090E4F0A3EFF07F0179
:10160B0022F0901B3EE004F0E4FFFE129D9F901E23
:10161B0031E0FF901B3EE02404F582E43400F583B7
:10162B00EFF0901B3EE004F0901E32E0FF901B3E6B
:10163B00E02404F582E43400F583EFF0901B3EE0E8
:10164B0004F0901E34E0FF901B3EE02404F582E48E
:10165B003400F583EFF0901B3EE004F022E0FEA394
:10166B00E0FF129D9F901E31E0FF901B3EE0240493
:10167B00F582E43400F583EFF0901B3EE004F0902C
:10168B001E32E0FF901B3EE02404F582E43400F5AB
:10169B0083EFF0901B3EE004F0901E34E0FF901BB4
:1016AB003EE02404F582E43400F583EFF0901B3E1A
:0416BB00E004F02235
:10A7E40090175CE0B4010D20A70AD2A77BFF7AA8DA
:10A7F40079F78010901759E0B4010C2003097BFF0E
:10A804007AA9790002A6EB121103E4FF1286C4228E
:1093E200901731E0B4012990172FE0FEA3E07C0032
:1093F2002400FFEC3ECF24FFCF34FFFED3901E8A21
:10940200E09F901E89E09E4007E4F0A3F012A7E4DB
:10941200901731E0B401047F0180027F009017327F
:10942200E0B401047E0180027E00EE4F60249017BA
:109432005CE0B4011D901759E0B4011630A7133057
:10944200031012A7E4C2A7C2037BFF7AA979111203
:03945200A6EB2264
:10992600444947492031204F4E0D0A0044494749D2
:109936002031204F46460D0A00444947492032202F
:109946004F4E0D0A00444947492032204F46460DE6
:109956000A004E4F57205253540D0A0057494445AA
:1099660031200000574944453220000057494445FC
:10997600312000005749444532200000313233344B
:02998600353674
:1096CC00FD743E2EF582E4341BF583EDF0743F2FD0
:1096DC00F582E4341BF583E4F0901B48E004F0229F
:1096EC00E0240AF582E43400F58322FDE02DFDE44C
:1096FC0033FC74042DF58274003CF58322901B3BE3
:10970C00E0FBA3E0FAA3E02274422FF582E4341BC1
:10971C00F58322F0901B40E004F022743C29F58282
:06972C00E4341BF583226A
:106BD800E4901B48F0901B48E0FFC394065011E076
:106BE800FE2407F582E43419F583E01296CC80E59B
:106BF800901B597401F0A3741BF0A3743EF07B0141
:106C08007A047904127B55901B3BEBF0A3EAF0A3BE
:106C1800E9F01297094A4B7003026CD3E4901B48C1
:106C2800F0901B48E0FFC394085016129709F9909A
:106C38001B48E0FEF5827583001205F31296CC809E
:106C4800E0901B44E0B44111A3E0B4310C90192644
:106C5800126CD67A997926804E901B44E0B441157F
:106C6800A3E0B43010E4901926F012A5627BFF7AF5
:106C78009979328032901B44E0B44211A3E0B431D8
:106C88000C90192E126CD67A99793F801A901B4471
:106C9800E0B44219A3E0B43014E490192EF012A520
:106CA800627BFF7A99794B12A6EB7F0122901B44F5
:106CB800E0B45214A3E0B4300F7BFF7A99795812EC
:0D6CC800A6EB75C7207F01227F01227F000F
:0A6CD500227401F012A5627BFF2279
:0E78F300901B3BEBF0A3EAF0A3E9F0A3EDF04D
:107901001296ECE0541EC313901B3FF070037F01ED
:1079110022E4901B40F0901B40E0FFC39406500A04
:10792100129714742012971F80ECE4901B40F09082
:107931001B40E0FFC394065026901B3B12970CF9A5
:107941008F827583001205F3901B41F06011E0FFF7
:10795100901B40E02442129717EF12971F80D0E44A
:10796100901B40F0901B40E0FF901B3E1296F7E009
:10797100C313FE129714E06E60037F00221297205A
:10798100E0B406E0901B3FE014F0E025E0F0901B2E
:107991003EE0FF1296EDE054E1F0740A2F1296EFEB
:1079A100C083C082E0FF901B3FE0FEEF4ED082D04B
:1079B10083F0EE700A901B3E1296ECE04480F07F5B
:0179C10002C3
:0179C20022A2
:0582F900901B3BEFF0BB
:1082FE00900690E0FEA3E0FFD394E8EE94034003D3
:10830E0002839F901737E0700302839FAE07901B86
:10831E003BE0FDC3EF9D04FCE4F9E9C39C501C74E3
:10832E00042EF582E43400F583E0FD740B2EF58205
:10833E00E43400F583EDF01E0980DF7906901B3CD6
:10834E007440F0A3D9FCE4F9743729F582E43417AC
:10835E00F583E0600D25E0FE129727EEF009E9B4F3
:10836E0006E690173EE025E044E0901B42F0E4F96B
:10837E00129727E0FFE9901B3B1296F7EFF009E901
:10838E00B407ED900691E02407F0900690E03400DB
:01839E00F0EE
:01839F0022BB
:10A64C00901904E0D394004021E4901B3BF0901946
:10A65C0004E0FF901B3BE0C39F500F7F287E00124D
:10A66C00AE16901B3BE004F080E47F067E0012AE39
:06A67C00167F010286C4F6
:108FA000126BD8901926E0700690192EE06064903C
:108FB0000011E020E05D901B3A740DF0E4901B3945
:108FC000F0901926E0600C7A19791F129014BF02F4
:108FD00002801090192EE060167A197927129014E9
:108FE000BF020C901B3AE004FF1282F902A64C90DB
:108FF0001B3AE0240BF582E43400F583E020E01313
:10900000901B3AE02407F0901B39E004F0E0C39491
:039010000640AE69
:0D901300227B01901B3AE004FD1278F3224D
:1072DA00E4901B3EF0901B3EE0FD24E09099621280
:1072EA00737140F17FE61273B27D017FE71273BAC0
:1072FA00901B3EE0FD24E890996A12737140F17F79
:10730A00EE12739D7FEF1273A6901B3EE0FD24F0F0
:10731A0090997212738740F17FF612739D7FF7126C
:10732A0073A6901B3EE0FD24F890997A1273874069
:10733A00F17FFE1273B2E4FD7FFF1273BA901B3E17
:10734A00E0FD24D8FFE43401FEED90998293FD120A
:10735A00AADA901B3EE004F0E0C3940640DFE4FDA5
:07736A007FDE7E0102AADABA
:10737100FFE43401FEED93FD12AADA901B3EE00416
:10738100F0E0C3940622FFE43401FEED93FD12AA5E
:10739100DA901B3EE004F0E0C3940622E4FD7E0196
:1073A10012AADAE422FD7E0112AADAE4901B3EF071
:1073B10022E4FD7E0112AADA227E0112AADAE49009
:0473C1001B3EF0225D
:10371F00000011892312329B462457AD653674BFC2
:10372F008C489DC1AF5ABED3CA6CDBE5E97EF8F772
:10373F00108101083393221A56A5472C75B7643EA2
:10374F009CC98D40BFDBAE52DAEDCB64F9FFE87652
:10375F002102308B02101399672676AF443455BD82
:10376F00AD4ABCC38E589FD1EB6EFAE7C87CD9F532
:10377F003183200A1291031877A7662E54B5453C62
:10378F00BDCBAC429ED98F50FBEFEA66D8FDC97412
:10379F004204538D6116709F042015A9273236BB42
:1037AF00CE4CDFC5ED5EFCD7886899E1AB7ABAF3F2
:1037BF005285430C7197601E14A1052837B3263A22
:1037CF00DECDCF44FDDFEC5698E98960BBFBAA72D2
:1037DF006306728F4014519D252234AB063017B902
:1037EF00EF4EFEC7CC5CDDD5A96AB8E38A789BF1B2
:1037FF007387620E5095411C35A3242A16B10738E2
:10380F00FFCFEE46DCDDCD54B9EBA8629AF98B7091
:10381F0084089581A71AB693C22CD3A5E13EF0B7C1
:10382F00084019C92B523ADB4E645FED6D767CFF71
:10383F0094898500B79BA612D2ADC324F1BFE036A1
:10384F0018C109483BD32A5A5EE54F6C7DF76C7E51
:10385F00A50AB48386189791E32EF2A7C03CD1B581
:10386F00294238CB0A501BD96F667EEF4C745DFD31
:10387F00B58BA40296998710F3AFE226D0BDC13461
:10388F0039C3284A1AD10B587FE76E6E5CF54D7C11
:10389F00C60CD785E51EF497802891A1A33AB2B341
:1038AF004A445BCD695678DF0C601DE92F723EFBF1
:1038BF00D68DC704F59FE41690A98120B3BBA23221
:1038CF005AC54B4C79D7685E1CE10D683FF32E7AD1
:1038DF00E70EF687C41CD595A12AB0A3823893B101
:1038EF006B467ACF485459DD2D623CEB0E701FF9B1
:1038FF00F78FE606D49DC514B1ABA02292B98330E1
:10390F007BC76A4E58D5495C3DE32C6A1EF10F7890
:08902000901B49ECF0A3EDF0F8
:1090280074FFA3F0A3F0D3901B4AE09400901B496F
:10903800E0940040471205DAFF901B4BA3E06F2530
:10904800E0FFE433FE741F2FF58274373EF583E4A6
:1090580093FC740193FD901B4BE0FFECFEED6FFF5A
:10906800EEF0A3EFF0901B4AE024FFF0901B49E0DC
:1090780034FFF0740129F9E43AFA80AA901B4BE016
:10908800FEA3E0F4FFEEF4FCEF901E8CF0AE04EECD
:04909800901E8BF0AB
:01909C0022B1
:10A0A800120898E47B597A20901B44F9F8E0FCA345
:10A0B800E0FDA3E0FEA3E0FF02A2A6901BE47D0A58
:10A0C800E0FEA3E0FF7C00020666E024D075F00AFB
:10A0D800A4FFA3E024D02F241C22AC00AD01AE02C3
:0CA0E800AF03020898A3A3A3E0242122E8
:10562100EFB40700504A90562EF8282873025643CB
:1056310002564702564F02565402565B0256630207
:10564100566A7C0180167C017D01E4FE80267C0186
:10565100E480187C01E4FDFE801AE4FC7D017E01FA
:105661008012E4FC7D01FE800BE4FCFD7E018004E0
:10567100E4FCFDFEECB40115901BFFE0FFB4200833
:10568100901E59745AF0800DEF24208004901BFF66
:10569100E0901E59F0EDB40115901C00E0FFB4201C
:1056A10008901E5A745AF0800DEF24208004901C3B
:1056B10000E0901E5AF0EEB40115901C01E0FFB419
:1056C1002008901E5B745AF0800DEF242080049016
:1056D1001C01E0901E5BF0901C06E0B44E19901C7A
:1056E10002E0FFB42008901E5C745AF0801BEF2486
:1056F10020901E5CF08012901C02E0FF901E5CB4B2
:105701002005744CF08002EFF0901E63E0B4641940
:10571100901C04E0FFB42008901E5D745AF0801BB9
:10572100EF2420901E5DF08012901C04E0FF901E7B
:105731005DB42005744CF08002EFF0901BF3E0B4EF
:105741005717901C05E0FFB42007901E5E745AF0B5
:1057510022EF2420901E5EF022901C05E0FF901E97
:0A5761005EB42004744CF022EFF057
:01576B00221B
:109AAE00901E457460F0901BECE024D075F00AA473
:109ABE00FF901BEBE024D075F064A42FFF901BEDFC
:109ACE00E024D02FFFC3940A5005EF24768027EFB1
:109ADE00C39464500DEF241C901E46F0E4901E6358
:109AEE00F022EFC3946E5005EF24088009EFC39463
:109AFE00B4500DEF24B8901E46F0901E637464F0BF
:019B0E002234
:106DE600129AAE901BEE12A0D2901E47F0C39426C4
:106DF6005004E0243CF0901BF112A0D2901E48F003
:106E060012A0C3AB07EBC39414EB241C901E49F0ED
:106E160012A0C3AB05901BB37D6412A0C8EF241C5F
:106E2600FFEB75F00AA42F901E4AF0901BB3E0FE0C
:106E3600A3E0FF7C007D64120666AF05EF241C907C
:106E46001E4BF0901BBCE0B4020D9017ECE0901EB8
:106E56004CF09017EB800B901743E0901E4CF0908F
:106E66001742E0901E4DF0901BD3E0FCA3E0FDA37B
:106E7600E0FEA3E02410FFEE3427FEE43DFDE43CF3
:106E8600FC901B4412A0A8901B4812A0A8901B4C73
:106E960012A0E2E47B5BFA901B4C12A0B3901B504D
:106EA600120898E47B5BFAF9F8901B4C12A0B59097
:106EB6001B5412A0E2901E4E7460F0901B4812A064
:106EC600ED901E4FF0901B5012A0ED901E50F090CA
:106ED6001B5412A0ED901E51F0A3747DF090174044
:056EE600E0FF0256214F
:105B1C00EF2BFBEE3AFAED39F9EC38F8901B42E03A
:105B2C00FEA3E0FFE4FCFDEB2FFFEA3EFEED39FDAA
:105B3C00EC38FCEF249BFFEE34A1FEED34FBFDECC6
:105B4C0034FFFCA31208987F0122901B44E0FCA3B5
:105B5C00E0FDA3E0FEA3E022FD74B62FF582E43451
:105B6C001CF58322EE75F00A84E5F0243022F583CF
:105B7C00E0FD901B42E4F0A3EDF0E4FCFD7B5BFA4E
:105B8C00F9F80206E774042FF582E43400F583E09B
:105B9C0022E4FDFC901B44E0F8A3E0F9A3E0FAA397
:105BAC00E0FBC3020812FEED9400FDEC9400FC90A7
:105BBC001B44020898901B3EE0FEA3E0FFE4FCFDB2
:105BCC007B597A20F9F80206E7F583E0901B40FF39
:105BDC007E00EEF0A3EFF022F583E024E4901B3975
:105BEC00F02224E4FFE034FFFE7C007D0A22F583E2
:105BFC00E0901B3EFDE4F0A3EDF0227420901CAF6E
:105C0C00F0901CE6227420901CB2F0901CE122242F
:105C1C0009F582E43400F583E022901CAC7420F08A
:105C2C0022901B49E0FFC322901CAD7420F02290FF
:105C3C001B4AE0FFC322901CAE7420F02275F00AC0
:045C4C00842430225A
:10A783007F06E4FE125B9120E00E74072FFF0EEEAE
:10A79300D3940840EF7F00220F0F0F125B91FEB49A
:10A7A30027028004EEB46006901E8EEFF0227F0035
:01A7B3002283
:103CF200E4FEFDFC74042C125B94C313FB74482C89
:103D0200F582E4341BF583EBF00CECB406E6901B71
:103D120048E0FCC39450400DECD394595007EC2476
:103D2200E0901CACF0901B48E0FFC39441400DEFC3
:103D3200D3944A5007EF24EF901CACF0901B48E05C
:103D4200FFB44B03125C26EFB45A03125C26901B9D
:103D520048E0B44C03125C26901B48E0FFC3943A3F
:103D62005005901CACEFF0125C2D9450400DEFD337
:103D720094595007EF24E0901CADF0125C2D944151
:103D8200400DEFD3944A5007EF24EF901CADF09012
:103D92001B49E0FFB44B03125C34EFB45A03125CCC
:103DA20034901B49E0B44C03125C34125C2D943AFB
:103DB2005005901CADEFF0125C3B9450400DEFD3D8
:103DC20094595007EF24E0901CAEF0125C3B9441F2
:103DD200400DEFD3944A5007EF24EF901CAEF090C1
:103DE2001B4AE0FFB44B03125C42EFB45A03125C6D
:103DF20042901B4AE0B44C03125C42125C3B943A80
:103E02005005901CAEEFF0901B4BE0FFC394504066
:103E120009EF24E0125C09744EF0901B4BE0B45A97
:103E220006125C07744EF0901B4BE0FFB44C061276
:103E32005C077453F0EFC3943A5007EF125C0974B5
:103E420053F0901CB0742EF0901B4CE0FFC39450C2
:103E52004009EF24E0901CB1F07A64901B4CE0B46E
:103E62005A08901CB17420F07A64901B4CE0FFB4A5
:103E72004C08901CB17420F0E4FAEFC3943A500756
:103E8200901CB1EFF0E4FA901B4DE0FFC394504058
:103E920009EF24E0125C137457F0901B4DE0B45A02
:103EA20006125C117457F0901B4DE0FFB44C0612E1
:103EB2005C117445F0EFC3943A5007EF125C13742F
:0F3EC20045F0901CE6E0901CB3F0E4A3F0AF02D3
:013ED10022CE
:101A570012A783EF7006901E8DF0FF22123CF290C2
:101A67001E8EE0FD2405F582E43400125BE4EFB43A
:101A77006404E02464F0901B39E0FFC394B4400A87
:101A8700EFD394BD5004E024B0F0901B39E0FFC3BE
:101A970094BE400AEFD394C75004E02442F0901B51
:101AA70039E0FE75F064842430901C9EF0EE75F0EA
:101AB7000A84125B71A3F0901B39E0125B71901CD2
:101AC700A0F074062DF582E43400125BE4C3943C65
:101AD7004004E024C4F0901B39E0FD125C49901CDF
:101AE700A1F0ED125B71A3F0A3742EF0901E8EE0AF
:101AF700FD2407F582E43400125BE4E0FE125C4942
:101B0700901CA4F0125B70A3F0901CE1E0901CA65F
:101B1700F0E4A3F074082DF582E43400F583E0FFC8
:101B2700901B3AE4F0A3EFF0901E8EE0125C1B903E
:101B37001B3C125BDB24E4FFEE125BF2120666AA83
:101B470006AB07901B3BE0901B3A125BEE12065464
:101B5700EF2BFFEE3AFEE4FD125BBB7F207E031204
:101B67005B9D400C125B569420FFEE9403125BB210
:101B7700125B56FFEC1203BE7BF67A287994784104
:101B870012018E1203FC121DAF901E33E0901CFB56
:101B9700F0901E30E0901CFCF0901E31E0901CFD90
:101BA700F0901E32E0901CFEF0A3742EF0901E34CD
:101BB700E0901D00F0E4A3F0901E8EE0FF125C1B86
:101BC700901B3C125C00740A2FF582E43400F58305
:101BD700E0FB7A00901B3DE0901B3C125BEE120687
:101BE700667E007F64120654EB24E4FDE434FFCDE7
:101BF7002FFFED3EFEE4FCFD125BBB7F907E0112E2
:101C07005B9D400C125B569490FFEE9401125BB201
:101C1700901B44121DC3901E31E0901CE7F0901EEC
:101C270032E0901CE8F0901E34E0901CE9F0E4A349
:101C3700F0FF901E8EE0F92410F582E43400F5835E
:101C4700E0647D703B901E8EE0FF240DF582E43446
:101C570000125BFA740E2FF582E43400125BD57420
:101C67000F29F582E43400125B7AC004C005C00670
:101C7700C007125BC1D003D002D001D000125B1C99
:101C8700901E8EE0F92411F582E43400F583E064B8
:101C97007D703B901E8EE0FF240EF582E434001227
:101CA7005BFA740F2FF582E43400125BD5741029A8
:101CB700F582E43400125B7AC004C005C006C00791
:101CC700125BC1D003D002D001D000125B1CEF64BD
:101CD70001705A125B56FFEC1203BE901CE2120809
:101CE70098125B56FFEC33901B445011A3A3A3E05B
:101CF700120804121DAF901CF1742D800A121DC327
:101D0700901E33E0901CF1F0901E30E0901CF2F032
:101D1700901E31E0901CF3F0901E32E0901CF4F01E
:101D2700901E34E0901CF5F0E4A3F0800A901CE2CA
:101D37001208A400000000901E8EE0240BF582E438
:101D47003400F583E0901CC2F0E4FF7E0774042E94
:101D5700125B94C313901B39F064206007E0125B99
:101D670064EDF00F0EEEB40DE4900011E0541EC3C5
:101D770013FED394004025125B65742DF00FEEC35C
:101D8700940AEE50044430800C125C49125B64EDF7
:101D9700F00F125B70FE125B65EEF00F125B65E4ED
:071DA700F0901E8D04F0FF17
:101DAE0022901B44120898901B44A3A3E0FEA3E0CC
:101DBE00FF129D9F22A3A3E0FEA3E0FF129D9F2290
:10AF3E0024475057504C2C00000024475057504C7B
:02AF4E002C00D5
:10322200603C1DAE00000000000000000000000035
:10323200000000000000000000000000000000008C
:10324200000000000000000000000000000000007C
:10325200000000000000000000000000000000006C
:10AAF6000EE0FD74AE2EF582E4341DF583EDF00E06
:10AB060074AE2EF582E4341DF58322F583E0FD74E0
:03AB1600AE2F223D
:105C500078447C1B7D017BFF7AAF793E7E007F0A12
:105C60001205B4E4FFFE74442EF582E4341B12AB3B
:105C70001112AB09EDF00F0EEEB407EAE4FE74ACBE
:105C80002EF582E4341C12AB1112AB09EDF00F0EAD
:105C9000EEB407EA74AE2F12AB09742CF00F901C0F
:105CA000E6E0FE74AE2F12AB09EEF00F74AE2F12C9
:105CB000AB09742CF00FE4FE749E2EF582E4341CC4
:105CC00012AB1112AB09EDF00F0EEEB408EA74AE90
:105CD0002F12AB09742CF00F901CE1E0FE74AE2F74
:105CE00012AB09EEF00F74AE2F12AB09742CF00F4B
:105CF000E4FE74B62EF582E4341CF583E0FD600EFC
:105D000074AE2F12AB09EDF00F0EEEB409E474AED1
:105D10002F12AB09742AF00FE4FD7E01EF14FCEEA4
:105D2000C39C500912AB06E06DFD0E80EFEDC4542C
:105D30000FFEC3940AEE5004243080022437FE7410
:105D4000AE2F12AB09EEF00FED540FFEC3940AEE26
:105D50005004243080022437FE74AE2F12AB09EEBB
:105D6000F00F74AE2F12AB09740DF00F74AE2F123A
:0E5D7000AB09740AF00F74AE2F12AB09E4F009
:015D7E002202
:104DC100E4FEFDED90AF4893FC12AB06ECF00E0D46
:104DD100EDB407EF901759E06401704EFD74FF2D9B
:104DE100F582E4341BF583E0FC12AB06ECF00E0D0A
:104DF100EDB407E912AB06742CF0901C0612AAF66A
:104E0100742CF00EE4FD74EB2DF582E4341BF58374
:104E1100E0FC12AB06ECF00E0DEDB408E912AB06A6
:104E2100742CF00E901BF3024E77E4FD744F2DF5B8
:104E310082E43417F583E0FC12AB06ECF00E0DEDC5
:104E4100B407E912AB06742CF090175612AAF67447
:104E51002CF00EE4FD745F2DF582E43417F583E048
:104E6100FC12AB06ECF00E0DEDB408E912AB0674C2
:104E71002CF00E901767E0FC12AB06EC12AB047439
:104E81002CF00EE4FD74372DF582E43417F583E040
:104E9100FF600B12AB06EFF00E0DEDB406E712AB9F
:104EA10006742DF00E90173EE0FDC3940AED75F0E7
:104EB1000A500280148475F00A84E5F02430FC1253
:104EC100AB06ECF00EED75F00A84E5F02430FC122F
:104ED100AB06ECF00E12AB06742AF00EE4FC7D0179
:104EE100EE14FBEDC39B500C74AE2D12AB09E06CBC
:104EF100FC0D80ECECC4540FFDC3940AED50042466
:104F01003080022437FD12AB06EDF00EEC540FFD9C
:104F1100C3940AED5004243080022437FD12AB06FD
:104F2100EDF00E12AB06740D12AB04740A12AB0451
:024F3100E4F0AA
:014F3300225B
:1069C800EF2BFFEE3AFEED39FDEC38FC901CF5A8F4
:1069D80004A905AA06AB07E075F00AA4FFE4FCFDCC
:1069E800EB2FFBEA35F0FAED39F9EC38F8A3E0FFC4
:1069F800E4FEEB2FFFEE3AFEED39FDEC38FC22F514
:106A080083EEF075F001E4901B3B0206BB901B3A45
:106A1800E0FBA3E0FAA3E0F90205DA901B3E1208B6
:106A280098901B3EE0FCA3E0FDA3E0FEA3E0FFE49A
:106A38001203BE7BBF7A0E799C783E12018E120338
:106A4800FC901B3E020898AF03AE021206667C005B
:106A58007D0A120666ED243022901CF37BE87A0347
:106A6800E0FFE4FCFDFEF9F80206E7901CF4E0FF05
:106A7800E4FCFDFE7B64FAF9F80206E774F12FF5F1
:106A880082E4341CF583E024D0F0901B42E004F04B
:106A9800227B017A047904901B39E0FD22901B3D8A
:106AA800E0FFC322901B3DE004F0221205DAFF74D8
:106AB8000129F9E43AFA22F0901B43E0FEA3E0FF33
:086AC800227B017A047904220B
:109194007F0A901CB6E4F0A3DFFC7F0A901CACE4C9
:1091A400F0A3DFFC7F0A901C9EE4F0A3DFFC7F0A9F
:1091B400901CE7E4F0A3DFFC7F0A901CFBE4F0A31F
:1091C400DFFC7F0A901CF1E4F0A3DFFC7F0A901C13
:1091D400D7E4F0A3DFFCE4901CA8F0A3F0901CC03B
:1091E400F0A3F0901CE21208A400000000E4901C1C
:1091F400AAF0A3F07F0A901CCDE4F0A3DFFC7F0A61
:08920400901CC3E4F0A3DFFCA1
:01920C00223F
:10973200E4FF74FB2FF582E4341CF583E024D0F0BF
:109742000FEFB403ED901CFB126A76901CFC1269B9
:10975200D7E41203BE7BF67A287994784112018EFF
:109762001203FC129D9F901E33E0901CFBF0901E92
:1097720030E0901CFCF0901E31E0901CFDF0901E39
:1097820032E0901CFEF0A3742EF0901E34E0901D87
:0597920000F0E4A3F06B
:0197970022AF
:10478B00901CF1E0642D6003024823901B4204F05F
:10479B00901B42E0FFC394065005126A8480F1120D
:1047AB006A61C004C005C006C007901CF27B107A7A
:1047BB0027126A68D003D002D001D000EF2B126908
:1047CB00FCC004C005C006C007126A73D003D00238
:1047DB00D001D0001269C8126A23901CE21208A4FF
:1047EB0000000000901B3EA3A3E0FEA3E0FF129D80
:1047FB009F901E33E0901CF2F0901E30E0901CF363
:10480B00F0901E31E0901CF4F0901E32E0901CF5FD
:10481B00F0901E34E002491DE4901B42F0901B42C5
:10482B00E0FFC394065005126A8480F1901CF2E0FD
:10483B00FFE4FCFDFE7B107A27F9F81206E7C004B3
:10484B00C005C006C007901CF1E0FFE4FCFDFE7B39
:10485B00A07A867901F81206E7D003D002D001D0F6
:10486B0000EF2B1269FCC004C005C006C007126A1A
:10487B0061D003D002D001D000EF2B1269FCC00431
:10488B00C005C006C007126A73D003D002D001D096
:10489B00001269C8126A23901B3EE0FCA3E0FDA343
:1048AB00E0FEA3E0FFE41203BE901CE21208989016
:1048BB001B3EA3A3E0FFA3E0901B43CFF0A3EF129B
:1048CB006ABFE4FCFD7BA07A867901F812A2A6EF01
:1048DB002430901CF1F0901B43E0FAA3E0FB7C2703
:1048EB007D10FF126A51901CF2F07C037DE8126A76
:1048FB004FA3F0901B43A3E07C007D64FF126A5131
:10490B00901CF4F07C007D0A126A4FA3126ABF124E
:09491B006A56901CF6F0E4A3F0CA
:014924002270
:10AE2E00E4FF1205DAB43A04EF04FF22126AB70FF8
:06AE3E00EFB47DEE7F0081
:01AE440022EB
:10A13F00E4FE126AB3EF643E601174B62EF582E44A
:10A14F00341CF583EFF00EEEB40AE7E4FE126AB3A7
:10A15F00EFB42C047D0180027D00EFB43A047C0142
:10A16F0080027C00EC4D701174CD2EF582E4341C0E
:09A17F00F583EFF00EEEB40AD4F2
:01A1880022B4
:0B50A300901B3AEBF0A3EAF0A3E9F049
:1050AE00AF058FF0126A0E126A15FF126A0BEFB47B
:1050BE0040047E0180027E00EFB42F047F01800247
:1050CE007F00EF4E6020E4901B3DF0126AA594071E
:1050DE005014126A15FE74C32FF582E4341C126A42
:1050EE0007126AAC80E5E4901B3DF0126AA59408A5
:1050FE005014126A15FE74AC2FF582E4341C126A39
:10510E0007126AAC80E5901CB3E0901CE6126A0AA6
:10511E00E4901B3DF0126AA594095014126A15FE14
:10512E00749E2FF582E4341C126A07126AAC80E575
:10513E00901CA6E0901CE1F0126A15FF901CC212A2
:10514E006A0AEF645F7003025209901CE21208A40F
:10515E0000000000901B3AE0FBA3E0FAA3E0F990F8
:10516E0000031205F3642F6003025209901B3DF0F9
:10517E00126AA594035014126A15FE74E72FF58275
:10518E00E4341C126A07126AAC80E5126A0BE490D2
:10519E001B3DF0126AA594035014126A15FE74FB9F
:1051AE002FF582E4341C126A07126AAC80E512975E
:1051BE0032126A15642F70439000011205F3644198
:1051CE0070399000021205F3643D702F75F00112D4
:1051DE006A0F126A0B126A0BE4901B3DF0126AA55D
:1051EE0094065014126A15FE74F12FF582E4341CE5
:0B51FE00126A07126AAC80E512478BB2
:015209002282
:10952A00126AC912A13F7A04790412AE2E901B392D
:10953A00EFF07002FF22901B39E0FD2404F582E46B
:10954A003404F583E024D9603224F8602124F560DC
:10955A002D24FD601414602924FE601724E0601B8A
:10956A00243F7020126AC9800D126A998008126A13
:10957A00998003126A991250A3800C7F02227F03FA
:09958A00227F04227F05227F01EB
:0195930022B5
:109FB300901759E07015FF12646DE4FF129FFC9037
:109FC3001CC0EEF0A3EFF0E4FF802230032A7F01F0
:109FD30012646D7F01129FFC901BB3E0FCA3E0FDB4
:109FE30012A526901CC0EEF0A3EFF07F011279C3F7
:109FF300901CAAEEF0A3EFF022128AE2901CA8EEC6
:05A00300F0A3EFF022C4
:10A68200901745E0B401028027129194121A57BF25
:10A692000102800F126AC9E4FD12537012952AEF6B
:10A6A200B4010A129FB312658B7F01800512658B7C
:05A6B200E4FF126FED52
:01A6B7002280
:109EAE00901B66E0FBA3E0FAA3E0F9901E93E0FF9F
:109EBE0004F08F8275830022901B66E0FBA3E0FA0C
:109ECE00A3E0F9901E93E0FE04F08E82758300EFFE
:109EDE00020632F0901B66E0FBA3E0FAA3E0F92243
:109EEE00901B6BE02404F582E43400F583E022EB52
:089EFE00F0A3EAF0A3E9F02251
:10A26200901B6C129EFDEDD394004037901B6C1234
:10A272009EB1742D120632EDC3940AED500B2430B8
:10A28200FF901B6C129EE5801775F00A842430FF44
:10A29200901B6C129EC9ED75F00A84E5F02430FF24
:04A2A200129ED12215
:09A3F400901B6C129EFDA3EDF01C
:10A3FD00A3F0901B6FE02406FFE433FEA3E0FDC342
:10A40D009FEE6480F8748098501B74042D129EF496
:10A41D00C313FF64206006901B6C129EC9901B70C5
:05A42D00E004F080CD09
:01A432002207
:09537000901B66129EFDA3EDF0F6
:10537900E4901E93129EE17D0712A3F4129EE2901F
:1053890000111254C6129EAE743E120632E4FD128A
:10539900A3F4129EE290000A1254C6901B6B740D7E
:1053A900F0E4FC129EEE20E03C129EAE742C120634
:1053B90032901B6BE004F0E0FD12A3F4901B6BE04C
:1053C9002406129EE1129EEE541EFFC313FD12A283
:1053D90062129EEE30E708129EAE742A1206320C53
:1053E900EC640870BE901B69E06401704B9017492A
:1053F900E064017043129EAE742C120632E4901BD5
:105409006AF0901B6AE0FFC39406501974372FF5B0
:1054190082E43417F583E0FF600B129EC6901B6A85
:10542900E004F080DD129EE290173EE0FD12A262D8
:10543900129EAE742A120632129EAE743A120632C7
:10544900901B6BE02403F0E0901B6AF0901B6AE06C
:10545900FFFDD3900691E09D900690E094004025D1
:1054690074042F129EF4FF129EC6901E93E0D394EB
:10547900BE400A129EAE747E1206328008901B6AE4
:10548900E004F080C7901E93E024FFFFE434FFFEA0
:10549900129EE28F828E831205F3901E93B40D0241
:1054A900800B129EBC740D120632901E93129EBC84
:0C54B900740A120632129EB9E412063288
:0C54C50022E0541EFFC313FD12A262225D
:0AB08200740129F9E43AFA0205DA34
:10AF5000EF540FFFD39409EF50042430FF2224371D
:02AF6000FF22CE
:10A4EA0012B082FEE4FF12B082FD642A6008ED6EAB
:10A4FA00FE0FEFB47EF012B082FD12B082FCEEC401
:10A50A00540FFF12AF50EF6D60037F0022AF0612A7
:0BA51A00AF50EF6C60037F00227F0158
:01A525002213
:10AC62007B017A1979B212A4EAEF7002FF227B010A
:0FAC72007A19793212A4EAEF7002FF227F0122D1
:06B0DF0048454C4C4F00F7
:103262004A1C26000000000000000000004D1C0E59
:10327200000000000000000000000000004F1BFFE3
:103282000000000000000000000000000000004FED
:103292001BEB000000000000000000000000000026
:1032A20000421C1B0000421BE40000421BE600001F
:1032B200471BB500000000000000431BD7000000C0
:1032C2004A1BDA000000000000000000004A1BC98F
:0A32D20000000000000000000000F2
:103ED200901B39E0FBA3E0FAA3E0F98F827583001F
:103EE2000205F3EF2BFFEE3AFEED39FDEC38FCA8AC
:103EF20004A905AA06AB07E075F00AA4FFE4FCFDDD
:103F0200EB2FFBEA35F0FAED39F9EC38F8A3E0FFD4
:103F1200E4FEEB2FFFEE3AFEED39FDEC38FC22EB2E
:103F22002430F07B0AE4FAF9F8901B45E0FCA3E0A8
:103F3200FDA3E0FEA3E0FF22FD74262EF582E43409
:103F42001CF583EDF00E0F74262EF582E4341CF579
:103F52008322E0FF901B3CE0FE04F0740E2EF582FB
:103F6200E4341CF58322E024D0FFE434FFFE7C001D
:103F72007D0A020654EBF0A3EAF0A3E9F0E4221270
:103F82000772E47B0AFAF9F8020772E024D075F0AE
:103F92000AA4FFA3E024D02F22901B3EE0FFE4FC02
:103FA200FDFE22901B39E0FBA3E0FAA3E0F9A3E0B7
:103FB200F58222E0FE04F074FF2EF582E4341BF554
:103FC2008322120772E4FB7A01F9F822F0A3F0A32C
:103FD200F0A3F0A3F022AA06AB07E024D0FFE4345A
:103FE200FFFE7D64120654EF2BFFEE3AFE22901B79
:103FF2004AE0FAA3E0FB7C017D90FFAE0212066666
:10400200ED4C22E024D0FDEC34FFCD2FFFED3E221B
:1040120074EB2FF582E4341BF583227B017A197944
:10402200B222901B4AE0FEA3E0FF7C007D641206F0
:1040320066ED4C22901B3CE0FF04F0740E2F223EF2
:10404200F583EDF0901B3AE004F022F0EFF5827573
:104052008300A3227B64FAF9F80206E7901B39E099
:10406200FEA3E0FF22E0F8A3E0F9A3E0FAA3E0FB5D
:1040720022E4901B39F0A3F022F0901B3CE004F004
:1040820022D3901BBEE09F901BBDE02224D0FEE411
:1040920034FFF0A3CEF022F582E433F5830205F378
:1040A2007BE87A03F9F80206E7901B39E004F02274
:109860009017EAE0605C123FC7901C21123F2E1255
:109870003FC4123FC4120772AD077F007EFE12ACD8
:109880009F123FC7901C21123F2E123FC412077235
:10989000AD077F017EFE12AC9F123FC7901C2112C4
:1098A0003F2E120772AD077F027EFE12AC9F901C06
:1098B00021E0FCA3A3A3E0FFE4AD077F037EFE123B
:0398C000AC9F2238
:10A87200901C211208A400000000E4FDFF12A8971A
:10A882007F0112A8977F027EFE12AC9FE4FD7F0338
:0DA892007EFE02AC9F7EFE12AC9FE4FD2214
:107C1400901BFAE0700F04F0901C1D1208A40000E1
:107C24000000027C97901B7C7401F0A3741BF0A3EA
:107C340074C9F0A37401F0A3741BF0A374FFF0A340
:107C44007401F0A3741BF0A374EBF07B017A1B792D
:107C5400DA129C2B1203FC901C1D120898901C2114
:107C6400123F2E901C1D124067EF2B123F16A312D9
:107C740008987F007E657DCD7C1D901C2112406795
:107C8400D3120828400A901C211208A40000000006
:107C9400129860E4FF74FF2F123FBCE0FE74DA2FE9
:107CA400F582E4341BF583EEF00FEFB409E7E4FF4B
:107CB400124012E0FE74C92FF582E4341BF583EE02
:087CC400F00FEFB40AEA7F01A2
:017CCC002295
:107D8500E4901BFAF09017EAE0700D901C211208A0
:107D9500A400000000027E1C7F007EFE12ACF5BF31
:107DA500FF0612A872027E1C7F01127E27FBFA795C
:107DB50001F81206E7C004C005C006C0077F00121F
:107DC5007E27FBFAF978011206E7D003D002D0012D
:107DD500D000EF2B123F16C004C005C006C0077FB8
:107DE50002127E31FB7A01F9F81206E7D003D002C0
:107DF500D001D000EF2B123F16C004C005C006C04D
:107E0500077F03127E31D003D002D001D000123F8C
:107E150014901C21120898901C1D1208A400000043
:107E250000227EFE12ACF5E4FCFDFE227EFE12ACC5
:067E3500F5E4FCFDFE2255
:03774B00901B3957
:10774E00123F77FFFE901B39123ED56009B42C0113
:10775E000E0FEEB401EF901B39123ED5FD642C7066
:10776E000302781FE4FEEE2426123F4CEDF00E0FBE
:10777E00123EDD123F3A743AF00E123EDDFD123F1C
:10778E0049EDF00E0F123EDD123F3A743AF00E1232
:10779E003EDDFD123F49EDF00E0F123EDDFD123FB4
:1077AE0049EDF074262408123F4CE4F090175BE08C
:1077BE00FFC3940D901C26E0501824D075F00AA437
:1077CE00FEA3E024D02EFEC3740D9FFFC3EE9FFCDC
:1077DE00800C123F8EFF90175BE024F32FFCECC35E
:1077EE009418400474E82CFCECFF901BE9E4F0A321
:1077FE00EFF075F00A842430901C26F0EC75F00A38
:10780E0084E5F02430A3F0901C2C123F8D901BE8E1
:01781E00F079
:01781F002246
:0340B200901B3927
:1040B500123F77901B47123FCEFF901B3CF0901BA1
:1040C50039123ED56011B42C06901B3CE004F00F6C
:1040D500901B3CE0B409E7901B39123ED5FE642CD9
:1040E500700302424A901B3DEE12404D1205F390BB
:1040F5001B3E12404DA31205F3901B3F12404DA3EA
:10410500A31205F3901B40F0EF2404124099901B75
:1041150041F074052F124099901B42F0FB901B3D16
:10412500123F8D901B48F0901B3F123F8D901B490D
:10413500F0901B41123F68EB124006CF24D0CF34DC
:1041450007901B4AF0A3EFF0C3901BEAE094089098
:104155001BE9E0940040030241F4901B48E004F0A1
:10416500E024E260261460401460602403600302CA
:1041750041F4123FF06078EB54037005124024704F
:104185006E901B49E0640270668017123FF0600A6A
:10419500EB5403705A1240246055901B49E06402A9
:1041A500704D901B4804801C901B49E0FF6404601F
:1041B5000EEF64066009EF64096004EFB40B3090FC
:1041C5001B487401F0A3E004F08024901B4874019F
:1041D500F0A3E004F0E0C3940D4014901B4BE00401
:1041E500F07006901B4AE004F0901B497401F0E45E
:1041F500901B3CF0901B4AE0FEA3E0FF129D9F90B0
:104205001E30123F54EFF0901E31123F54EFF090E4
:104215001E32123F54EFF0901E34123F54EFF0124D
:104225004036123F60742DF0901B4912424B1240EC
:1042350036123F60742DF0901B4812424B124036E7
:05424500123F60E4F0EF
:10424A0022E0FF7E00129D9F901E32E0FF901B3CF1
:10425A00E0FE04F0740E2EF582E4341CF583EFF0D0
:10426A00901E34E0FF901B3CE0FE04F0740E2EF525
:09427A0082E4341CF583EFF0220C
:10A9F40090175AE0B40104D2A78002C2A7E4901CC5
:10AA04001BF0A3F0901BB3F0A3F0C203127D85E406
:07AA1400901BE8F0C20522CF
:03A89F00901B39D2
:10A8A200123F77FFFE901B39123ED56009B42C018E
:10A8B2000E0FEEB402EF901B39123ED5B44105D211
:08A8C200037F0122C2037F00A5
:01A8CA00226B
:037CCD00901B39D0
:107CD000123F77FFA3F0123ED26011B42C06901B26
:107CE0003CE004F00F901B3CE0B403EAE4901B3C42
:107CF000F0123FB57430F0E4FE123ED2FD901B3C12
:107D0000E0FC04F074FF2C123FBCEDF00F0EEEB45B
:107D100009E7123ED2B42C030F80020F0F123ED29D
:107D2000FE901B3CE0FD04F074FF2D123FBCEEF012
:107D3000901B3C123FB5E4F00F0F901B3CF0FE127D
:107D40003ED2FD901B3CE0FC04F074EB2C1240157D
:107D5000EDF00F0EEEB40AE7123ED2B42C030F8002
:107D6000020F0F123ED2FF901B3CE0FE04F074EBBA
:107D70002E124015EFF0901B3CE0FF04F012401271
:047D8000E4F07F01AB
:017D840022DC
:03A37000901B3906
:10A37300123F77FFFE901B39123ED56009B42C01C2
:10A383000E0FEEB407EF901B39123ED5901BD7F09A
:10A393000F123EDD901BD8F0E4A3F0901BD8E0B47D
:0EA3A3002C0C901BD7E0A3F0901BD77430F069
:01A3B1002289
:0B350900901B39EBF0A3EAF0A3E9F0FF
:10351400901B451208A400000000901BB5742D12E6
:103524003FCEA3F0E4A3F0901B3CF0FF123FA512A2
:103534003EDFFE600BB42C010F12407CEFB409ECAB
:10354400123FA5123EDFFBB42C12901C257401F02F
:10355400901B451208A4000000008050E4901C2534
:10356400F0EBB42D09E4901B4912407B8006901BBC
:10357400497401F0E4901B3DF0123FA5123EDFFFB9
:10358400642E6035EF24D0FF901B3DE0243EF5828D
:10359400E4341BF583EFF0901B3DE00412407BA361
:1035A400E0D3940540D3901C257401F0901BD312F2
:1035B40008A4000000007F0022901B3DE024FE6070
:1035C4001014602814603C24037060123F9B023680
:1035D40078901B3EE075F00AA4FFA3E07C002FFF67
:1035E400EC35F0FE3395E0FDFC023678123F9B1279
:1035F4004056A804A905AA06AB07901B3F123EF942
:10360400023678901B3F123F9E124056C004C005FC
:10361400C006C007123F9B1240A2D003D002D001C3
:10362400D000901B40123EE5023678901B3F123FBB
:103634009E1240A2C004C005C006C007123F9B7B77
:10364400107A27F9F81206E7D003D002D001D0008F
:10365400EF2B123F16C004C005C006C007901B40E4
:10366400123F9E124056D003D002D001D000901BCE
:1036740041123EE5901B45120898901B49E0901BAF
:10368400457008123F2E1208048003123F2E901B2F
:10369400D3120898123F2BE41203BE7BA17AF87967
:1036A40051784012018E1203FC901B451208987B3E
:1036B400A07A8679017800123F2B123F81EB2430E7
:1036C400901BB5F0E47B107A27123F29123F81EB5F
:1036D4002430901BB6F0E47BE87A03123F29123FB2
:1036E40081EB2430901BB7F07B64123F27123F819B
:1036F400901BB8123F21123F81901BB9123F211237
:103704000772EB2430901BBAF0E4A3F0901B49E05D
:0A3714007006901BB5742DF07F01C4
:01371E002288
:106AD000C3901BBEE0940A901BBDE0940050037F5E
:106AE00000229017EDE0FEA3E07A002400FFEA3ECA
:106AF000FE1240839E4007E4F0A3F07F02222003B1
:106B0000037F0022901BE4E07002A3E07002FF22EA
:106B10002004037F0022901C1BE0FEA3E0FF901BDB
:106B2000B3E0FAA3E0FBD39FEA9E4006EB9FFFEAA7
:106B30008013901BB3E0FEA3E0FFC3901C1CE09FFA
:106B4000FF901C1BE09E901B3BF0A3EFF0901B3BC3
:106B5000E0FEA3E0FFD394B4EE9400401074689F6D
:106B6000901B3AF074019E901B39F0800F901B3BF4
:106B7000E0FFA3E0901B39CFF0A3EFF0D3901B3AD6
:106B8000E09419901B39E094004006E4901BBD800E
:106B90002F901733E024FE600F146010146011145E
:106BA000601224047D14800E7D28800A7D3C8006BE
:106BB0007D5A80027D78EDFF12408394004016E4F8
:106BC000F0A3F0901BB3E0FFA3E0901C1BCFF0A359
:076BD000EFF07F01227F00BE
:016BD700229B
:03844500901B3950
:10844800123F77FFFE901B39123ED56009B42C010C
:108458000E0FEEB407EF901B39123ED5B42C09E489
:10846800901BE4123FD0FF22E4FE901B39123ED548
:10847800FD642E6010743C2EF582E4341BF583ED08
:10848800F00F0E80E5EE24FD600C047024901B3C78
:10849800123F68A3800F901B3D123F68901B3C124F
:1084A8003FD8901B3E124005901BE4F0A3EFF080EC
:1084B8000A901B3CE0901BE412408E901BE4E0FC09
:1084C800A3E0FDE41203C37B567A0E79ED783F12E0
:0F84D800018E1203FC901BE6EEF0A3EFF07F0085
:0184E7002272
:0383A000901B39F6
:1083A300123F77FFFE901B39123ED56009B42C01B2
:1083B3000E0FEEB408EF901B39123ED5B42C05C254
:1083C300047F0022E4FE901B39123ED5FD642E602B
:1083D30010743C2EF582E4341BF583EDF00F0E8010
:1083E300E5EE24FD600C047024901B3C123F68A34F
:1083F300800F901B3D123F68901B3C123FD8901B8F
:108403003E124005901BB3F0A3EFF0800A901B3C93
:10841300E0901BB312408ED204901BB3E0FEA3E0A6
:10842300FF129D9F901E31E0901BFBF0901E32E0E7
:10843300901BFCF0901E34E0901BFDF0E4A3F07F52
:018443000137
:018444002215
:108927002005030289BBC20512407312405E24FF73
:10893700F582741B3EF583E0FD744F2FF5827417A3
:1089470012404170031240AB901B39E07004A3E062
:10895700640870D712407312405E24EBF582741BD3
:108967003EF583E0FD745F2FF58274171240417066
:10897700031240AB901B39E07004A3E0640970D781
:1089870012A56212A0F47BFF7AB079DF12A6EB1270
:10899700407312405EC3EE94025019742F2FF58274
:1089A70074173EF583E0FF12B0B912404670031208
:0489B70040AB80DE73
:0189BB002299
:108F1D0012AC62EF6401707A12401D12A89F2003FB
:108F2D0003C2052212401D12774B12401D1240B292
:108F3D0012401D127CCD12401D12844512401D128F
:108F4D0083A0EF24FF92047B017A1979321235093F
:108F5D007B017A19793212A370122949128927904F
:108F6D001759E06401702B901734E0600DA3E0FFFA
:108F7D00901BE8E0B5070312A7E4E4901BBCF0904A
:108F8D001733E0600D126AD0901BBCEFF060031236
:038F9D00A7E42224
:104C3B00E4FBFA7842E0FCA3E0FDA3E0FEA3E0FF77
:104C4B0022E4FBFA7841120297E4FBFAF9783F125F
:104C5B00009D1203FC901B78EEF0A3EFF0901B78F5
:104C6B00E0FEA3E0FF7C007D0A120666EF2430FF16
:104C7B00901B75E0FBA3E0FAA3E0F9EF120620907E
:104C8B001B78E0FEA3E0FF7C007D0A120666ED2494
:104C9B0030FF901B75E0FBA3E0FAA3E0F922E024C0
:104CAB00D0FDE434FFFC0203C37F007E407D1C7CFF
:104CBB0046E0F8A3E0F9A3E0FAA3E0FB227401F0CD
:104CCB00A3741BF0A374EBF0A37401F0A3741CF09A
:104CDB0074ACA3F0A37401F0A3227B0104F0A374C2
:104CEB0017F0A3745FF0A3EBF0A3741CF0A374ACE8
:104CFB00F0A3EBF0A3741CF0A3749EF02279207840
:104D0B0041E4FBFA02018EE4FBFA79B412009D90A8
:104D1B001B94020898901858E0FEA3E07C00240036
:104D2B00FDEC3EFCE40203C374D72FF582E4341C84
:104D3B00F58322EBF0A3EAF0A3E9F022EC1203BE19
:104D4B00901B40020898901B78E0FCA3E0FD221218
:104D5B00018E901BA1020898F0901E34E0901CDC91
:104D6B00F0E4A3F0227BCD7ACC79CC783D02018E96
:104D7B007B0A7AD77923783C02018E1203FCE4027A
:104D8B0003BE8F827583001205F3FE22E4FBFAF952
:104D9B00784022901E64120898901E6C22F0901E90
:104DAB0030E0901CD8F0227A0F79497840020297B4
:064DBB00901B4402089861
:10ABA200901BA51208987FDA7E0F7D497C40901B8E
:10ABB200A5124CBC12018EE4FBFA793478430202EE
:01ABC20097FB
:0674AF00901B85124D3E0A
:1074B500E4FF901B85124CA0124D8D74902FF58220
:1074C500E4341BF583EEF00FEFB408E6901B92123F
:1074D5004CA9124D08C004C005C006C007901B93F7
:1074E500124CA9D003D002D001D00012009DC004D7
:1074F500C005C006C007901B95124CA9124D70D04F
:1075050003D002D001D00012009DC004C005C00602
:10751500C007901B96124CA9124D7BD003D002D008
:1075250001D00012009D901B8C120898901B9012A0
:107535004CA9124D08C004C005C006C007901B9198
:10754500124CA9D003D002D001D00012009DC00476
:10755500C005C006C0077970901B8C124C3B120207
:1075650097D003D002D001D00012009D901B881245
:107575000898901B97E0B4530F901B88124C40124B
:0E75850003AD901B88120898901B88124C4092
:0175930022D5
:0668BE00901B85124D3E07
:1068C400E4FF901B85124CA0124D8D74902FF5821D
:1068D400E4341BF583EEF00FEFB409E6901B93123A
:1068E4004CA9124D08C004C005C006C007901B94F3
:1068F400124CA9D003D002D001D00012009DC004D4
:10690400C005C006C007901B96124CA9124D70D04A
:1069140003D002D001D00012009DC004C005C006FF
:10692400C007901B97124CA9124D7BD003D002D004
:1069340001D00012009D901B8C120898901B91129C
:106944004CA9124D08C004C005C006C007901B9096
:10695400124CA979C87842124D0CD003D002D00150
:10696400D00012009DC004C005C006C007901B9251
:10697400124CA9D003D002D001D00012009DC00453
:10698400C005C006C007E4FBFA79707842901B8CFE
:10699400124C40120297D003D002D001D000120052
:1069A4009D901B88120898901B98E0B4570F901B79
:1069B40088124C401203AD901B88120898901B88D3
:0369C400124C4032
:0169C70022AD
:1058B20012ABA2901B95120898901B8D124C4012AD
:1058C200ABA2901B99120898901B99124CBC901B8A
:1058D20095124C40120099901B9D120898901B91B2
:1058E200124C4012ABA2C004C005C006C007901BF8
:1058F20089124C4012ABA2D003D002D001D00012C8
:105902000099124D97120297124B11C004C005C0A4
:1059120006C007901BA91208A440000000D007D0BF
:1059220006D005D00412520AC004C005C006C00742
:10593200901B99124C40124AFBC004C005C006C01D
:1059420007901B95124C40124AFBD003D002D001A3
:10595200D00012018ED003D002D001D00012018EED
:10596200C004C005C006C007124D97901B9D124C83
:1059720040120297124B11C004C005C006C0079026
:105982001BA91208A440000000D007D006D005D001
:105992000412520AD003D002D001D00012009D128C
:1059A20081A712A59D124D97124D5A901BA1124C20
:1059B200407B197A5179C77845124D5A901BA11232
:1059C2004CB412018EE4FBFAF9783F12009D127179
:1059D200EAE4FBFA79207841120297124D5D901B9E
:0459E200A1124C4082
:0159E600229E
:109C2B001274AF901E70120898901B7C124CA012ED
:109C3B0068BE901E6C120898901B7F124CA0127479
:109C4B00AF901E68120898901B82124CA01268BE2F
:109C5B00124D9E124C40901B89120898901E681250
:109C6B004C40901B8D120898901E64124C40901B18
:0D9C7B0091120898901E70124C400258B2D1
:05646D00901B75EFF02B
:106472007009901B7C124CE512656E901B75E0B49E
:106482000118901B7C124CC8124D007B017A1B79BB
:10649200FF129C2B901E74120898901B75E0B40298
:1064A20024901B7C7401F0A37417F0745F124CDD0E
:1064B200741BF0A374FF124CDE741BF0A374EBF098
:1064C2007B0112656EE4901B78F0901B78E0FFC3AD
:1064D2009408500D124D33E4F0901B78E004F080E4
:1064E200E9901E74124CB41203345028901E741298
:1064F2004C4012657C901CD7742A124DA8A3742EAE
:10650200F0901E31E0901CDAF0901E32E0901CDB1D
:10651200124D632279C8901E74124C3B12029712DC
:10652200657C901E33E0901CD7124DA8901E31E07E
:10653200901CD9F0901E32E0901CDAF0A3742E1257
:106542004D63901B78F0901B78E0FFC39403501BBF
:10655200124D33E0B43014901B78E024D7124D363C
:0B6562007420F0901B78E004F080DB58
:10656D00227A17794F129C2B901E741208982212C2
:0E657D0003FC901B76EEF0A3EFF0129D9F2220
:108E1600AB07AA06A905A804901B8C124C401200A9
:108E260099C004C005C006C007901B88124CBC90B0
:108E36001B90124C40120099901B9C120898D00768
:108E4600D006D005D004128627124D1AE4FFFE7D07
:108E5600347C43901B94124CBC12018E1203AD7BE2
:108E6600D8124DB2124D1A901B94124C40784212F1
:108E76004D12E4FFFEFDFC901B94124CBC12033411
:108E8600500B901B94124C407843124D12901B9439
:038E9600124C403B
:018E990022B6
:109C88001274AF901E70120898901B7B124CA01291
:109C980068BE901E6C120898901B7E124CA012741D
:109CA800AF901E68120898901B81124CA01268BED3
:109CB800124D9E124C40901B88120898901E6812F4
:109CC8004C40901B8C120898901E64124C40901BBC
:0D9CD80090120898901E70124C40028E16DB
:058AE200901B75EFF090
:108AE7007018901B7B124CE57A17794F129C8812ED
:108AF70003FC901B76EEF0A3EFF0901B75E0B4013A
:108B07000C901B7B124CC8124D00128B5A901B7590
:108B1700E0B40223901B7B7401F0A3741BF0A374D1
:108B2700EB124CDE7417F0A3744F124CDE7417F07F
:108B3700A3745FF0128B5AD3901B77E09467901B56
:108B470076E094014004E4F0A3F0901B76E0FEA3E6
:028B5700E0FF3D
:108B5900227B017A1B79FF129C881203FC901B76F9
:068B6900EEF0A3EFF02284
:10004600901B3C120898901B40124C40A3124CBCCB
:100056001203345004E4FEFF22901B40124CBCA352
:10006600124C40120099901B3C124CBC1202971283
:10007600624AE4FBFA7934784312018E7BDA124D38
:05008600B21203FC2290
:0579C300901B39EFF0FC
:1079C800702B901E74124C40124D86C004C005C026
:1079D80006C007124D20124D4B901CE2124C40126B
:1079E8004DBBD007D006D005D004127A83901B393E
:1079F800E0B4012E901E74124C40124D86C004C093
:107A080005C006C007901BD3124C40124D47901C6E
:107A1800E2124C40124DBBD007D006D005D004125C
:107A28007A83901B39E064027033901E74124C40C4
:107A3800124D86C004C005C006C007901BD3124C67
:107A480040124D47124D20124DBBD007D006D0052D
:107A5800D004120046901B3AEEF0A3EFF0D3901B2F
:107A68003BE0945A901B3AE094004006E4F0A3747B
:0A7A78005AF0901B3AE0FEA3E0FF75
:0D7A820022120046901B3AEEF0A3EFF02216
:10A52600901B75ECF0A3EDF0C3901BB4E09F901B5D
:10A53600B3E09E5010901B75E0FCA3E0FDC3EF9DB9
:10A54600FFEE9CFE22C3901B76E09FFF901B75E0FA
:0CA556009EFEC374689FFF74019EFE22ED
:0654D100901B75124D3E18
:1054D700A3EEF0A3EFF090185AE0FF60030255C463
:1054E700124D51C39417EC94005007124C9D744E03
:1054F700804AC3ED9444EC94005007124C9D744EBF
:10550700801EC3ED9471EC94005007124C9D7445B6
:10551700802AC3ED949EEC94005013124C9D745353
:10552700120620124C9D90000174450255C1C3ED2F
:1055370094CBEC94005013124C9D74531206201216
:105547004C9D90000174200255C1C3ED94F8EC9472
:10555700005007124C9D7453802AC3ED9425EC9498
:10556700015013124C9D7457120620124C9D900047
:105577000174200255F3C3ED9452EC9401501312B9
:105587004C9D744E120620124C9D900001745702D8
:1055970055F3C3ED9468EC9401124C9D500F744E73
:1055A700120620124C9D9000017420800D742D125C
:1055B7000620124C9D900001742D0255F3EF6401F3
:1055C7007012124D51E41203C379F0124C4C900043
:1055D70001EF801890185AE06402701A124D51E4D6
:1055E7001203C37920124C4C900001EF120632903F
:1055F7000002E4020632124C9D742D120620124C52
:105607009D900001742D120632900002E4120632BA
:0956170090185A7401F012A5620A
:015620002267
:107A8F005620002D2D2D2E2D00404320002D2D2D65
:107A9F002D2E2D00685061002C00475053204F466B
:107AAF004620004B6D0047505320576169742E2EAE
:107ABF002E2000533A0020004B6D202020002D2D4A
:107ACF002D00244130322C562C00576169742E0042
:107ADF000D0A00244130322C412C0050302D3E0035
:107AEF004B6D20002D2D005350443A004B6D20203C
:107AFF0000414C543A004D2C00202D2D2D2D2D00E2
:107B0F00244130322C4F2C00475053204F46460013
:107B1F005350443A2D2D2D2D2D2D4B6D6820204681
:107B2F00697865642000616C743A2D2D2D2D2D2DF3
:107B3F004D002D2D2D2D202D2D202D2D20200024DD
:067B4F004630310D0A0072
:1020D900901B8174FFF0A3747AF074A7A3F07B01BD
:1020E9007A04790422E4FAF9F8901B59E0FCA3E098
:1020F900FDA3E0FEA3E0FF12A2A6E47B0AFAF9F829
:1021090012A2A6EB2430901B56FFE0FBA3E0FAA332
:10211900E0F9EF020620E0901B3BFFE0FE04F074BB
:10212900622EF582E43405F58322120620901B57AE
:10213900E475F0010206BBEEF0A3EFF0901B6BE033
:10214900FCA3E0FDA3E0FEA3E0FF22901B597D0A5A
:10215900E0FEA3E0FF7C00020666E4900404F09030
:102169001B8174FFF0A322FBE024D0FFE434FFFEBF
:102179007D0A120654A3E024D0FDEC34FFCD2FFFD5
:10218900ED3E22901B3DE0FEA3E0FFE4FCFD7B64F5
:10219900FAF9F81206E7A804A905AA06AB07901BE5
:1021A9003FE0FEA3E0FFE4FCFDEB2FFFEA3EFEED7E
:1021B90039FDEC38FC22901B56E0FBA3E0FAA3E0C2
:1021C900F9221200267401901B81F0A37405F0A373
:1021D9007462227B01901B39E0FCA3E0FDA3E0FFC0
:1021E900A3E0901B5BCFF0A3EFF0901B3DE0FFA3B2
:1021F900E0901B5DCFF0A3EFF0901B3FE0FFA3E061
:10220900901B5FCFF0A3EFF0901B43E0221203BEB7
:102219007B8F7AC27975783D12018EE4FBFA79A039
:10222900784012009DE4FBFA792078411202971256
:1022390003FC901B41EEF0A3EFF07B0122E4FFFECB
:102249007C41901B6BE0F8A3E0F9A3E0FAA3E0FB63
:10225900227A1D7948901B39E0FCA3E0FDA3E0FF39
:10226900A3E022EC1203BE7B007A5079C3784702BF
:102279000297E0FCA3E0FDA3E0FEA3E02405FFE450
:102289003EFEE43DFDE43CFCE47B0AFAF9F822EF6A
:10229900F0901B3BE0FF04F074622F22E4FBFA7814
:1022A9004112018EA804A905AA06AB0722EBF0A3E7
:1022B900EAF0A3E9F0A322120099901B6B02089897
:1022C900ED2430FF901B5622120898901B39E0FE2E
:1022D900A3E0FFE4FCFD22F583E0FDAC070F746287
:1022E9002C22EF2430FF901B5622AA06AB07E024CC
:1022F900D0FFE434FFFE7D64120654EF2BFFEE3A63
:10230900FE22901B817401F0A322E0FCA3E0FDEC06
:102319000203C3ED2430FF901B5622EB2FFFEA3E48
:10232900FEE93DFDE83CFC020898901B5BCFF0A359
:10233900EFF0901B41E0FFA3E0901B5D22901B5B37
:10234900CFF0A3EFF0901B3DE0FFA3E0901B5D22CF
:1023590074FFF0A3747AF0A374CD22ECF0FEA3ED20
:10236900F0FF7C007D64120666EF22E024D0FFE4D2
:1023790034FFFE7C007D0A020654120620901B578A
:10238900227C007D0A020666EFF0901E32E0FF22F1
:10239900EFF0901E34E0FF227B407A42790FF80279
:1023A90006E7901B43E0901B5DF07B01227401F06E
:1023B900A3741BF0A374FB221202970203FC1206FA
:1023C90020901B57227B107A27F9F80206E7747AC6
:0523D900F0A374DF22F7
:06B0E5001220E702A5D8CD
:094F3400901B561222B6120898D7
:104F3D00E4FFFE7D347C43901B5D12224E12009DDA
:104F4D001222C3E4FBFA79A078411221451223C144
:104F5D00901B61122140C004C005C006C007901B04
:104F6D006112231379A01222A5D007D006D005D047
:104F7D00041222C0E4FBFAF978401221451223C134
:104F8D00901B63122140C004C005C006C007901BD2
:104F9D0063122313E4FBFAF978401222AAD007D04A
:104FAD0006D005D0041222C07D4012224612018E79
:104FBD001203FC901B65EEF0A3EFF0E4FFFE7DB451
:104FCD007C42901B5912224E12009D1222C3E4FB0B
:104FDD00FA792078411221451223C1901B671221C5
:104FED0040C004C005C006C007901B67122313798B
:104FFD00201222A5D007D006D005D0041222C0124F
:10500D0021451203FC901B69EEF0A3EFF0A31221D2
:10501D0048C004C005C006C007901B6912231312B7
:10502D0022ADD007D006D005D0041222C07DC0120B
:10503D00224612018E1203FC901B61A3E02441FD58
:10504D00901B561221C2ED120620901B67A3E0247F
:10505D0041FD901B561221C2900001ED12063290B7
:10506D001B63A3E02430900002120632901B69A34B
:10507D00E02430900003120632901B65A3E024411A
:10508D00900004120632EF24419000051206329072
:06509D000006E4020632E9
:107EEC00901B561222B61223642430901B5612217A
:107EFC00121221BF1205DAB43005742012062012BA
:107F0C00213612215412238A12231C1221131221FE
:107F1C003612215412231C1221131221361221BFA6
:107F2C007440122133901B5B122157EF12231D1248
:107F3C002113122136901B5B12215712231C122184
:107F4C00131221361221BF7427122133901B5D129C
:107F5C002157EF12231D122113122136901B5D1293
:107F6C00215712231C1221131221361221BF742205
:107F7C001221331221BF7420122133901B5FE0FFBA
:107F8C00901B561221131221361221BFE402062037
:10759400901B561222B61208987B807A96799878B6
:1075A40000901B5912214812A2A6EF12210D901B24
:1075B400561221C21205DAB4300574201206209046
:1075C4001B571221397B407A42790F78001220F23E
:1075D400901B571221397BA07A86790178001220FA
:1075E400F2901B57122139901B561221C2742E128D
:1075F40023C7122139E47B107A271220F0901B57FD
:10760400122139E47BE87A031220F0901B571221EF
:10761400397B641220EE901B571221397B0A122009
:10762400EE901B57122139122291901B59122148B6
:10763400122109901B57122139901B561221C27432
:10764400401223C7122139901B561221C2742012F2
:1076540023C7122139901B5DE012210F901B571292
:0C7664002139901B561221C2E4020620BE
:1073C500901B561222B61223641222CA1221139060
:1073D5001B561221C21205DAB4300574201206209C
:1073E500901B57122139901B5912215712238A12CB
:1073F50022C9122113901B57122139901B591221B2
:10740500571222C9122113901B57122139901B566E
:107415001221C27440122383122139901B5B122161
:1074250057EF1222CA122113901B57122139901BB4
:107435005B1221571222C9122113901B57122139B1
:10744500901B561221C2742E122383122139901BD0
:107455005D122157EF1222CA122113901B571221D8
:1074650039901B5D1221571222C9122113901B5707
:10747500122139901B561221C2742712238312211F
:1074850039901B561221C274201223831221399080
:107495001B5FE0FF901B56122113901B57122139D9
:0A74A500901B561221C2E4020620DB
:1059E700901B561222B6ECF0A3EDF0901B60E0245A
:1059F70032F0901B5FE03400F0D3A3E09463901B78
:105A07005FE09400400E901B5EE004F07006901B70
:105A17005DE004F0D3901B5EE09463901B5DE0941F
:105A2700004012E4F0A3F0901B5CE004F0700690D5
:105A37001B5BE004F0D3901B5CE0943B901B5BE0A6
:105A470094004012E4F0A3F0901B5AE004F07006B3
:105A5700901B59E004F0901B62E0901B59700612EE
:105A67002157EF801B7D641221591222EB1221135B
:105A7700901B57122139901B5912215712238AED77
:105A87001222EC122113901B57122139901B591225
:105A97002157ED1222EC122113901B571221399036
:105AA7001B5B1221571222EB122113901B57122155
:105AB70039901B5B122157ED1222EC122113901B18
:105AC70057122139901B561221C2742E12062090AC
:105AD7001B57122139901B5D1221571222EB1221FD
:105AE70013901B57122139901B5D122157ED12227B
:105AF700EC122113901B57122139901B61E0FF9084
:105B07001B56122113901B57122139901B56122135
:055B1700C2E4020620BB
:10294900901C00122374901BFF1222F3901C011299
:10295900217F901B39F0A3EFF0901C021221719096
:102969001B3BF0A3EFF0901C05122171901B3DF069
:10297900FAA3EFF0901C07122170901B3FF0A3EF10
:10298900F0901C09E0901B43F0901B54F0AF03AE8C
:1029990002E4122196C004C005C006C007901B3B83
:1029A9001222D71223CED003D002D001D000EF2BB0
:1029B900FFEE3A1221B71222911206E7901B441238
:1029C90022D11223A1C004C005C006C007E47B06BA
:1029D900FAF9F8901B4412214812A2A6D003D0029A
:1029E900D001D000901B44122324901B4412227B57
:1029F90012A2A6901B44120898901746E0701090F6
:102A09001B441221481223AB7A1D79481275949000
:102A19001746E06402701612218C12221612225AED
:102A290012233312220C901B5FF0127EEC7A1B7971
:102A3900FF1221DC901B61F0E4A3F01259E7901713
:102A490046E0B401127B0112225A12234612220CCB
:102A5900901B5FF01273C5901BEC122374901BEB53
:102A69001222F3901BED12217F901B39F0A3EFF096
:102A7900901BEE122171901B3BF0A3EFF0901BF11C
:102A8900122171901B3DF0FAA3EFF0901BF3122174
:102A990070901B3FF0A3EFF0901BF5E0901B43F003
:102AA900901B55F0AF03AE02E4122196C004C00595
:102AB900C006C007901B3B1222D71223CED003D0E9
:102AC90002D001D000EF2BFFEE3A1221B71222916A
:102AD9001206E7901B481222D11223A1C004C00597
:102AE900C006C007E47B06FAF9F8901B4812214892
:102AF90012A2A6D003D002D001D000901B48122305
:102B090024901B4812227B12A2A6901B48120898F7
:102B1900901746E07010901B481221481223AB7A97
:102B29001D791B127594901746E06402701A1221E0
:102B39008C1222167A1D791B12225E12233312225D
:102B49000C901B5FF0127EEC7A1B79EB1221DC9062
:102B59001B61F0A37401F01259E7901746E0B40124
:102B6900167B017A1D791B12225E12234612220C52
:102B7900901B5FF01273C5901B54E0901B44B44E38
:102B89000812214812226C800912214812226C1263
:102B990003AD901B4C120898901B55E0901B48B44C
:102BA900450812214812226C800912214812226C10
:102BB9001203AD901B501208987B017A1D7907907A
:102BC9001B50122148901B5D120898901B4C122132
:042BD90048024F342B
:10002600E4FEEEC39F50151221287420F074632E4F
:0C003600F582E43405F583E4F00E80E66A
:01004200229B
:109F5D007F0A900562E4F0A3DFFCE4901B3BF07BED
:109F6D0064FAF9F8901C21122148120772129D9F74
:109F7D00901E3312211FEFF0901E3012211FEFF0B3
:109F8D00901E3112211FEFF0901E3212211F12224E
:109F9D009812212B742EF0901E3412211F1222982C
:059FAD0012212BE4F07D
:019FB200228C
:10576C00200879128D0C12230B741EF07478122001
:10577C00E5129455122168747AF0A3748F1220E606
:10578C001258A4300F0C7401F0A3741DF0A37468AC
:10579C00800A74FFF0A3747AF0A374921220E612BC
:1057AC009455122168747AF0A374981220E612585A
:1057BC00A4300F0C7401F0A3741DF0A3745D800A67
:1057CC0074FFF0A3747AF0A3749C1220E612945523
:1057DC00122168747AF0A374A302583590068FE0F6
:1057EC007023122168747AF0A374A91220E612585F
:1057FC00AB1221CE1220E6129455122168747AF065
:10580C00A374B2802420032A122168747AF0A37442
:10581C00B51220E61258AB1221CE1220E612945586
:10582C00122168747AF0A374B21220E61294550215
:10583C00589D300362122168747AF0A374C212204E
:10584C00E612945512230B741BF0A374D71220E6A6
:10585C00129455122168747AF0A374C51220E612C2
:10586C009455129F5D1221CE1220E61294551221EE
:10587C0068747AF0A374C71220E6129455901B81B9
:10588C003004051223B680031223591220E6129419
:10589C00551220D912945522129455901B81221224
:0658AC009455129F5D22DD
:0687F900901B3B120898E2
:1087FF007F0A900562E4F0A3DFFCE4901B3FF0904A
:10880F001B3BE0FCA3E0FDA3A3EC33501BA3122200
:10881F009D12212B742DF0901B3B1221481208043E
:10882F00901B3B120898800C901B3F12229D122127
:10883F002B7420F0901B3BA312214D129D9F901E75
:10884F0033E0901B3F122123EFF0901E30E0FF909A
:10885F001B3F122124EFF0901E31E0FF901B3F12BF
:10886F002124122391901B3F122124122399901B34
:10887F003F122124EFF0901B3F12229D12212BE477
:01888F00F0F8
:0188900022C5
:109F06007D0A900562E4F0A3DDFCE4901B3BF012B1
:109F16009D9F901E33E0FF901B3B122124EFF09093
:109F26001E30E0FF901B3B122124EFF0901E31E023
:109F3600FF901B3B122124122391901B3B122124DC
:109F4600122399901B3B122124EFF0901B3B122207
:069F56009D12212BE4F036
:019F5C0022E2
:1092FA0012391F122163747AF0A374D11220E61274
:10930A0094557F0E1221CB1220E612945512216831
:10931A00747AF0A374D91220E61294551220D91245
:10932A0094551220D91294551220D912945512200C
:10933A00D91294551220D91294551220D912945543
:10934A0012576C12216812235D1220E612945512EC
:10935A0020D91294551221681223D71220E61294AA
:04936A005502B0E513
:10A471007D0A900562E4F0A3DDFCE4901B3BF01241
:10A481009D9F901E31E0FF901B3B122124122391CE
:10A49100901B3B122124122399901B3B122124EF84
:0CA4A100F0901B3B12229D12212BE4F0D6
:01A4AD00228C
:1042830012391F122163747AF0A374E21220E6122A
:1042930094552008147F0B1221CB1220E6124430D0
:1042A300741CF0A37426024325122168747AF0A3C8
:1042B30074EA1220E61294557F0212646D12230BE6
:1042C300741CF0A374D81220E6129455122168745A
:1042D3007AF0A374EF1220E61294557F02128AE259
:1042E30012443B1221CE1220E61294551221687417
:1042F3007AF0A374C51220E612945520040B122100
:1043030068747AF0A374F38019901B39E0FEA3E07C
:10431300FF901BB3E0FCA3E0FD12A52612443B1261
:1043230021CE1220E61294551220D9129455901BD7
:10433300E6E0FEA3E0FF129F06122168747AF0A361
:1043430074F61220E61294551221CE1220E612942E
:1043530055122168747AF0A374FB1220E6124430DC
:10436300741DF0A374071220E61294551220D9127B
:104373009455901C25E0701D901BD3122148128781
:10438300F9122168747BF0A374001220E61294558D
:104393001221CE8018122168747BF0A374001220BE
:1043A300E6129455122168747BF0A374081220E678
:1043B300129455122168747BF0A374051220E6123F
:1043C300945512230B741DF0A374481220E6129423
